{
	"data": {
		"bytecode": {
			"linkReferences": {},
			"object": "60806040523480156200001157600080fd5b506040518060400160405280600b81526020017f5469636b657453746f72650000000000000000000000000000000000000000008152506040518060400160405280600381526020017f544b5300000000000000000000000000000000000000000000000000000000008152508160009080519060200190620000969291906200032e565b508060019080519060200190620000af9291906200032e565b505050620000c960086200011960201b620019df1760201c565b620000de6000801b336200012f60201b60201c565b620001137f7217babe285b1f07b4928b85bc48031c596a29cd8a5eafe68e8749db667d043f6000801b6200014560201b60201c565b62000443565b6001816000016000828254019250508190555050565b620001418282620001a960201b60201c565b5050565b600062000158836200029b60201b60201c565b90508160076000858152602001908152602001600020600101819055508181847fbd79b86ffe0ab8e8776151514217cd7cacd52c909f66475c3af44e129f0b00ff60405160405180910390a4505050565b620001bb8282620002bb60201b60201c565b620002975760016007600084815260200190815260200160002060000160008373ffffffffffffffffffffffffffffffffffffffff1673ffffffffffffffffffffffffffffffffffffffff16815260200190815260200160002060006101000a81548160ff0219169083151502179055506200023c6200032660201b60201c565b73ffffffffffffffffffffffffffffffffffffffff168173ffffffffffffffffffffffffffffffffffffffff16837f2f8788117e7eff1d82e926ec794901d17c78024a50270940304540a733656f0d60405160405180910390a45b5050565b600060076000838152602001908152602001600020600101549050919050565b60006007600084815260200190815260200160002060000160008373ffffffffffffffffffffffffffffffffffffffff1673ffffffffffffffffffffffffffffffffffffffff16815260200190815260200160002060009054906101000a900460ff16905092915050565b600033905090565b8280546200033c90620003de565b90600052602060002090601f016020900481019282620003605760008555620003ac565b82601f106200037b57805160ff1916838001178555620003ac565b82800160010185558215620003ac579182015b82811115620003ab5782518255916020019190600101906200038e565b5b509050620003bb9190620003bf565b5090565b5b80821115620003da576000816000905550600101620003c0565b5090565b60006002820490506001821680620003f757607f821691505b602082108114156200040e576200040d62000414565b5b50919050565b7f4e487b7100000000000000000000000000000000000000000000000000000000600052602260045260246000fd5b61485780620004536000396000f3fe6080604052600436106102045760003560e01c80636352211e11610118578063a22cb465116100a0578063c8c140b91161006f578063c8c140b9146107a4578063ce4aa9e4146107cd578063d547741f146107f8578063dccfe31014610821578063e985e9c51461084a57610204565b8063a22cb465146106ea578063b2085d5614610713578063b88d4fde1461073e578063c87b56dd1461076757610204565b8063765cbc9b116100e7578063765cbc9b1461060157806387a460591461062c57806391d148541461065757806395d89b4114610694578063a217fddf146106bf57610204565b80636352211e146105355780636595171c1461057257806370a082311461059b57806374648138146105d857610204565b806324d7806c1161019b57806336568abe1161016a57806336568abe1461045057806342842e0e146104795780634eef5790146104a257806351f49744146104df578063634c08681461050a57610204565b806324d7806c1461039857806326606448146103d5578063278ecde1146103fe5780632f2ff15d1461042757610204565b806309ca21a6116101d757806309ca21a6146102d75780630ba56c4c1461030757806323b872dd14610332578063248a9ca31461035b57610204565b806301ffc9a71461020957806306fdde0314610246578063081812fc14610271578063095ea7b3146102ae575b600080fd5b34801561021557600080fd5b50610230600480360381019061022b9190613425565b610887565b60405161023d9190613f44565b60405180910390f35b34801561025257600080fd5b5061025b610899565b6040516102689190613f95565b60405180910390f35b34801561027d57600080fd5b5061029860048036038101906102939190613477565b61092b565b6040516102a59190613e8a565b60405180910390f35b3480156102ba57600080fd5b506102d560048036038101906102d09190613384565b6109b0565b005b6102f160048036038101906102ec91906132b3565b610ac8565b6040516102fe9190614277565b60405180910390f35b34801561031357600080fd5b5061031c610c05565b6040516103299190614277565b60405180910390f35b34801561033e57600080fd5b50610359600480360381019061035491906131ad565b610c1c565b005b34801561036757600080fd5b50610382600480360381019061037d91906133c0565b610c7c565b60405161038f9190613f5f565b60405180910390f35b3480156103a457600080fd5b506103bf60048036038101906103ba9190613148565b610c9c565b6040516103cc9190613f44565b60405180910390f35b3480156103e157600080fd5b506103fc60048036038101906103f79190613477565b610cb2565b005b34801561040a57600080fd5b5061042560048036038101906104209190613477565b610e35565b005b34801561043357600080fd5b5061044e600480360381019061044991906133e9565b611030565b005b34801561045c57600080fd5b50610477600480360381019061047291906133e9565b611059565b005b34801561048557600080fd5b506104a0600480360381019061049b91906131ad565b6110dc565b005b3480156104ae57600080fd5b506104c960048036038101906104c49190613148565b6110fc565b6040516104d69190613f44565b60405180910390f35b3480156104eb57600080fd5b506104f461112f565b6040516105019190613f7a565b60405180910390f35b34801561051657600080fd5b5061051f611134565b60405161052c9190614277565b60405180910390f35b34801561054157600080fd5b5061055c60048036038101906105579190613477565b61113f565b6040516105699190613e8a565b60405180910390f35b34801561057e57600080fd5b5061059960048036038101906105949190613148565b6111f1565b005b3480156105a757600080fd5b506105c260048036038101906105bd9190613148565b6112d0565b6040516105cf9190614277565b60405180910390f35b3480156105e457600080fd5b506105ff60048036038101906105fa9190613148565b611388565b005b34801561060d57600080fd5b50610616611444565b6040516106239190613f5f565b60405180910390f35b34801561063857600080fd5b50610641611468565b60405161064e9190614277565b60405180910390f35b34801561066357600080fd5b5061067e600480360381019061067991906133e9565b61147f565b60405161068b9190613f44565b60405180910390f35b3480156106a057600080fd5b506106a96114ea565b6040516106b69190613f95565b60405180910390f35b3480156106cb57600080fd5b506106d461157c565b6040516106e19190613f5f565b60405180910390f35b3480156106f657600080fd5b50610711600480360381019061070c9190613277565b611583565b005b34801561071f57600080fd5b50610728611599565b6040516107359190613f7a565b60405180910390f35b34801561074a57600080fd5b50610765600480360381019061076091906131fc565b61159e565b005b34801561077357600080fd5b5061078e60048036038101906107899190613477565b611600565b60405161079b9190613f95565b60405180910390f35b3480156107b057600080fd5b506107cb60048036038101906107c69190613148565b611752565b005b3480156107d957600080fd5b506107e2611888565b6040516107ef9190614277565b60405180910390f35b34801561080457600080fd5b5061081f600480360381019061081a91906133e9565b611893565b005b34801561082d57600080fd5b5061084860048036038101906108439190613148565b6118bc565b005b34801561085657600080fd5b50610871600480360381019061086c9190613171565b61194b565b60405161087e9190613f44565b60405180910390f35b6000610892826119f5565b9050919050565b6060600080546108a89061461e565b80601f01602080910402602001604051908101604052809291908181526020018280546108d49061461e565b80156109215780601f106108f657610100808354040283529160200191610921565b820191906000526020600020905b81548152906001019060200180831161090457829003601f168201915b5050505050905090565b600061093682611a6f565b610975576040517f08c379a000000000000000000000000000000000000000000000000000000000815260040161096c90614197565b60405180910390fd5b6004600083815260200190815260200160002060009054906101000a900473ffffffffffffffffffffffffffffffffffffffff169050919050565b60006109bb8261113f565b90508073ffffffffffffffffffffffffffffffffffffffff168373ffffffffffffffffffffffffffffffffffffffff161415610a2c576040517f08c379a0000000000000000000000000000000000000000000000000000000008152600401610a23906141f7565b60405180910390fd5b8073ffffffffffffffffffffffffffffffffffffffff16610a4b611adb565b73ffffffffffffffffffffffffffffffffffffffff161480610a7a5750610a7981610a74611adb565b61194b565b5b610ab9576040517f08c379a0000000000000000000000000000000000000000000000000000000008152600401610ab0906140d7565b60405180910390fd5b610ac38383611ae3565b505050565b600080349050610ad88187611b9c565b8015610ae357504283115b15610bf557610af260086119df565b6000610afe6008611c3b565b9050610b0a8982611c49565b610b148189611e17565b6040518060c0016040528087815260200186815260200188815260200185815260200160001515815260200160001515815250600960008381526020019081526020016000206000820151816000019080519060200190610b76929190612f42565b506020820151816001019080519060200190610b93929190612f42565b50604082015181600201556060820151816003015560808201518160040160006101000a81548160ff02191690831515021790555060a08201518160040160016101000a81548160ff0219169083151502179055509050508092505050610bfb565b60009150505b9695505050505050565b660151418d396d2e6002610c199190614466565b81565b610c2d610c27611adb565b82611e8b565b610c6c576040517f08c379a0000000000000000000000000000000000000000000000000000000008152600401610c6390614237565b60405180910390fd5b610c77838383611f69565b505050565b600060076000838152602001908152602001600020600101549050919050565b6000610cab6000801b8361147f565b9050919050565b7f3013243da6399844d88a1e05c4b62ea91c0cd18e68113ae5c9e1f159e0e8448533604051610ce19190613e8a565b60405180910390a1610cf2336110fc565b80610d025750610d0133610c9c565b5b610d41576040517f08c379a0000000000000000000000000000000000000000000000000000000008152600401610d3890614217565b60405180910390fd5b6009600082815260200190815260200160002060040160009054906101000a900460ff1615610d6f57600080fd5b4260096000838152602001908152602001600020600301541115610d9257600080fd5b6009600082815260200190815260200160002060040160019054906101000a900460ff1615610dc057600080fd5b60016009600083815260200190815260200160002060040160006101000a81548160ff0219169083151502179055507f6afb3a561be2d1cfe00fa2081e86e48ffd3115ab171fef548eeccccda1d4cbfe81610e1a8361113f565b33604051610e2a939291906142c9565b60405180910390a150565b6000610e408261113f565b90508073ffffffffffffffffffffffffffffffffffffffff163373ffffffffffffffffffffffffffffffffffffffff1614610e7a57600080fd5b6009600083815260200190815260200160002060040160009054906101000a900460ff1615610ea857600080fd5b4260096000848152602001908152602001600020600301541115610ecb57600080fd5b6009600083815260200190815260200160002060040160019054906101000a900460ff1615610ef957600080fd5b60016009600084815260200190815260200160002060040160016101000a81548160ff0219169083151502179055506000660151418d396d2e90506005600960008581526020019081526020016000206002015412158015610f715750600d6009600085815260200190815260200160002060020154125b15610f9157660151418d396d2e6002610f8a9190614466565b9050610fc7565b600d600960008581526020019081526020016000206002015412610fc657660151418d396d2e6003610fc39190614466565b90505b5b610ff0818373ffffffffffffffffffffffffffffffffffffffff166121c590919063ffffffff16565b7f62bcf8e846ae15e1da81cfd6be83f68357bff60c5cda56c97b51e05eea2fa42083838360405161102393929190614292565b60405180910390a1505050565b61103982610c7c565b61104a81611045611adb565b6122b9565b6110548383612356565b505050565b611061611adb565b73ffffffffffffffffffffffffffffffffffffffff168173ffffffffffffffffffffffffffffffffffffffff16146110ce576040517f08c379a00000000000000000000000000000000000000000000000000000000081526004016110c590614257565b60405180910390fd5b6110d88282612437565b5050565b6110f78383836040518060200160405280600081525061159e565b505050565b60006111287f7217babe285b1f07b4928b85bc48031c596a29cd8a5eafe68e8749db667d043f8361147f565b9050919050565b600d81565b660151418d396d2e81565b6000806002600084815260200190815260200160002060009054906101000a900473ffffffffffffffffffffffffffffffffffffffff169050600073ffffffffffffffffffffffffffffffffffffffff168173ffffffffffffffffffffffffffffffffffffffff1614156111e8576040517f08c379a00000000000000000000000000000000000000000000000000000000081526004016111df90614117565b60405180910390fd5b80915050919050565b7fab7e4b2c6ac3574c44d3f8f16ffaea1c2d8140c0c09faef54c8150d22eec3cef336040516112209190613e8a565b60405180910390a161123133610c9c565b611270576040517f08c379a000000000000000000000000000000000000000000000000000000000815260040161126790613ff7565b60405180910390fd5b7ffbeaa2d4b24ea8784b2e518c3040f6dfe5edce67a0ffce9f5162d2a149b3523c81336000801b6112a36000801b610c7c565b6000801b6040516112b8959493929190613ea5565b60405180910390a16112cd6000801b82611030565b50565b60008073ffffffffffffffffffffffffffffffffffffffff168273ffffffffffffffffffffffffffffffffffffffff161415611341576040517f08c379a0000000000000000000000000000000000000000000000000000000008152600401611338906140f7565b60405180910390fd5b600360008373ffffffffffffffffffffffffffffffffffffffff1673ffffffffffffffffffffffffffffffffffffffff168152602001908152602001600020549050919050565b7f3013243da6399844d88a1e05c4b62ea91c0cd18e68113ae5c9e1f159e0e84485336040516113b79190613e8a565b60405180910390a16113c8336110fc565b806113d857506113d733610c9c565b5b611417576040517f08c379a000000000000000000000000000000000000000000000000000000000815260040161140e90614217565b60405180910390fd5b6114417f7217babe285b1f07b4928b85bc48031c596a29cd8a5eafe68e8749db667d043f82611059565b50565b7f7217babe285b1f07b4928b85bc48031c596a29cd8a5eafe68e8749db667d043f81565b660151418d396d2e600361147c9190614466565b81565b60006007600084815260200190815260200160002060000160008373ffffffffffffffffffffffffffffffffffffffff1673ffffffffffffffffffffffffffffffffffffffff16815260200190815260200160002060009054906101000a900460ff16905092915050565b6060600180546114f99061461e565b80601f01602080910402602001604051908101604052809291908181526020018280546115259061461e565b80156115725780601f1061154757610100808354040283529160200191611572565b820191906000526020600020905b81548152906001019060200180831161155557829003601f168201915b5050505050905090565b6000801b81565b61159561158e611adb565b8383612519565b5050565b600581565b6115af6115a9611adb565b83611e8b565b6115ee576040517f08c379a00000000000000000000000000000000000000000000000000000000081526004016115e590614237565b60405180910390fd5b6115fa84848484612686565b50505050565b606061160b82611a6f565b61164a576040517f08c379a000000000000000000000000000000000000000000000000000000000815260040161164190614177565b60405180910390fd5b600060066000848152602001908152602001600020805461166a9061461e565b80601f01602080910402602001604051908101604052809291908181526020018280546116969061461e565b80156116e35780601f106116b8576101008083540402835291602001916116e3565b820191906000526020600020905b8154815290600101906020018083116116c657829003601f168201915b5050505050905060006116f46126e2565b905060008151141561170a57819250505061174d565b60008251111561173f578082604051602001611727929190613e17565b6040516020818303038152906040529250505061174d565b611748846126f9565b925050505b919050565b7fab7e4b2c6ac3574c44d3f8f16ffaea1c2d8140c0c09faef54c8150d22eec3cef336040516117819190613e8a565b60405180910390a161179233610c9c565b6117d1576040517f08c379a00000000000000000000000000000000000000000000000000000000081526004016117c890613ff7565b60405180910390fd5b7ffbeaa2d4b24ea8784b2e518c3040f6dfe5edce67a0ffce9f5162d2a149b3523c81337f7217babe285b1f07b4928b85bc48031c596a29cd8a5eafe68e8749db667d043f61183e7f7217babe285b1f07b4928b85bc48031c596a29cd8a5eafe68e8749db667d043f610c7c565b6000801b604051611853959493929190613ea5565b60405180910390a16118857f7217babe285b1f07b4928b85bc48031c596a29cd8a5eafe68e8749db667d043f82611030565b50565b660151418d396d2e81565b61189c82610c7c565b6118ad816118a8611adb565b6122b9565b6118b78383612437565b505050565b7fab7e4b2c6ac3574c44d3f8f16ffaea1c2d8140c0c09faef54c8150d22eec3cef336040516118eb9190613e8a565b60405180910390a16118fc33610c9c565b61193b576040517f08c379a000000000000000000000000000000000000000000000000000000000815260040161193290613ff7565b60405180910390fd5b6119486000801b82611059565b50565b6000600560008473ffffffffffffffffffffffffffffffffffffffff1673ffffffffffffffffffffffffffffffffffffffff16815260200190815260200160002060008373ffffffffffffffffffffffffffffffffffffffff1673ffffffffffffffffffffffffffffffffffffffff16815260200190815260200160002060009054906101000a900460ff16905092915050565b6001816000016000828254019250508190555050565b60007f7965db0b000000000000000000000000000000000000000000000000000000007bffffffffffffffffffffffffffffffffffffffffffffffffffffffff1916827bffffffffffffffffffffffffffffffffffffffffffffffffffffffff19161480611a685750611a67826127a0565b5b9050919050565b60008073ffffffffffffffffffffffffffffffffffffffff166002600084815260200190815260200160002060009054906101000a900473ffffffffffffffffffffffffffffffffffffffff1673ffffffffffffffffffffffffffffffffffffffff1614159050919050565b600033905090565b816004600083815260200190815260200160002060006101000a81548173ffffffffffffffffffffffffffffffffffffffff021916908373ffffffffffffffffffffffffffffffffffffffff160217905550808273ffffffffffffffffffffffffffffffffffffffff16611b568361113f565b73ffffffffffffffffffffffffffffffffffffffff167f8c5be1e5ebec7d5bd14f71427d1e84f3dd0314c0f7b2291e5b200ac8c7c3b92560405160405180910390a45050565b6000600582128015611bb45750660151418d396d2e83145b15611bc25760019050611c35565b60058212158015611bd35750600d82125b8015611bf15750660151418d396d2e6002611bee9190614466565b83145b15611bff5760019050611c35565b600d8212158015611c225750660151418d396d2e6003611c1f9190614466565b83145b15611c305760019050611c35565b600090505b92915050565b600081600001549050919050565b600073ffffffffffffffffffffffffffffffffffffffff168273ffffffffffffffffffffffffffffffffffffffff161415611cb9576040517f08c379a0000000000000000000000000000000000000000000000000000000008152600401611cb090614157565b60405180910390fd5b611cc281611a6f565b15611d02576040517f08c379a0000000000000000000000000000000000000000000000000000000008152600401611cf990614017565b60405180910390fd5b611d0e60008383612882565b6001600360008473ffffffffffffffffffffffffffffffffffffffff1673ffffffffffffffffffffffffffffffffffffffff1681526020019081526020016000206000828254611d5e91906143df565b92505081905550816002600083815260200190815260200160002060006101000a81548173ffffffffffffffffffffffffffffffffffffffff021916908373ffffffffffffffffffffffffffffffffffffffff160217905550808273ffffffffffffffffffffffffffffffffffffffff16600073ffffffffffffffffffffffffffffffffffffffff167fddf252ad1be2c89b69c2b068fc378daa952ba7f163c4a11628f55a4df523b3ef60405160405180910390a45050565b611e2082611a6f565b611e5f576040517f08c379a0000000000000000000000000000000000000000000000000000000008152600401611e5690614137565b60405180910390fd5b80600660008481526020019081526020016000209080519060200190611e86929190612f42565b505050565b6000611e9682611a6f565b611ed5576040517f08c379a0000000000000000000000000000000000000000000000000000000008152600401611ecc906140b7565b60405180910390fd5b6000611ee08361113f565b90508073ffffffffffffffffffffffffffffffffffffffff168473ffffffffffffffffffffffffffffffffffffffff161480611f4f57508373ffffffffffffffffffffffffffffffffffffffff16611f378461092b565b73ffffffffffffffffffffffffffffffffffffffff16145b80611f605750611f5f818561194b565b5b91505092915050565b8273ffffffffffffffffffffffffffffffffffffffff16611f898261113f565b73ffffffffffffffffffffffffffffffffffffffff1614611fdf576040517f08c379a0000000000000000000000000000000000000000000000000000000008152600401611fd6906141b7565b60405180910390fd5b600073ffffffffffffffffffffffffffffffffffffffff168273ffffffffffffffffffffffffffffffffffffffff16141561204f576040517f08c379a000000000000000000000000000000000000000000000000000000000815260040161204690614037565b60405180910390fd5b61205a838383612882565b612065600082611ae3565b6001600360008573ffffffffffffffffffffffffffffffffffffffff1673ffffffffffffffffffffffffffffffffffffffff16815260200190815260200160002060008282546120b591906144c0565b925050819055506001600360008473ffffffffffffffffffffffffffffffffffffffff1673ffffffffffffffffffffffffffffffffffffffff168152602001908152602001600020600082825461210c91906143df565b92505081905550816002600083815260200190815260200160002060006101000a81548173ffffffffffffffffffffffffffffffffffffffff021916908373ffffffffffffffffffffffffffffffffffffffff160217905550808273ffffffffffffffffffffffffffffffffffffffff168473ffffffffffffffffffffffffffffffffffffffff167fddf252ad1be2c89b69c2b068fc378daa952ba7f163c4a11628f55a4df523b3ef60405160405180910390a4505050565b80471015612208576040517f08c379a00000000000000000000000000000000000000000000000000000000081526004016121ff90614097565b60405180910390fd5b60008273ffffffffffffffffffffffffffffffffffffffff168260405161222e90613e3b565b60006040518083038185875af1925050503d806000811461226b576040519150601f19603f3d011682016040523d82523d6000602084013e612270565b606091505b50509050806122b4576040517f08c379a00000000000000000000000000000000000000000000000000000000081526004016122ab90614077565b60405180910390fd5b505050565b6122c3828261147f565b612352576122e88173ffffffffffffffffffffffffffffffffffffffff166014612887565b6122f68360001c6020612887565b604051602001612307929190613e50565b6040516020818303038152906040526040517f08c379a00000000000000000000000000000000000000000000000000000000081526004016123499190613f95565b60405180910390fd5b5050565b612360828261147f565b6124335760016007600084815260200190815260200160002060000160008373ffffffffffffffffffffffffffffffffffffffff1673ffffffffffffffffffffffffffffffffffffffff16815260200190815260200160002060006101000a81548160ff0219169083151502179055506123d8611adb565b73ffffffffffffffffffffffffffffffffffffffff168173ffffffffffffffffffffffffffffffffffffffff16837f2f8788117e7eff1d82e926ec794901d17c78024a50270940304540a733656f0d60405160405180910390a45b5050565b612441828261147f565b156125155760006007600084815260200190815260200160002060000160008373ffffffffffffffffffffffffffffffffffffffff1673ffffffffffffffffffffffffffffffffffffffff16815260200190815260200160002060006101000a81548160ff0219169083151502179055506124ba611adb565b73ffffffffffffffffffffffffffffffffffffffff168173ffffffffffffffffffffffffffffffffffffffff16837ff6391f5c32d9c69d2a47ea670b442974b53935d1edc7fd64eb21e047a839171b60405160405180910390a45b5050565b8173ffffffffffffffffffffffffffffffffffffffff168373ffffffffffffffffffffffffffffffffffffffff161415612588576040517f08c379a000000000000000000000000000000000000000000000000000000000815260040161257f90614057565b60405180910390fd5b80600560008573ffffffffffffffffffffffffffffffffffffffff1673ffffffffffffffffffffffffffffffffffffffff16815260200190815260200160002060008473ffffffffffffffffffffffffffffffffffffffff1673ffffffffffffffffffffffffffffffffffffffff16815260200190815260200160002060006101000a81548160ff0219169083151502179055508173ffffffffffffffffffffffffffffffffffffffff168373ffffffffffffffffffffffffffffffffffffffff167f17307eab39ab6107e8899845ad3d59bd9653f200f220920489ca2b5937696c31836040516126799190613f44565b60405180910390a3505050565b612691848484611f69565b61269d84848484612b81565b6126dc576040517f08c379a00000000000000000000000000000000000000000000000000000000081526004016126d390613fd7565b60405180910390fd5b50505050565b606060405180602001604052806000815250905090565b606061270482611a6f565b612743576040517f08c379a000000000000000000000000000000000000000000000000000000000815260040161273a906141d7565b60405180910390fd5b600061274d6126e2565b9050600081511161276d5760405180602001604052806000815250612798565b8061277784612d18565b604051602001612788929190613e17565b6040516020818303038152906040525b915050919050565b60007f80ac58cd000000000000000000000000000000000000000000000000000000007bffffffffffffffffffffffffffffffffffffffffffffffffffffffff1916827bffffffffffffffffffffffffffffffffffffffffffffffffffffffff1916148061286b57507f5b5e139f000000000000000000000000000000000000000000000000000000007bffffffffffffffffffffffffffffffffffffffffffffffffffffffff1916827bffffffffffffffffffffffffffffffffffffffffffffffffffffffff1916145b8061287b575061287a82612ec5565b5b9050919050565b505050565b60606000600283600261289a9190614466565b6128a491906143df565b67ffffffffffffffff8111156128e3577f4e487b7100000000000000000000000000000000000000000000000000000000600052604160045260246000fd5b6040519080825280601f01601f1916602001820160405280156129155781602001600182028036833780820191505090505b5090507f300000000000000000000000000000000000000000000000000000000000000081600081518110612973577f4e487b7100000000000000000000000000000000000000000000000000000000600052603260045260246000fd5b60200101907effffffffffffffffffffffffffffffffffffffffffffffffffffffffffffff1916908160001a9053507f7800000000000000000000000000000000000000000000000000000000000000816001815181106129fd577f4e487b7100000000000000000000000000000000000000000000000000000000600052603260045260246000fd5b60200101907effffffffffffffffffffffffffffffffffffffffffffffffffffffffffffff1916908160001a90535060006001846002612a3d9190614466565b612a4791906143df565b90505b6001811115612b33577f3031323334353637383961626364656600000000000000000000000000000000600f861660108110612aaf577f4e487b7100000000000000000000000000000000000000000000000000000000600052603260045260246000fd5b1a60f81b828281518110612aec577f4e487b7100000000000000000000000000000000000000000000000000000000600052603260045260246000fd5b60200101907effffffffffffffffffffffffffffffffffffffffffffffffffffffffffffff1916908160001a905350600485901c945080612b2c906145f4565b9050612a4a565b5060008414612b77576040517f08c379a0000000000000000000000000000000000000000000000000000000008152600401612b6e90613fb7565b60405180910390fd5b8091505092915050565b6000612ba28473ffffffffffffffffffffffffffffffffffffffff16612f2f565b15612d0b578373ffffffffffffffffffffffffffffffffffffffff1663150b7a02612bcb611adb565b8786866040518563ffffffff1660e01b8152600401612bed9493929190613ef8565b602060405180830381600087803b158015612c0757600080fd5b505af1925050508015612c3857506040513d601f19601f82011682018060405250810190612c35919061344e565b60015b612cbb573d8060008114612c68576040519150601f19603f3d011682016040523d82523d6000602084013e612c6d565b606091505b50600081511415612cb3576040517f08c379a0000000000000000000000000000000000000000000000000000000008152600401612caa90613fd7565b60405180910390fd5b805181602001fd5b63150b7a0260e01b7bffffffffffffffffffffffffffffffffffffffffffffffffffffffff1916817bffffffffffffffffffffffffffffffffffffffffffffffffffffffff191614915050612d10565b600190505b949350505050565b60606000821415612d60576040518060400160405280600181526020017f30000000000000000000000000000000000000000000000000000000000000008152509050612ec0565b600082905060005b60008214612d92578080612d7b90614650565b915050600a82612d8b9190614435565b9150612d68565b60008167ffffffffffffffff811115612dd4577f4e487b7100000000000000000000000000000000000000000000000000000000600052604160045260246000fd5b6040519080825280601f01601f191660200182016040528015612e065781602001600182028036833780820191505090505b5090505b60008514612eb957600182612e1f91906144c0565b9150600a85612e2e9190614699565b6030612e3a91906143df565b60f81b818381518110612e76577f4e487b7100000000000000000000000000000000000000000000000000000000600052603260045260246000fd5b60200101907effffffffffffffffffffffffffffffffffffffffffffffffffffffffffffff1916908160001a905350600a85612eb29190614435565b9450612e0a565b8093505050505b919050565b60007f01ffc9a7000000000000000000000000000000000000000000000000000000007bffffffffffffffffffffffffffffffffffffffffffffffffffffffff1916827bffffffffffffffffffffffffffffffffffffffffffffffffffffffff1916149050919050565b600080823b905060008111915050919050565b828054612f4e9061461e565b90600052602060002090601f016020900481019282612f705760008555612fb7565b82601f10612f8957805160ff1916838001178555612fb7565b82800160010185558215612fb7579182015b82811115612fb6578251825591602001919060010190612f9b565b5b509050612fc49190612fc8565b5090565b5b80821115612fe1576000816000905550600101612fc9565b5090565b6000612ff8612ff384614331565b614300565b90508281526020810184848401111561301057600080fd5b61301b8482856145b2565b509392505050565b600061303661303184614361565b614300565b90508281526020810184848401111561304e57600080fd5b6130598482856145b2565b509392505050565b60008135905061307081614797565b92915050565b600081359050613085816147ae565b92915050565b60008135905061309a816147c5565b92915050565b6000813590506130af816147dc565b92915050565b6000815190506130c4816147dc565b92915050565b600082601f8301126130db57600080fd5b81356130eb848260208601612fe5565b91505092915050565b600081359050613103816147f3565b92915050565b600082601f83011261311a57600080fd5b813561312a848260208601613023565b91505092915050565b6000813590506131428161480a565b92915050565b60006020828403121561315a57600080fd5b600061316884828501613061565b91505092915050565b6000806040838503121561318457600080fd5b600061319285828601613061565b92505060206131a385828601613061565b9150509250929050565b6000806000606084860312156131c257600080fd5b60006131d086828701613061565b93505060206131e186828701613061565b92505060406131f286828701613133565b9150509250925092565b6000806000806080858703121561321257600080fd5b600061322087828801613061565b945050602061323187828801613061565b935050604061324287828801613133565b925050606085013567ffffffffffffffff81111561325f57600080fd5b61326b878288016130ca565b91505092959194509250565b6000806040838503121561328a57600080fd5b600061329885828601613061565b92505060206132a985828601613076565b9150509250929050565b60008060008060008060c087890312156132cc57600080fd5b60006132da89828a01613061565b965050602087013567ffffffffffffffff8111156132f757600080fd5b61330389828a01613109565b955050604061331489828a016130f4565b945050606087013567ffffffffffffffff81111561333157600080fd5b61333d89828a01613109565b935050608087013567ffffffffffffffff81111561335a57600080fd5b61336689828a01613109565b92505060a061337789828a01613133565b9150509295509295509295565b6000806040838503121561339757600080fd5b60006133a585828601613061565b92505060206133b685828601613133565b9150509250929050565b6000602082840312156133d257600080fd5b60006133e08482850161308b565b91505092915050565b600080604083850312156133fc57600080fd5b600061340a8582860161308b565b925050602061341b85828601613061565b9150509250929050565b60006020828403121561343757600080fd5b6000613445848285016130a0565b91505092915050565b60006020828403121561346057600080fd5b600061346e848285016130b5565b91505092915050565b60006020828403121561348957600080fd5b600061349784828501613133565b91505092915050565b6134a98161457c565b82525050565b6134b8816144f4565b82525050565b6134c781614506565b82525050565b6134d681614512565b82525050565b60006134e782614391565b6134f181856143a7565b93506135018185602086016145c1565b61350a81614786565b840191505092915050565b61351e81614548565b82525050565b600061352f8261439c565b61353981856143c3565b93506135498185602086016145c1565b61355281614786565b840191505092915050565b60006135688261439c565b61357281856143d4565b93506135828185602086016145c1565b80840191505092915050565b600061359b6020836143c3565b91507f537472696e67733a20686578206c656e67746820696e73756666696369656e746000830152602082019050919050565b60006135db6032836143c3565b91507f4552433732313a207472616e7366657220746f206e6f6e20455243373231526560008301527f63656976657220696d706c656d656e74657200000000000000000000000000006020830152604082019050919050565b6000613641601f836143c3565b91507f43616c6c6572206973206e6f7420616e2061646d696e206163636f756e7421006000830152602082019050919050565b6000613681601c836143c3565b91507f4552433732313a20746f6b656e20616c7265616479206d696e746564000000006000830152602082019050919050565b60006136c16024836143c3565b91507f4552433732313a207472616e7366657220746f20746865207a65726f2061646460008301527f72657373000000000000000000000000000000000000000000000000000000006020830152604082019050919050565b60006137276019836143c3565b91507f4552433732313a20617070726f766520746f2063616c6c6572000000000000006000830152602082019050919050565b6000613767603a836143c3565b91507f416464726573733a20756e61626c6520746f2073656e642076616c75652c207260008301527f6563697069656e74206d617920686176652072657665727465640000000000006020830152604082019050919050565b60006137cd601d836143c3565b91507f416464726573733a20696e73756666696369656e742062616c616e63650000006000830152602082019050919050565b600061380d602c836143c3565b91507f4552433732313a206f70657261746f7220717565727920666f72206e6f6e657860008301527f697374656e7420746f6b656e00000000000000000000000000000000000000006020830152604082019050919050565b60006138736038836143c3565b91507f4552433732313a20617070726f76652063616c6c6572206973206e6f74206f7760008301527f6e6572206e6f7220617070726f76656420666f7220616c6c00000000000000006020830152604082019050919050565b60006138d9602a836143c3565b91507f4552433732313a2062616c616e636520717565727920666f7220746865207a6560008301527f726f2061646472657373000000000000000000000000000000000000000000006020830152604082019050919050565b600061393f6029836143c3565b91507f4552433732313a206f776e657220717565727920666f72206e6f6e657869737460008301527f656e7420746f6b656e00000000000000000000000000000000000000000000006020830152604082019050919050565b60006139a5602e836143c3565b91507f45524337323155524953746f726167653a2055524920736574206f66206e6f6e60008301527f6578697374656e7420746f6b656e0000000000000000000000000000000000006020830152604082019050919050565b6000613a0b6020836143c3565b91507f4552433732313a206d696e7420746f20746865207a65726f20616464726573736000830152602082019050919050565b6000613a4b6031836143c3565b91507f45524337323155524953746f726167653a2055524920717565727920666f722060008301527f6e6f6e6578697374656e7420746f6b656e0000000000000000000000000000006020830152604082019050919050565b6000613ab1602c836143c3565b91507f4552433732313a20617070726f76656420717565727920666f72206e6f6e657860008301527f697374656e7420746f6b656e00000000000000000000000000000000000000006020830152604082019050919050565b6000613b176029836143c3565b91507f4552433732313a207472616e73666572206f6620746f6b656e2074686174206960008301527f73206e6f74206f776e00000000000000000000000000000000000000000000006020830152604082019050919050565b6000613b7d602f836143c3565b91507f4552433732314d657461646174613a2055524920717565727920666f72206e6f60008301527f6e6578697374656e7420746f6b656e00000000000000000000000000000000006020830152604082019050919050565b6000613be36021836143c3565b91507f4552433732313a20617070726f76616c20746f2063757272656e74206f776e6560008301527f72000000000000000000000000000000000000000000000000000000000000006020830152604082019050919050565b6000613c496000836143b8565b9150600082019050919050565b6000613c636025836143c3565b91507f43616c6c6572206973206e6f742061207573616765207365747465722061636360008301527f6f756e74210000000000000000000000000000000000000000000000000000006020830152604082019050919050565b6000613cc96031836143c3565b91507f4552433732313a207472616e736665722063616c6c6572206973206e6f74206f60008301527f776e6572206e6f7220617070726f7665640000000000000000000000000000006020830152604082019050919050565b6000613d2f6017836143d4565b91507f416363657373436f6e74726f6c3a206163636f756e74200000000000000000006000830152601782019050919050565b6000613d6f6011836143d4565b91507f206973206d697373696e6720726f6c65200000000000000000000000000000006000830152601182019050919050565b6000613daf602f836143c3565b91507f416363657373436f6e74726f6c3a2063616e206f6e6c792072656e6f756e636560008301527f20726f6c657320666f722073656c6600000000000000000000000000000000006020830152604082019050919050565b613e1181614572565b82525050565b6000613e23828561355d565b9150613e2f828461355d565b91508190509392505050565b6000613e4682613c3c565b9150819050919050565b6000613e5b82613d22565b9150613e67828561355d565b9150613e7282613d62565b9150613e7e828461355d565b91508190509392505050565b6000602082019050613e9f60008301846134af565b92915050565b600060a082019050613eba60008301886134af565b613ec760208301876134af565b613ed460408301866134cd565b613ee160608301856134cd565b613eee60808301846134cd565b9695505050505050565b6000608082019050613f0d60008301876134af565b613f1a60208301866134af565b613f276040830185613e08565b8181036060830152613f3981846134dc565b905095945050505050565b6000602082019050613f5960008301846134be565b92915050565b6000602082019050613f7460008301846134cd565b92915050565b6000602082019050613f8f6000830184613515565b92915050565b60006020820190508181036000830152613faf8184613524565b905092915050565b60006020820190508181036000830152613fd08161358e565b9050919050565b60006020820190508181036000830152613ff0816135ce565b9050919050565b6000602082019050818103600083015261401081613634565b9050919050565b6000602082019050818103600083015261403081613674565b9050919050565b60006020820190508181036000830152614050816136b4565b9050919050565b600060208201905081810360008301526140708161371a565b9050919050565b600060208201905081810360008301526140908161375a565b9050919050565b600060208201905081810360008301526140b0816137c0565b9050919050565b600060208201905081810360008301526140d081613800565b9050919050565b600060208201905081810360008301526140f081613866565b9050919050565b60006020820190508181036000830152614110816138cc565b9050919050565b6000602082019050818103600083015261413081613932565b9050919050565b6000602082019050818103600083015261415081613998565b9050919050565b60006020820190508181036000830152614170816139fe565b9050919050565b6000602082019050818103600083015261419081613a3e565b9050919050565b600060208201905081810360008301526141b081613aa4565b9050919050565b600060208201905081810360008301526141d081613b0a565b9050919050565b600060208201905081810360008301526141f081613b70565b9050919050565b6000602082019050818103600083015261421081613bd6565b9050919050565b6000602082019050818103600083015261423081613c56565b9050919050565b6000602082019050818103600083015261425081613cbc565b9050919050565b6000602082019050818103600083015261427081613da2565b9050919050565b600060208201905061428c6000830184613e08565b92915050565b60006060820190506142a76000830186613e08565b6142b460208301856134a0565b6142c16040830184613e08565b949350505050565b60006060820190506142de6000830186613e08565b6142eb60208301856134af565b6142f860408301846134af565b949350505050565b6000604051905081810181811067ffffffffffffffff8211171561432757614326614757565b5b8060405250919050565b600067ffffffffffffffff82111561434c5761434b614757565b5b601f19601f8301169050602081019050919050565b600067ffffffffffffffff82111561437c5761437b614757565b5b601f19601f8301169050602081019050919050565b600081519050919050565b600081519050919050565b600082825260208201905092915050565b600081905092915050565b600082825260208201905092915050565b600081905092915050565b60006143ea82614572565b91506143f583614572565b9250827fffffffffffffffffffffffffffffffffffffffffffffffffffffffffffffffff0382111561442a576144296146ca565b5b828201905092915050565b600061444082614572565b915061444b83614572565b92508261445b5761445a6146f9565b5b828204905092915050565b600061447182614572565b915061447c83614572565b9250817fffffffffffffffffffffffffffffffffffffffffffffffffffffffffffffffff04831182151516156144b5576144b46146ca565b5b828202905092915050565b60006144cb82614572565b91506144d683614572565b9250828210156144e9576144e86146ca565b5b828203905092915050565b60006144ff82614552565b9050919050565b60008115159050919050565b6000819050919050565b60007fffffffff0000000000000000000000000000000000000000000000000000000082169050919050565b6000819050919050565b600073ffffffffffffffffffffffffffffffffffffffff82169050919050565b6000819050919050565b60006145878261458e565b9050919050565b6000614599826145a0565b9050919050565b60006145ab82614552565b9050919050565b82818337600083830152505050565b60005b838110156145df5780820151818401526020810190506145c4565b838111156145ee576000848401525b50505050565b60006145ff82614572565b91506000821415614613576146126146ca565b5b600182039050919050565b6000600282049050600182168061463657607f821691505b6020821081141561464a57614649614728565b5b50919050565b600061465b82614572565b91507fffffffffffffffffffffffffffffffffffffffffffffffffffffffffffffffff82141561468e5761468d6146ca565b5b600182019050919050565b60006146a482614572565b91506146af83614572565b9250826146bf576146be6146f9565b5b828206905092915050565b7f4e487b7100000000000000000000000000000000000000000000000000000000600052601160045260246000fd5b7f4e487b7100000000000000000000000000000000000000000000000000000000600052601260045260246000fd5b7f4e487b7100000000000000000000000000000000000000000000000000000000600052602260045260246000fd5b7f4e487b7100000000000000000000000000000000000000000000000000000000600052604160045260246000fd5b6000601f19601f8301169050919050565b6147a0816144f4565b81146147ab57600080fd5b50565b6147b781614506565b81146147c257600080fd5b50565b6147ce81614512565b81146147d957600080fd5b50565b6147e58161451c565b81146147f057600080fd5b50565b6147fc81614548565b811461480757600080fd5b50565b61481381614572565b811461481e57600080fd5b5056fea2646970667358221220af1cec0e831d08a0e4a03346c5975abd497dcf14fd6b21593fe1e2e9b0c1441d64736f6c63430008000033",
			"opcodes": "PUSH1 0x80 PUSH1 0x40 MSTORE CALLVALUE DUP1 ISZERO PUSH3 0x11 JUMPI PUSH1 0x0 DUP1 REVERT JUMPDEST POP PUSH1 0x40 MLOAD DUP1 PUSH1 0x40 ADD PUSH1 0x40 MSTORE DUP1 PUSH1 0xB DUP2 MSTORE PUSH1 0x20 ADD PUSH32 0x5469636B657453746F7265000000000000000000000000000000000000000000 DUP2 MSTORE POP PUSH1 0x40 MLOAD DUP1 PUSH1 0x40 ADD PUSH1 0x40 MSTORE DUP1 PUSH1 0x3 DUP2 MSTORE PUSH1 0x20 ADD PUSH32 0x544B530000000000000000000000000000000000000000000000000000000000 DUP2 MSTORE POP DUP2 PUSH1 0x0 SWAP1 DUP1 MLOAD SWAP1 PUSH1 0x20 ADD SWAP1 PUSH3 0x96 SWAP3 SWAP2 SWAP1 PUSH3 0x32E JUMP JUMPDEST POP DUP1 PUSH1 0x1 SWAP1 DUP1 MLOAD SWAP1 PUSH1 0x20 ADD SWAP1 PUSH3 0xAF SWAP3 SWAP2 SWAP1 PUSH3 0x32E JUMP JUMPDEST POP POP POP PUSH3 0xC9 PUSH1 0x8 PUSH3 0x119 PUSH1 0x20 SHL PUSH3 0x19DF OR PUSH1 0x20 SHR JUMP JUMPDEST PUSH3 0xDE PUSH1 0x0 DUP1 SHL CALLER PUSH3 0x12F PUSH1 0x20 SHL PUSH1 0x20 SHR JUMP JUMPDEST PUSH3 0x113 PUSH32 0x7217BABE285B1F07B4928B85BC48031C596A29CD8A5EAFE68E8749DB667D043F PUSH1 0x0 DUP1 SHL PUSH3 0x145 PUSH1 0x20 SHL PUSH1 0x20 SHR JUMP JUMPDEST PUSH3 0x443 JUMP JUMPDEST PUSH1 0x1 DUP2 PUSH1 0x0 ADD PUSH1 0x0 DUP3 DUP3 SLOAD ADD SWAP3 POP POP DUP2 SWAP1 SSTORE POP POP JUMP JUMPDEST PUSH3 0x141 DUP3 DUP3 PUSH3 0x1A9 PUSH1 0x20 SHL PUSH1 0x20 SHR JUMP JUMPDEST POP POP JUMP JUMPDEST PUSH1 0x0 PUSH3 0x158 DUP4 PUSH3 0x29B PUSH1 0x20 SHL PUSH1 0x20 SHR JUMP JUMPDEST SWAP1 POP DUP2 PUSH1 0x7 PUSH1 0x0 DUP6 DUP2 MSTORE PUSH1 0x20 ADD SWAP1 DUP2 MSTORE PUSH1 0x20 ADD PUSH1 0x0 KECCAK256 PUSH1 0x1 ADD DUP2 SWAP1 SSTORE POP DUP2 DUP2 DUP5 PUSH32 0xBD79B86FFE0AB8E8776151514217CD7CACD52C909F66475C3AF44E129F0B00FF PUSH1 0x40 MLOAD PUSH1 0x40 MLOAD DUP1 SWAP2 SUB SWAP1 LOG4 POP POP POP JUMP JUMPDEST PUSH3 0x1BB DUP3 DUP3 PUSH3 0x2BB PUSH1 0x20 SHL PUSH1 0x20 SHR JUMP JUMPDEST PUSH3 0x297 JUMPI PUSH1 0x1 PUSH1 0x7 PUSH1 0x0 DUP5 DUP2 MSTORE PUSH1 0x20 ADD SWAP1 DUP2 MSTORE PUSH1 0x20 ADD PUSH1 0x0 KECCAK256 PUSH1 0x0 ADD PUSH1 0x0 DUP4 PUSH20 0xFFFFFFFFFFFFFFFFFFFFFFFFFFFFFFFFFFFFFFFF AND PUSH20 0xFFFFFFFFFFFFFFFFFFFFFFFFFFFFFFFFFFFFFFFF AND DUP2 MSTORE PUSH1 0x20 ADD SWAP1 DUP2 MSTORE PUSH1 0x20 ADD PUSH1 0x0 KECCAK256 PUSH1 0x0 PUSH2 0x100 EXP DUP2 SLOAD DUP2 PUSH1 0xFF MUL NOT AND SWAP1 DUP4 ISZERO ISZERO MUL OR SWAP1 SSTORE POP PUSH3 0x23C PUSH3 0x326 PUSH1 0x20 SHL PUSH1 0x20 SHR JUMP JUMPDEST PUSH20 0xFFFFFFFFFFFFFFFFFFFFFFFFFFFFFFFFFFFFFFFF AND DUP2 PUSH20 0xFFFFFFFFFFFFFFFFFFFFFFFFFFFFFFFFFFFFFFFF AND DUP4 PUSH32 0x2F8788117E7EFF1D82E926EC794901D17C78024A50270940304540A733656F0D PUSH1 0x40 MLOAD PUSH1 0x40 MLOAD DUP1 SWAP2 SUB SWAP1 LOG4 JUMPDEST POP POP JUMP JUMPDEST PUSH1 0x0 PUSH1 0x7 PUSH1 0x0 DUP4 DUP2 MSTORE PUSH1 0x20 ADD SWAP1 DUP2 MSTORE PUSH1 0x20 ADD PUSH1 0x0 KECCAK256 PUSH1 0x1 ADD SLOAD SWAP1 POP SWAP2 SWAP1 POP JUMP JUMPDEST PUSH1 0x0 PUSH1 0x7 PUSH1 0x0 DUP5 DUP2 MSTORE PUSH1 0x20 ADD SWAP1 DUP2 MSTORE PUSH1 0x20 ADD PUSH1 0x0 KECCAK256 PUSH1 0x0 ADD PUSH1 0x0 DUP4 PUSH20 0xFFFFFFFFFFFFFFFFFFFFFFFFFFFFFFFFFFFFFFFF AND PUSH20 0xFFFFFFFFFFFFFFFFFFFFFFFFFFFFFFFFFFFFFFFF AND DUP2 MSTORE PUSH1 0x20 ADD SWAP1 DUP2 MSTORE PUSH1 0x20 ADD PUSH1 0x0 KECCAK256 PUSH1 0x0 SWAP1 SLOAD SWAP1 PUSH2 0x100 EXP SWAP1 DIV PUSH1 0xFF AND SWAP1 POP SWAP3 SWAP2 POP POP JUMP JUMPDEST PUSH1 0x0 CALLER SWAP1 POP SWAP1 JUMP JUMPDEST DUP3 DUP1 SLOAD PUSH3 0x33C SWAP1 PUSH3 0x3DE JUMP JUMPDEST SWAP1 PUSH1 0x0 MSTORE PUSH1 0x20 PUSH1 0x0 KECCAK256 SWAP1 PUSH1 0x1F ADD PUSH1 0x20 SWAP1 DIV DUP2 ADD SWAP3 DUP3 PUSH3 0x360 JUMPI PUSH1 0x0 DUP6 SSTORE PUSH3 0x3AC JUMP JUMPDEST DUP3 PUSH1 0x1F LT PUSH3 0x37B JUMPI DUP1 MLOAD PUSH1 0xFF NOT AND DUP4 DUP1 ADD OR DUP6 SSTORE PUSH3 0x3AC JUMP JUMPDEST DUP3 DUP1 ADD PUSH1 0x1 ADD DUP6 SSTORE DUP3 ISZERO PUSH3 0x3AC JUMPI SWAP2 DUP3 ADD JUMPDEST DUP3 DUP2 GT ISZERO PUSH3 0x3AB JUMPI DUP3 MLOAD DUP3 SSTORE SWAP2 PUSH1 0x20 ADD SWAP2 SWAP1 PUSH1 0x1 ADD SWAP1 PUSH3 0x38E JUMP JUMPDEST JUMPDEST POP SWAP1 POP PUSH3 0x3BB SWAP2 SWAP1 PUSH3 0x3BF JUMP JUMPDEST POP SWAP1 JUMP JUMPDEST JUMPDEST DUP1 DUP3 GT ISZERO PUSH3 0x3DA JUMPI PUSH1 0x0 DUP2 PUSH1 0x0 SWAP1 SSTORE POP PUSH1 0x1 ADD PUSH3 0x3C0 JUMP JUMPDEST POP SWAP1 JUMP JUMPDEST PUSH1 0x0 PUSH1 0x2 DUP3 DIV SWAP1 POP PUSH1 0x1 DUP3 AND DUP1 PUSH3 0x3F7 JUMPI PUSH1 0x7F DUP3 AND SWAP2 POP JUMPDEST PUSH1 0x20 DUP3 LT DUP2 EQ ISZERO PUSH3 0x40E JUMPI PUSH3 0x40D PUSH3 0x414 JUMP JUMPDEST JUMPDEST POP SWAP2 SWAP1 POP JUMP JUMPDEST PUSH32 0x4E487B7100000000000000000000000000000000000000000000000000000000 PUSH1 0x0 MSTORE PUSH1 0x22 PUSH1 0x4 MSTORE PUSH1 0x24 PUSH1 0x0 REVERT JUMPDEST PUSH2 0x4857 DUP1 PUSH3 0x453 PUSH1 0x0 CODECOPY PUSH1 0x0 RETURN INVALID PUSH1 0x80 PUSH1 0x40 MSTORE PUSH1 0x4 CALLDATASIZE LT PUSH2 0x204 JUMPI PUSH1 0x0 CALLDATALOAD PUSH1 0xE0 SHR DUP1 PUSH4 0x6352211E GT PUSH2 0x118 JUMPI DUP1 PUSH4 0xA22CB465 GT PUSH2 0xA0 JUMPI DUP1 PUSH4 0xC8C140B9 GT PUSH2 0x6F JUMPI DUP1 PUSH4 0xC8C140B9 EQ PUSH2 0x7A4 JUMPI DUP1 PUSH4 0xCE4AA9E4 EQ PUSH2 0x7CD JUMPI DUP1 PUSH4 0xD547741F EQ PUSH2 0x7F8 JUMPI DUP1 PUSH4 0xDCCFE310 EQ PUSH2 0x821 JUMPI DUP1 PUSH4 0xE985E9C5 EQ PUSH2 0x84A JUMPI PUSH2 0x204 JUMP JUMPDEST DUP1 PUSH4 0xA22CB465 EQ PUSH2 0x6EA JUMPI DUP1 PUSH4 0xB2085D56 EQ PUSH2 0x713 JUMPI DUP1 PUSH4 0xB88D4FDE EQ PUSH2 0x73E JUMPI DUP1 PUSH4 0xC87B56DD EQ PUSH2 0x767 JUMPI PUSH2 0x204 JUMP JUMPDEST DUP1 PUSH4 0x765CBC9B GT PUSH2 0xE7 JUMPI DUP1 PUSH4 0x765CBC9B EQ PUSH2 0x601 JUMPI DUP1 PUSH4 0x87A46059 EQ PUSH2 0x62C JUMPI DUP1 PUSH4 0x91D14854 EQ PUSH2 0x657 JUMPI DUP1 PUSH4 0x95D89B41 EQ PUSH2 0x694 JUMPI DUP1 PUSH4 0xA217FDDF EQ PUSH2 0x6BF JUMPI PUSH2 0x204 JUMP JUMPDEST DUP1 PUSH4 0x6352211E EQ PUSH2 0x535 JUMPI DUP1 PUSH4 0x6595171C EQ PUSH2 0x572 JUMPI DUP1 PUSH4 0x70A08231 EQ PUSH2 0x59B JUMPI DUP1 PUSH4 0x74648138 EQ PUSH2 0x5D8 JUMPI PUSH2 0x204 JUMP JUMPDEST DUP1 PUSH4 0x24D7806C GT PUSH2 0x19B JUMPI DUP1 PUSH4 0x36568ABE GT PUSH2 0x16A JUMPI DUP1 PUSH4 0x36568ABE EQ PUSH2 0x450 JUMPI DUP1 PUSH4 0x42842E0E EQ PUSH2 0x479 JUMPI DUP1 PUSH4 0x4EEF5790 EQ PUSH2 0x4A2 JUMPI DUP1 PUSH4 0x51F49744 EQ PUSH2 0x4DF JUMPI DUP1 PUSH4 0x634C0868 EQ PUSH2 0x50A JUMPI PUSH2 0x204 JUMP JUMPDEST DUP1 PUSH4 0x24D7806C EQ PUSH2 0x398 JUMPI DUP1 PUSH4 0x26606448 EQ PUSH2 0x3D5 JUMPI DUP1 PUSH4 0x278ECDE1 EQ PUSH2 0x3FE JUMPI DUP1 PUSH4 0x2F2FF15D EQ PUSH2 0x427 JUMPI PUSH2 0x204 JUMP JUMPDEST DUP1 PUSH4 0x9CA21A6 GT PUSH2 0x1D7 JUMPI DUP1 PUSH4 0x9CA21A6 EQ PUSH2 0x2D7 JUMPI DUP1 PUSH4 0xBA56C4C EQ PUSH2 0x307 JUMPI DUP1 PUSH4 0x23B872DD EQ PUSH2 0x332 JUMPI DUP1 PUSH4 0x248A9CA3 EQ PUSH2 0x35B JUMPI PUSH2 0x204 JUMP JUMPDEST DUP1 PUSH4 0x1FFC9A7 EQ PUSH2 0x209 JUMPI DUP1 PUSH4 0x6FDDE03 EQ PUSH2 0x246 JUMPI DUP1 PUSH4 0x81812FC EQ PUSH2 0x271 JUMPI DUP1 PUSH4 0x95EA7B3 EQ PUSH2 0x2AE JUMPI JUMPDEST PUSH1 0x0 DUP1 REVERT JUMPDEST CALLVALUE DUP1 ISZERO PUSH2 0x215 JUMPI PUSH1 0x0 DUP1 REVERT JUMPDEST POP PUSH2 0x230 PUSH1 0x4 DUP1 CALLDATASIZE SUB DUP2 ADD SWAP1 PUSH2 0x22B SWAP2 SWAP1 PUSH2 0x3425 JUMP JUMPDEST PUSH2 0x887 JUMP JUMPDEST PUSH1 0x40 MLOAD PUSH2 0x23D SWAP2 SWAP1 PUSH2 0x3F44 JUMP JUMPDEST PUSH1 0x40 MLOAD DUP1 SWAP2 SUB SWAP1 RETURN JUMPDEST CALLVALUE DUP1 ISZERO PUSH2 0x252 JUMPI PUSH1 0x0 DUP1 REVERT JUMPDEST POP PUSH2 0x25B PUSH2 0x899 JUMP JUMPDEST PUSH1 0x40 MLOAD PUSH2 0x268 SWAP2 SWAP1 PUSH2 0x3F95 JUMP JUMPDEST PUSH1 0x40 MLOAD DUP1 SWAP2 SUB SWAP1 RETURN JUMPDEST CALLVALUE DUP1 ISZERO PUSH2 0x27D JUMPI PUSH1 0x0 DUP1 REVERT JUMPDEST POP PUSH2 0x298 PUSH1 0x4 DUP1 CALLDATASIZE SUB DUP2 ADD SWAP1 PUSH2 0x293 SWAP2 SWAP1 PUSH2 0x3477 JUMP JUMPDEST PUSH2 0x92B JUMP JUMPDEST PUSH1 0x40 MLOAD PUSH2 0x2A5 SWAP2 SWAP1 PUSH2 0x3E8A JUMP JUMPDEST PUSH1 0x40 MLOAD DUP1 SWAP2 SUB SWAP1 RETURN JUMPDEST CALLVALUE DUP1 ISZERO PUSH2 0x2BA JUMPI PUSH1 0x0 DUP1 REVERT JUMPDEST POP PUSH2 0x2D5 PUSH1 0x4 DUP1 CALLDATASIZE SUB DUP2 ADD SWAP1 PUSH2 0x2D0 SWAP2 SWAP1 PUSH2 0x3384 JUMP JUMPDEST PUSH2 0x9B0 JUMP JUMPDEST STOP JUMPDEST PUSH2 0x2F1 PUSH1 0x4 DUP1 CALLDATASIZE SUB DUP2 ADD SWAP1 PUSH2 0x2EC SWAP2 SWAP1 PUSH2 0x32B3 JUMP JUMPDEST PUSH2 0xAC8 JUMP JUMPDEST PUSH1 0x40 MLOAD PUSH2 0x2FE SWAP2 SWAP1 PUSH2 0x4277 JUMP JUMPDEST PUSH1 0x40 MLOAD DUP1 SWAP2 SUB SWAP1 RETURN JUMPDEST CALLVALUE DUP1 ISZERO PUSH2 0x313 JUMPI PUSH1 0x0 DUP1 REVERT JUMPDEST POP PUSH2 0x31C PUSH2 0xC05 JUMP JUMPDEST PUSH1 0x40 MLOAD PUSH2 0x329 SWAP2 SWAP1 PUSH2 0x4277 JUMP JUMPDEST PUSH1 0x40 MLOAD DUP1 SWAP2 SUB SWAP1 RETURN JUMPDEST CALLVALUE DUP1 ISZERO PUSH2 0x33E JUMPI PUSH1 0x0 DUP1 REVERT JUMPDEST POP PUSH2 0x359 PUSH1 0x4 DUP1 CALLDATASIZE SUB DUP2 ADD SWAP1 PUSH2 0x354 SWAP2 SWAP1 PUSH2 0x31AD JUMP JUMPDEST PUSH2 0xC1C JUMP JUMPDEST STOP JUMPDEST CALLVALUE DUP1 ISZERO PUSH2 0x367 JUMPI PUSH1 0x0 DUP1 REVERT JUMPDEST POP PUSH2 0x382 PUSH1 0x4 DUP1 CALLDATASIZE SUB DUP2 ADD SWAP1 PUSH2 0x37D SWAP2 SWAP1 PUSH2 0x33C0 JUMP JUMPDEST PUSH2 0xC7C JUMP JUMPDEST PUSH1 0x40 MLOAD PUSH2 0x38F SWAP2 SWAP1 PUSH2 0x3F5F JUMP JUMPDEST PUSH1 0x40 MLOAD DUP1 SWAP2 SUB SWAP1 RETURN JUMPDEST CALLVALUE DUP1 ISZERO PUSH2 0x3A4 JUMPI PUSH1 0x0 DUP1 REVERT JUMPDEST POP PUSH2 0x3BF PUSH1 0x4 DUP1 CALLDATASIZE SUB DUP2 ADD SWAP1 PUSH2 0x3BA SWAP2 SWAP1 PUSH2 0x3148 JUMP JUMPDEST PUSH2 0xC9C JUMP JUMPDEST PUSH1 0x40 MLOAD PUSH2 0x3CC SWAP2 SWAP1 PUSH2 0x3F44 JUMP JUMPDEST PUSH1 0x40 MLOAD DUP1 SWAP2 SUB SWAP1 RETURN JUMPDEST CALLVALUE DUP1 ISZERO PUSH2 0x3E1 JUMPI PUSH1 0x0 DUP1 REVERT JUMPDEST POP PUSH2 0x3FC PUSH1 0x4 DUP1 CALLDATASIZE SUB DUP2 ADD SWAP1 PUSH2 0x3F7 SWAP2 SWAP1 PUSH2 0x3477 JUMP JUMPDEST PUSH2 0xCB2 JUMP JUMPDEST STOP JUMPDEST CALLVALUE DUP1 ISZERO PUSH2 0x40A JUMPI PUSH1 0x0 DUP1 REVERT JUMPDEST POP PUSH2 0x425 PUSH1 0x4 DUP1 CALLDATASIZE SUB DUP2 ADD SWAP1 PUSH2 0x420 SWAP2 SWAP1 PUSH2 0x3477 JUMP JUMPDEST PUSH2 0xE35 JUMP JUMPDEST STOP JUMPDEST CALLVALUE DUP1 ISZERO PUSH2 0x433 JUMPI PUSH1 0x0 DUP1 REVERT JUMPDEST POP PUSH2 0x44E PUSH1 0x4 DUP1 CALLDATASIZE SUB DUP2 ADD SWAP1 PUSH2 0x449 SWAP2 SWAP1 PUSH2 0x33E9 JUMP JUMPDEST PUSH2 0x1030 JUMP JUMPDEST STOP JUMPDEST CALLVALUE DUP1 ISZERO PUSH2 0x45C JUMPI PUSH1 0x0 DUP1 REVERT JUMPDEST POP PUSH2 0x477 PUSH1 0x4 DUP1 CALLDATASIZE SUB DUP2 ADD SWAP1 PUSH2 0x472 SWAP2 SWAP1 PUSH2 0x33E9 JUMP JUMPDEST PUSH2 0x1059 JUMP JUMPDEST STOP JUMPDEST CALLVALUE DUP1 ISZERO PUSH2 0x485 JUMPI PUSH1 0x0 DUP1 REVERT JUMPDEST POP PUSH2 0x4A0 PUSH1 0x4 DUP1 CALLDATASIZE SUB DUP2 ADD SWAP1 PUSH2 0x49B SWAP2 SWAP1 PUSH2 0x31AD JUMP JUMPDEST PUSH2 0x10DC JUMP JUMPDEST STOP JUMPDEST CALLVALUE DUP1 ISZERO PUSH2 0x4AE JUMPI PUSH1 0x0 DUP1 REVERT JUMPDEST POP PUSH2 0x4C9 PUSH1 0x4 DUP1 CALLDATASIZE SUB DUP2 ADD SWAP1 PUSH2 0x4C4 SWAP2 SWAP1 PUSH2 0x3148 JUMP JUMPDEST PUSH2 0x10FC JUMP JUMPDEST PUSH1 0x40 MLOAD PUSH2 0x4D6 SWAP2 SWAP1 PUSH2 0x3F44 JUMP JUMPDEST PUSH1 0x40 MLOAD DUP1 SWAP2 SUB SWAP1 RETURN JUMPDEST CALLVALUE DUP1 ISZERO PUSH2 0x4EB JUMPI PUSH1 0x0 DUP1 REVERT JUMPDEST POP PUSH2 0x4F4 PUSH2 0x112F JUMP JUMPDEST PUSH1 0x40 MLOAD PUSH2 0x501 SWAP2 SWAP1 PUSH2 0x3F7A JUMP JUMPDEST PUSH1 0x40 MLOAD DUP1 SWAP2 SUB SWAP1 RETURN JUMPDEST CALLVALUE DUP1 ISZERO PUSH2 0x516 JUMPI PUSH1 0x0 DUP1 REVERT JUMPDEST POP PUSH2 0x51F PUSH2 0x1134 JUMP JUMPDEST PUSH1 0x40 MLOAD PUSH2 0x52C SWAP2 SWAP1 PUSH2 0x4277 JUMP JUMPDEST PUSH1 0x40 MLOAD DUP1 SWAP2 SUB SWAP1 RETURN JUMPDEST CALLVALUE DUP1 ISZERO PUSH2 0x541 JUMPI PUSH1 0x0 DUP1 REVERT JUMPDEST POP PUSH2 0x55C PUSH1 0x4 DUP1 CALLDATASIZE SUB DUP2 ADD SWAP1 PUSH2 0x557 SWAP2 SWAP1 PUSH2 0x3477 JUMP JUMPDEST PUSH2 0x113F JUMP JUMPDEST PUSH1 0x40 MLOAD PUSH2 0x569 SWAP2 SWAP1 PUSH2 0x3E8A JUMP JUMPDEST PUSH1 0x40 MLOAD DUP1 SWAP2 SUB SWAP1 RETURN JUMPDEST CALLVALUE DUP1 ISZERO PUSH2 0x57E JUMPI PUSH1 0x0 DUP1 REVERT JUMPDEST POP PUSH2 0x599 PUSH1 0x4 DUP1 CALLDATASIZE SUB DUP2 ADD SWAP1 PUSH2 0x594 SWAP2 SWAP1 PUSH2 0x3148 JUMP JUMPDEST PUSH2 0x11F1 JUMP JUMPDEST STOP JUMPDEST CALLVALUE DUP1 ISZERO PUSH2 0x5A7 JUMPI PUSH1 0x0 DUP1 REVERT JUMPDEST POP PUSH2 0x5C2 PUSH1 0x4 DUP1 CALLDATASIZE SUB DUP2 ADD SWAP1 PUSH2 0x5BD SWAP2 SWAP1 PUSH2 0x3148 JUMP JUMPDEST PUSH2 0x12D0 JUMP JUMPDEST PUSH1 0x40 MLOAD PUSH2 0x5CF SWAP2 SWAP1 PUSH2 0x4277 JUMP JUMPDEST PUSH1 0x40 MLOAD DUP1 SWAP2 SUB SWAP1 RETURN JUMPDEST CALLVALUE DUP1 ISZERO PUSH2 0x5E4 JUMPI PUSH1 0x0 DUP1 REVERT JUMPDEST POP PUSH2 0x5FF PUSH1 0x4 DUP1 CALLDATASIZE SUB DUP2 ADD SWAP1 PUSH2 0x5FA SWAP2 SWAP1 PUSH2 0x3148 JUMP JUMPDEST PUSH2 0x1388 JUMP JUMPDEST STOP JUMPDEST CALLVALUE DUP1 ISZERO PUSH2 0x60D JUMPI PUSH1 0x0 DUP1 REVERT JUMPDEST POP PUSH2 0x616 PUSH2 0x1444 JUMP JUMPDEST PUSH1 0x40 MLOAD PUSH2 0x623 SWAP2 SWAP1 PUSH2 0x3F5F JUMP JUMPDEST PUSH1 0x40 MLOAD DUP1 SWAP2 SUB SWAP1 RETURN JUMPDEST CALLVALUE DUP1 ISZERO PUSH2 0x638 JUMPI PUSH1 0x0 DUP1 REVERT JUMPDEST POP PUSH2 0x641 PUSH2 0x1468 JUMP JUMPDEST PUSH1 0x40 MLOAD PUSH2 0x64E SWAP2 SWAP1 PUSH2 0x4277 JUMP JUMPDEST PUSH1 0x40 MLOAD DUP1 SWAP2 SUB SWAP1 RETURN JUMPDEST CALLVALUE DUP1 ISZERO PUSH2 0x663 JUMPI PUSH1 0x0 DUP1 REVERT JUMPDEST POP PUSH2 0x67E PUSH1 0x4 DUP1 CALLDATASIZE SUB DUP2 ADD SWAP1 PUSH2 0x679 SWAP2 SWAP1 PUSH2 0x33E9 JUMP JUMPDEST PUSH2 0x147F JUMP JUMPDEST PUSH1 0x40 MLOAD PUSH2 0x68B SWAP2 SWAP1 PUSH2 0x3F44 JUMP JUMPDEST PUSH1 0x40 MLOAD DUP1 SWAP2 SUB SWAP1 RETURN JUMPDEST CALLVALUE DUP1 ISZERO PUSH2 0x6A0 JUMPI PUSH1 0x0 DUP1 REVERT JUMPDEST POP PUSH2 0x6A9 PUSH2 0x14EA JUMP JUMPDEST PUSH1 0x40 MLOAD PUSH2 0x6B6 SWAP2 SWAP1 PUSH2 0x3F95 JUMP JUMPDEST PUSH1 0x40 MLOAD DUP1 SWAP2 SUB SWAP1 RETURN JUMPDEST CALLVALUE DUP1 ISZERO PUSH2 0x6CB JUMPI PUSH1 0x0 DUP1 REVERT JUMPDEST POP PUSH2 0x6D4 PUSH2 0x157C JUMP JUMPDEST PUSH1 0x40 MLOAD PUSH2 0x6E1 SWAP2 SWAP1 PUSH2 0x3F5F JUMP JUMPDEST PUSH1 0x40 MLOAD DUP1 SWAP2 SUB SWAP1 RETURN JUMPDEST CALLVALUE DUP1 ISZERO PUSH2 0x6F6 JUMPI PUSH1 0x0 DUP1 REVERT JUMPDEST POP PUSH2 0x711 PUSH1 0x4 DUP1 CALLDATASIZE SUB DUP2 ADD SWAP1 PUSH2 0x70C SWAP2 SWAP1 PUSH2 0x3277 JUMP JUMPDEST PUSH2 0x1583 JUMP JUMPDEST STOP JUMPDEST CALLVALUE DUP1 ISZERO PUSH2 0x71F JUMPI PUSH1 0x0 DUP1 REVERT JUMPDEST POP PUSH2 0x728 PUSH2 0x1599 JUMP JUMPDEST PUSH1 0x40 MLOAD PUSH2 0x735 SWAP2 SWAP1 PUSH2 0x3F7A JUMP JUMPDEST PUSH1 0x40 MLOAD DUP1 SWAP2 SUB SWAP1 RETURN JUMPDEST CALLVALUE DUP1 ISZERO PUSH2 0x74A JUMPI PUSH1 0x0 DUP1 REVERT JUMPDEST POP PUSH2 0x765 PUSH1 0x4 DUP1 CALLDATASIZE SUB DUP2 ADD SWAP1 PUSH2 0x760 SWAP2 SWAP1 PUSH2 0x31FC JUMP JUMPDEST PUSH2 0x159E JUMP JUMPDEST STOP JUMPDEST CALLVALUE DUP1 ISZERO PUSH2 0x773 JUMPI PUSH1 0x0 DUP1 REVERT JUMPDEST POP PUSH2 0x78E PUSH1 0x4 DUP1 CALLDATASIZE SUB DUP2 ADD SWAP1 PUSH2 0x789 SWAP2 SWAP1 PUSH2 0x3477 JUMP JUMPDEST PUSH2 0x1600 JUMP JUMPDEST PUSH1 0x40 MLOAD PUSH2 0x79B SWAP2 SWAP1 PUSH2 0x3F95 JUMP JUMPDEST PUSH1 0x40 MLOAD DUP1 SWAP2 SUB SWAP1 RETURN JUMPDEST CALLVALUE DUP1 ISZERO PUSH2 0x7B0 JUMPI PUSH1 0x0 DUP1 REVERT JUMPDEST POP PUSH2 0x7CB PUSH1 0x4 DUP1 CALLDATASIZE SUB DUP2 ADD SWAP1 PUSH2 0x7C6 SWAP2 SWAP1 PUSH2 0x3148 JUMP JUMPDEST PUSH2 0x1752 JUMP JUMPDEST STOP JUMPDEST CALLVALUE DUP1 ISZERO PUSH2 0x7D9 JUMPI PUSH1 0x0 DUP1 REVERT JUMPDEST POP PUSH2 0x7E2 PUSH2 0x1888 JUMP JUMPDEST PUSH1 0x40 MLOAD PUSH2 0x7EF SWAP2 SWAP1 PUSH2 0x4277 JUMP JUMPDEST PUSH1 0x40 MLOAD DUP1 SWAP2 SUB SWAP1 RETURN JUMPDEST CALLVALUE DUP1 ISZERO PUSH2 0x804 JUMPI PUSH1 0x0 DUP1 REVERT JUMPDEST POP PUSH2 0x81F PUSH1 0x4 DUP1 CALLDATASIZE SUB DUP2 ADD SWAP1 PUSH2 0x81A SWAP2 SWAP1 PUSH2 0x33E9 JUMP JUMPDEST PUSH2 0x1893 JUMP JUMPDEST STOP JUMPDEST CALLVALUE DUP1 ISZERO PUSH2 0x82D JUMPI PUSH1 0x0 DUP1 REVERT JUMPDEST POP PUSH2 0x848 PUSH1 0x4 DUP1 CALLDATASIZE SUB DUP2 ADD SWAP1 PUSH2 0x843 SWAP2 SWAP1 PUSH2 0x3148 JUMP JUMPDEST PUSH2 0x18BC JUMP JUMPDEST STOP JUMPDEST CALLVALUE DUP1 ISZERO PUSH2 0x856 JUMPI PUSH1 0x0 DUP1 REVERT JUMPDEST POP PUSH2 0x871 PUSH1 0x4 DUP1 CALLDATASIZE SUB DUP2 ADD SWAP1 PUSH2 0x86C SWAP2 SWAP1 PUSH2 0x3171 JUMP JUMPDEST PUSH2 0x194B JUMP JUMPDEST PUSH1 0x40 MLOAD PUSH2 0x87E SWAP2 SWAP1 PUSH2 0x3F44 JUMP JUMPDEST PUSH1 0x40 MLOAD DUP1 SWAP2 SUB SWAP1 RETURN JUMPDEST PUSH1 0x0 PUSH2 0x892 DUP3 PUSH2 0x19F5 JUMP JUMPDEST SWAP1 POP SWAP2 SWAP1 POP JUMP JUMPDEST PUSH1 0x60 PUSH1 0x0 DUP1 SLOAD PUSH2 0x8A8 SWAP1 PUSH2 0x461E JUMP JUMPDEST DUP1 PUSH1 0x1F ADD PUSH1 0x20 DUP1 SWAP2 DIV MUL PUSH1 0x20 ADD PUSH1 0x40 MLOAD SWAP1 DUP2 ADD PUSH1 0x40 MSTORE DUP1 SWAP3 SWAP2 SWAP1 DUP2 DUP2 MSTORE PUSH1 0x20 ADD DUP3 DUP1 SLOAD PUSH2 0x8D4 SWAP1 PUSH2 0x461E JUMP JUMPDEST DUP1 ISZERO PUSH2 0x921 JUMPI DUP1 PUSH1 0x1F LT PUSH2 0x8F6 JUMPI PUSH2 0x100 DUP1 DUP4 SLOAD DIV MUL DUP4 MSTORE SWAP2 PUSH1 0x20 ADD SWAP2 PUSH2 0x921 JUMP JUMPDEST DUP3 ADD SWAP2 SWAP1 PUSH1 0x0 MSTORE PUSH1 0x20 PUSH1 0x0 KECCAK256 SWAP1 JUMPDEST DUP2 SLOAD DUP2 MSTORE SWAP1 PUSH1 0x1 ADD SWAP1 PUSH1 0x20 ADD DUP1 DUP4 GT PUSH2 0x904 JUMPI DUP3 SWAP1 SUB PUSH1 0x1F AND DUP3 ADD SWAP2 JUMPDEST POP POP POP POP POP SWAP1 POP SWAP1 JUMP JUMPDEST PUSH1 0x0 PUSH2 0x936 DUP3 PUSH2 0x1A6F JUMP JUMPDEST PUSH2 0x975 JUMPI PUSH1 0x40 MLOAD PUSH32 0x8C379A000000000000000000000000000000000000000000000000000000000 DUP2 MSTORE PUSH1 0x4 ADD PUSH2 0x96C SWAP1 PUSH2 0x4197 JUMP JUMPDEST PUSH1 0x40 MLOAD DUP1 SWAP2 SUB SWAP1 REVERT JUMPDEST PUSH1 0x4 PUSH1 0x0 DUP4 DUP2 MSTORE PUSH1 0x20 ADD SWAP1 DUP2 MSTORE PUSH1 0x20 ADD PUSH1 0x0 KECCAK256 PUSH1 0x0 SWAP1 SLOAD SWAP1 PUSH2 0x100 EXP SWAP1 DIV PUSH20 0xFFFFFFFFFFFFFFFFFFFFFFFFFFFFFFFFFFFFFFFF AND SWAP1 POP SWAP2 SWAP1 POP JUMP JUMPDEST PUSH1 0x0 PUSH2 0x9BB DUP3 PUSH2 0x113F JUMP JUMPDEST SWAP1 POP DUP1 PUSH20 0xFFFFFFFFFFFFFFFFFFFFFFFFFFFFFFFFFFFFFFFF AND DUP4 PUSH20 0xFFFFFFFFFFFFFFFFFFFFFFFFFFFFFFFFFFFFFFFF AND EQ ISZERO PUSH2 0xA2C JUMPI PUSH1 0x40 MLOAD PUSH32 0x8C379A000000000000000000000000000000000000000000000000000000000 DUP2 MSTORE PUSH1 0x4 ADD PUSH2 0xA23 SWAP1 PUSH2 0x41F7 JUMP JUMPDEST PUSH1 0x40 MLOAD DUP1 SWAP2 SUB SWAP1 REVERT JUMPDEST DUP1 PUSH20 0xFFFFFFFFFFFFFFFFFFFFFFFFFFFFFFFFFFFFFFFF AND PUSH2 0xA4B PUSH2 0x1ADB JUMP JUMPDEST PUSH20 0xFFFFFFFFFFFFFFFFFFFFFFFFFFFFFFFFFFFFFFFF AND EQ DUP1 PUSH2 0xA7A JUMPI POP PUSH2 0xA79 DUP2 PUSH2 0xA74 PUSH2 0x1ADB JUMP JUMPDEST PUSH2 0x194B JUMP JUMPDEST JUMPDEST PUSH2 0xAB9 JUMPI PUSH1 0x40 MLOAD PUSH32 0x8C379A000000000000000000000000000000000000000000000000000000000 DUP2 MSTORE PUSH1 0x4 ADD PUSH2 0xAB0 SWAP1 PUSH2 0x40D7 JUMP JUMPDEST PUSH1 0x40 MLOAD DUP1 SWAP2 SUB SWAP1 REVERT JUMPDEST PUSH2 0xAC3 DUP4 DUP4 PUSH2 0x1AE3 JUMP JUMPDEST POP POP POP JUMP JUMPDEST PUSH1 0x0 DUP1 CALLVALUE SWAP1 POP PUSH2 0xAD8 DUP2 DUP8 PUSH2 0x1B9C JUMP JUMPDEST DUP1 ISZERO PUSH2 0xAE3 JUMPI POP TIMESTAMP DUP4 GT JUMPDEST ISZERO PUSH2 0xBF5 JUMPI PUSH2 0xAF2 PUSH1 0x8 PUSH2 0x19DF JUMP JUMPDEST PUSH1 0x0 PUSH2 0xAFE PUSH1 0x8 PUSH2 0x1C3B JUMP JUMPDEST SWAP1 POP PUSH2 0xB0A DUP10 DUP3 PUSH2 0x1C49 JUMP JUMPDEST PUSH2 0xB14 DUP2 DUP10 PUSH2 0x1E17 JUMP JUMPDEST PUSH1 0x40 MLOAD DUP1 PUSH1 0xC0 ADD PUSH1 0x40 MSTORE DUP1 DUP8 DUP2 MSTORE PUSH1 0x20 ADD DUP7 DUP2 MSTORE PUSH1 0x20 ADD DUP9 DUP2 MSTORE PUSH1 0x20 ADD DUP6 DUP2 MSTORE PUSH1 0x20 ADD PUSH1 0x0 ISZERO ISZERO DUP2 MSTORE PUSH1 0x20 ADD PUSH1 0x0 ISZERO ISZERO DUP2 MSTORE POP PUSH1 0x9 PUSH1 0x0 DUP4 DUP2 MSTORE PUSH1 0x20 ADD SWAP1 DUP2 MSTORE PUSH1 0x20 ADD PUSH1 0x0 KECCAK256 PUSH1 0x0 DUP3 ADD MLOAD DUP2 PUSH1 0x0 ADD SWAP1 DUP1 MLOAD SWAP1 PUSH1 0x20 ADD SWAP1 PUSH2 0xB76 SWAP3 SWAP2 SWAP1 PUSH2 0x2F42 JUMP JUMPDEST POP PUSH1 0x20 DUP3 ADD MLOAD DUP2 PUSH1 0x1 ADD SWAP1 DUP1 MLOAD SWAP1 PUSH1 0x20 ADD SWAP1 PUSH2 0xB93 SWAP3 SWAP2 SWAP1 PUSH2 0x2F42 JUMP JUMPDEST POP PUSH1 0x40 DUP3 ADD MLOAD DUP2 PUSH1 0x2 ADD SSTORE PUSH1 0x60 DUP3 ADD MLOAD DUP2 PUSH1 0x3 ADD SSTORE PUSH1 0x80 DUP3 ADD MLOAD DUP2 PUSH1 0x4 ADD PUSH1 0x0 PUSH2 0x100 EXP DUP2 SLOAD DUP2 PUSH1 0xFF MUL NOT AND SWAP1 DUP4 ISZERO ISZERO MUL OR SWAP1 SSTORE POP PUSH1 0xA0 DUP3 ADD MLOAD DUP2 PUSH1 0x4 ADD PUSH1 0x1 PUSH2 0x100 EXP DUP2 SLOAD DUP2 PUSH1 0xFF MUL NOT AND SWAP1 DUP4 ISZERO ISZERO MUL OR SWAP1 SSTORE POP SWAP1 POP POP DUP1 SWAP3 POP POP POP PUSH2 0xBFB JUMP JUMPDEST PUSH1 0x0 SWAP2 POP POP JUMPDEST SWAP7 SWAP6 POP POP POP POP POP POP JUMP JUMPDEST PUSH7 0x151418D396D2E PUSH1 0x2 PUSH2 0xC19 SWAP2 SWAP1 PUSH2 0x4466 JUMP JUMPDEST DUP2 JUMP JUMPDEST PUSH2 0xC2D PUSH2 0xC27 PUSH2 0x1ADB JUMP JUMPDEST DUP3 PUSH2 0x1E8B JUMP JUMPDEST PUSH2 0xC6C JUMPI PUSH1 0x40 MLOAD PUSH32 0x8C379A000000000000000000000000000000000000000000000000000000000 DUP2 MSTORE PUSH1 0x4 ADD PUSH2 0xC63 SWAP1 PUSH2 0x4237 JUMP JUMPDEST PUSH1 0x40 MLOAD DUP1 SWAP2 SUB SWAP1 REVERT JUMPDEST PUSH2 0xC77 DUP4 DUP4 DUP4 PUSH2 0x1F69 JUMP JUMPDEST POP POP POP JUMP JUMPDEST PUSH1 0x0 PUSH1 0x7 PUSH1 0x0 DUP4 DUP2 MSTORE PUSH1 0x20 ADD SWAP1 DUP2 MSTORE PUSH1 0x20 ADD PUSH1 0x0 KECCAK256 PUSH1 0x1 ADD SLOAD SWAP1 POP SWAP2 SWAP1 POP JUMP JUMPDEST PUSH1 0x0 PUSH2 0xCAB PUSH1 0x0 DUP1 SHL DUP4 PUSH2 0x147F JUMP JUMPDEST SWAP1 POP SWAP2 SWAP1 POP JUMP JUMPDEST PUSH32 0x3013243DA6399844D88A1E05C4B62EA91C0CD18E68113AE5C9E1F159E0E84485 CALLER PUSH1 0x40 MLOAD PUSH2 0xCE1 SWAP2 SWAP1 PUSH2 0x3E8A JUMP JUMPDEST PUSH1 0x40 MLOAD DUP1 SWAP2 SUB SWAP1 LOG1 PUSH2 0xCF2 CALLER PUSH2 0x10FC JUMP JUMPDEST DUP1 PUSH2 0xD02 JUMPI POP PUSH2 0xD01 CALLER PUSH2 0xC9C JUMP JUMPDEST JUMPDEST PUSH2 0xD41 JUMPI PUSH1 0x40 MLOAD PUSH32 0x8C379A000000000000000000000000000000000000000000000000000000000 DUP2 MSTORE PUSH1 0x4 ADD PUSH2 0xD38 SWAP1 PUSH2 0x4217 JUMP JUMPDEST PUSH1 0x40 MLOAD DUP1 SWAP2 SUB SWAP1 REVERT JUMPDEST PUSH1 0x9 PUSH1 0x0 DUP3 DUP2 MSTORE PUSH1 0x20 ADD SWAP1 DUP2 MSTORE PUSH1 0x20 ADD PUSH1 0x0 KECCAK256 PUSH1 0x4 ADD PUSH1 0x0 SWAP1 SLOAD SWAP1 PUSH2 0x100 EXP SWAP1 DIV PUSH1 0xFF AND ISZERO PUSH2 0xD6F JUMPI PUSH1 0x0 DUP1 REVERT JUMPDEST TIMESTAMP PUSH1 0x9 PUSH1 0x0 DUP4 DUP2 MSTORE PUSH1 0x20 ADD SWAP1 DUP2 MSTORE PUSH1 0x20 ADD PUSH1 0x0 KECCAK256 PUSH1 0x3 ADD SLOAD GT ISZERO PUSH2 0xD92 JUMPI PUSH1 0x0 DUP1 REVERT JUMPDEST PUSH1 0x9 PUSH1 0x0 DUP3 DUP2 MSTORE PUSH1 0x20 ADD SWAP1 DUP2 MSTORE PUSH1 0x20 ADD PUSH1 0x0 KECCAK256 PUSH1 0x4 ADD PUSH1 0x1 SWAP1 SLOAD SWAP1 PUSH2 0x100 EXP SWAP1 DIV PUSH1 0xFF AND ISZERO PUSH2 0xDC0 JUMPI PUSH1 0x0 DUP1 REVERT JUMPDEST PUSH1 0x1 PUSH1 0x9 PUSH1 0x0 DUP4 DUP2 MSTORE PUSH1 0x20 ADD SWAP1 DUP2 MSTORE PUSH1 0x20 ADD PUSH1 0x0 KECCAK256 PUSH1 0x4 ADD PUSH1 0x0 PUSH2 0x100 EXP DUP2 SLOAD DUP2 PUSH1 0xFF MUL NOT AND SWAP1 DUP4 ISZERO ISZERO MUL OR SWAP1 SSTORE POP PUSH32 0x6AFB3A561BE2D1CFE00FA2081E86E48FFD3115AB171FEF548EECCCCDA1D4CBFE DUP2 PUSH2 0xE1A DUP4 PUSH2 0x113F JUMP JUMPDEST CALLER PUSH1 0x40 MLOAD PUSH2 0xE2A SWAP4 SWAP3 SWAP2 SWAP1 PUSH2 0x42C9 JUMP JUMPDEST PUSH1 0x40 MLOAD DUP1 SWAP2 SUB SWAP1 LOG1 POP JUMP JUMPDEST PUSH1 0x0 PUSH2 0xE40 DUP3 PUSH2 0x113F JUMP JUMPDEST SWAP1 POP DUP1 PUSH20 0xFFFFFFFFFFFFFFFFFFFFFFFFFFFFFFFFFFFFFFFF AND CALLER PUSH20 0xFFFFFFFFFFFFFFFFFFFFFFFFFFFFFFFFFFFFFFFF AND EQ PUSH2 0xE7A JUMPI PUSH1 0x0 DUP1 REVERT JUMPDEST PUSH1 0x9 PUSH1 0x0 DUP4 DUP2 MSTORE PUSH1 0x20 ADD SWAP1 DUP2 MSTORE PUSH1 0x20 ADD PUSH1 0x0 KECCAK256 PUSH1 0x4 ADD PUSH1 0x0 SWAP1 SLOAD SWAP1 PUSH2 0x100 EXP SWAP1 DIV PUSH1 0xFF AND ISZERO PUSH2 0xEA8 JUMPI PUSH1 0x0 DUP1 REVERT JUMPDEST TIMESTAMP PUSH1 0x9 PUSH1 0x0 DUP5 DUP2 MSTORE PUSH1 0x20 ADD SWAP1 DUP2 MSTORE PUSH1 0x20 ADD PUSH1 0x0 KECCAK256 PUSH1 0x3 ADD SLOAD GT ISZERO PUSH2 0xECB JUMPI PUSH1 0x0 DUP1 REVERT JUMPDEST PUSH1 0x9 PUSH1 0x0 DUP4 DUP2 MSTORE PUSH1 0x20 ADD SWAP1 DUP2 MSTORE PUSH1 0x20 ADD PUSH1 0x0 KECCAK256 PUSH1 0x4 ADD PUSH1 0x1 SWAP1 SLOAD SWAP1 PUSH2 0x100 EXP SWAP1 DIV PUSH1 0xFF AND ISZERO PUSH2 0xEF9 JUMPI PUSH1 0x0 DUP1 REVERT JUMPDEST PUSH1 0x1 PUSH1 0x9 PUSH1 0x0 DUP5 DUP2 MSTORE PUSH1 0x20 ADD SWAP1 DUP2 MSTORE PUSH1 0x20 ADD PUSH1 0x0 KECCAK256 PUSH1 0x4 ADD PUSH1 0x1 PUSH2 0x100 EXP DUP2 SLOAD DUP2 PUSH1 0xFF MUL NOT AND SWAP1 DUP4 ISZERO ISZERO MUL OR SWAP1 SSTORE POP PUSH1 0x0 PUSH7 0x151418D396D2E SWAP1 POP PUSH1 0x5 PUSH1 0x9 PUSH1 0x0 DUP6 DUP2 MSTORE PUSH1 0x20 ADD SWAP1 DUP2 MSTORE PUSH1 0x20 ADD PUSH1 0x0 KECCAK256 PUSH1 0x2 ADD SLOAD SLT ISZERO DUP1 ISZERO PUSH2 0xF71 JUMPI POP PUSH1 0xD PUSH1 0x9 PUSH1 0x0 DUP6 DUP2 MSTORE PUSH1 0x20 ADD SWAP1 DUP2 MSTORE PUSH1 0x20 ADD PUSH1 0x0 KECCAK256 PUSH1 0x2 ADD SLOAD SLT JUMPDEST ISZERO PUSH2 0xF91 JUMPI PUSH7 0x151418D396D2E PUSH1 0x2 PUSH2 0xF8A SWAP2 SWAP1 PUSH2 0x4466 JUMP JUMPDEST SWAP1 POP PUSH2 0xFC7 JUMP JUMPDEST PUSH1 0xD PUSH1 0x9 PUSH1 0x0 DUP6 DUP2 MSTORE PUSH1 0x20 ADD SWAP1 DUP2 MSTORE PUSH1 0x20 ADD PUSH1 0x0 KECCAK256 PUSH1 0x2 ADD SLOAD SLT PUSH2 0xFC6 JUMPI PUSH7 0x151418D396D2E PUSH1 0x3 PUSH2 0xFC3 SWAP2 SWAP1 PUSH2 0x4466 JUMP JUMPDEST SWAP1 POP JUMPDEST JUMPDEST PUSH2 0xFF0 DUP2 DUP4 PUSH20 0xFFFFFFFFFFFFFFFFFFFFFFFFFFFFFFFFFFFFFFFF AND PUSH2 0x21C5 SWAP1 SWAP2 SWAP1 PUSH4 0xFFFFFFFF AND JUMP JUMPDEST PUSH32 0x62BCF8E846AE15E1DA81CFD6BE83F68357BFF60C5CDA56C97B51E05EEA2FA420 DUP4 DUP4 DUP4 PUSH1 0x40 MLOAD PUSH2 0x1023 SWAP4 SWAP3 SWAP2 SWAP1 PUSH2 0x4292 JUMP JUMPDEST PUSH1 0x40 MLOAD DUP1 SWAP2 SUB SWAP1 LOG1 POP POP POP JUMP JUMPDEST PUSH2 0x1039 DUP3 PUSH2 0xC7C JUMP JUMPDEST PUSH2 0x104A DUP2 PUSH2 0x1045 PUSH2 0x1ADB JUMP JUMPDEST PUSH2 0x22B9 JUMP JUMPDEST PUSH2 0x1054 DUP4 DUP4 PUSH2 0x2356 JUMP JUMPDEST POP POP POP JUMP JUMPDEST PUSH2 0x1061 PUSH2 0x1ADB JUMP JUMPDEST PUSH20 0xFFFFFFFFFFFFFFFFFFFFFFFFFFFFFFFFFFFFFFFF AND DUP2 PUSH20 0xFFFFFFFFFFFFFFFFFFFFFFFFFFFFFFFFFFFFFFFF AND EQ PUSH2 0x10CE JUMPI PUSH1 0x40 MLOAD PUSH32 0x8C379A000000000000000000000000000000000000000000000000000000000 DUP2 MSTORE PUSH1 0x4 ADD PUSH2 0x10C5 SWAP1 PUSH2 0x4257 JUMP JUMPDEST PUSH1 0x40 MLOAD DUP1 SWAP2 SUB SWAP1 REVERT JUMPDEST PUSH2 0x10D8 DUP3 DUP3 PUSH2 0x2437 JUMP JUMPDEST POP POP JUMP JUMPDEST PUSH2 0x10F7 DUP4 DUP4 DUP4 PUSH1 0x40 MLOAD DUP1 PUSH1 0x20 ADD PUSH1 0x40 MSTORE DUP1 PUSH1 0x0 DUP2 MSTORE POP PUSH2 0x159E JUMP JUMPDEST POP POP POP JUMP JUMPDEST PUSH1 0x0 PUSH2 0x1128 PUSH32 0x7217BABE285B1F07B4928B85BC48031C596A29CD8A5EAFE68E8749DB667D043F DUP4 PUSH2 0x147F JUMP JUMPDEST SWAP1 POP SWAP2 SWAP1 POP JUMP JUMPDEST PUSH1 0xD DUP2 JUMP JUMPDEST PUSH7 0x151418D396D2E DUP2 JUMP JUMPDEST PUSH1 0x0 DUP1 PUSH1 0x2 PUSH1 0x0 DUP5 DUP2 MSTORE PUSH1 0x20 ADD SWAP1 DUP2 MSTORE PUSH1 0x20 ADD PUSH1 0x0 KECCAK256 PUSH1 0x0 SWAP1 SLOAD SWAP1 PUSH2 0x100 EXP SWAP1 DIV PUSH20 0xFFFFFFFFFFFFFFFFFFFFFFFFFFFFFFFFFFFFFFFF AND SWAP1 POP PUSH1 0x0 PUSH20 0xFFFFFFFFFFFFFFFFFFFFFFFFFFFFFFFFFFFFFFFF AND DUP2 PUSH20 0xFFFFFFFFFFFFFFFFFFFFFFFFFFFFFFFFFFFFFFFF AND EQ ISZERO PUSH2 0x11E8 JUMPI PUSH1 0x40 MLOAD PUSH32 0x8C379A000000000000000000000000000000000000000000000000000000000 DUP2 MSTORE PUSH1 0x4 ADD PUSH2 0x11DF SWAP1 PUSH2 0x4117 JUMP JUMPDEST PUSH1 0x40 MLOAD DUP1 SWAP2 SUB SWAP1 REVERT JUMPDEST DUP1 SWAP2 POP POP SWAP2 SWAP1 POP JUMP JUMPDEST PUSH32 0xAB7E4B2C6AC3574C44D3F8F16FFAEA1C2D8140C0C09FAEF54C8150D22EEC3CEF CALLER PUSH1 0x40 MLOAD PUSH2 0x1220 SWAP2 SWAP1 PUSH2 0x3E8A JUMP JUMPDEST PUSH1 0x40 MLOAD DUP1 SWAP2 SUB SWAP1 LOG1 PUSH2 0x1231 CALLER PUSH2 0xC9C JUMP JUMPDEST PUSH2 0x1270 JUMPI PUSH1 0x40 MLOAD PUSH32 0x8C379A000000000000000000000000000000000000000000000000000000000 DUP2 MSTORE PUSH1 0x4 ADD PUSH2 0x1267 SWAP1 PUSH2 0x3FF7 JUMP JUMPDEST PUSH1 0x40 MLOAD DUP1 SWAP2 SUB SWAP1 REVERT JUMPDEST PUSH32 0xFBEAA2D4B24EA8784B2E518C3040F6DFE5EDCE67A0FFCE9F5162D2A149B3523C DUP2 CALLER PUSH1 0x0 DUP1 SHL PUSH2 0x12A3 PUSH1 0x0 DUP1 SHL PUSH2 0xC7C JUMP JUMPDEST PUSH1 0x0 DUP1 SHL PUSH1 0x40 MLOAD PUSH2 0x12B8 SWAP6 SWAP5 SWAP4 SWAP3 SWAP2 SWAP1 PUSH2 0x3EA5 JUMP JUMPDEST PUSH1 0x40 MLOAD DUP1 SWAP2 SUB SWAP1 LOG1 PUSH2 0x12CD PUSH1 0x0 DUP1 SHL DUP3 PUSH2 0x1030 JUMP JUMPDEST POP JUMP JUMPDEST PUSH1 0x0 DUP1 PUSH20 0xFFFFFFFFFFFFFFFFFFFFFFFFFFFFFFFFFFFFFFFF AND DUP3 PUSH20 0xFFFFFFFFFFFFFFFFFFFFFFFFFFFFFFFFFFFFFFFF AND EQ ISZERO PUSH2 0x1341 JUMPI PUSH1 0x40 MLOAD PUSH32 0x8C379A000000000000000000000000000000000000000000000000000000000 DUP2 MSTORE PUSH1 0x4 ADD PUSH2 0x1338 SWAP1 PUSH2 0x40F7 JUMP JUMPDEST PUSH1 0x40 MLOAD DUP1 SWAP2 SUB SWAP1 REVERT JUMPDEST PUSH1 0x3 PUSH1 0x0 DUP4 PUSH20 0xFFFFFFFFFFFFFFFFFFFFFFFFFFFFFFFFFFFFFFFF AND PUSH20 0xFFFFFFFFFFFFFFFFFFFFFFFFFFFFFFFFFFFFFFFF AND DUP2 MSTORE PUSH1 0x20 ADD SWAP1 DUP2 MSTORE PUSH1 0x20 ADD PUSH1 0x0 KECCAK256 SLOAD SWAP1 POP SWAP2 SWAP1 POP JUMP JUMPDEST PUSH32 0x3013243DA6399844D88A1E05C4B62EA91C0CD18E68113AE5C9E1F159E0E84485 CALLER PUSH1 0x40 MLOAD PUSH2 0x13B7 SWAP2 SWAP1 PUSH2 0x3E8A JUMP JUMPDEST PUSH1 0x40 MLOAD DUP1 SWAP2 SUB SWAP1 LOG1 PUSH2 0x13C8 CALLER PUSH2 0x10FC JUMP JUMPDEST DUP1 PUSH2 0x13D8 JUMPI POP PUSH2 0x13D7 CALLER PUSH2 0xC9C JUMP JUMPDEST JUMPDEST PUSH2 0x1417 JUMPI PUSH1 0x40 MLOAD PUSH32 0x8C379A000000000000000000000000000000000000000000000000000000000 DUP2 MSTORE PUSH1 0x4 ADD PUSH2 0x140E SWAP1 PUSH2 0x4217 JUMP JUMPDEST PUSH1 0x40 MLOAD DUP1 SWAP2 SUB SWAP1 REVERT JUMPDEST PUSH2 0x1441 PUSH32 0x7217BABE285B1F07B4928B85BC48031C596A29CD8A5EAFE68E8749DB667D043F DUP3 PUSH2 0x1059 JUMP JUMPDEST POP JUMP JUMPDEST PUSH32 0x7217BABE285B1F07B4928B85BC48031C596A29CD8A5EAFE68E8749DB667D043F DUP2 JUMP JUMPDEST PUSH7 0x151418D396D2E PUSH1 0x3 PUSH2 0x147C SWAP2 SWAP1 PUSH2 0x4466 JUMP JUMPDEST DUP2 JUMP JUMPDEST PUSH1 0x0 PUSH1 0x7 PUSH1 0x0 DUP5 DUP2 MSTORE PUSH1 0x20 ADD SWAP1 DUP2 MSTORE PUSH1 0x20 ADD PUSH1 0x0 KECCAK256 PUSH1 0x0 ADD PUSH1 0x0 DUP4 PUSH20 0xFFFFFFFFFFFFFFFFFFFFFFFFFFFFFFFFFFFFFFFF AND PUSH20 0xFFFFFFFFFFFFFFFFFFFFFFFFFFFFFFFFFFFFFFFF AND DUP2 MSTORE PUSH1 0x20 ADD SWAP1 DUP2 MSTORE PUSH1 0x20 ADD PUSH1 0x0 KECCAK256 PUSH1 0x0 SWAP1 SLOAD SWAP1 PUSH2 0x100 EXP SWAP1 DIV PUSH1 0xFF AND SWAP1 POP SWAP3 SWAP2 POP POP JUMP JUMPDEST PUSH1 0x60 PUSH1 0x1 DUP1 SLOAD PUSH2 0x14F9 SWAP1 PUSH2 0x461E JUMP JUMPDEST DUP1 PUSH1 0x1F ADD PUSH1 0x20 DUP1 SWAP2 DIV MUL PUSH1 0x20 ADD PUSH1 0x40 MLOAD SWAP1 DUP2 ADD PUSH1 0x40 MSTORE DUP1 SWAP3 SWAP2 SWAP1 DUP2 DUP2 MSTORE PUSH1 0x20 ADD DUP3 DUP1 SLOAD PUSH2 0x1525 SWAP1 PUSH2 0x461E JUMP JUMPDEST DUP1 ISZERO PUSH2 0x1572 JUMPI DUP1 PUSH1 0x1F LT PUSH2 0x1547 JUMPI PUSH2 0x100 DUP1 DUP4 SLOAD DIV MUL DUP4 MSTORE SWAP2 PUSH1 0x20 ADD SWAP2 PUSH2 0x1572 JUMP JUMPDEST DUP3 ADD SWAP2 SWAP1 PUSH1 0x0 MSTORE PUSH1 0x20 PUSH1 0x0 KECCAK256 SWAP1 JUMPDEST DUP2 SLOAD DUP2 MSTORE SWAP1 PUSH1 0x1 ADD SWAP1 PUSH1 0x20 ADD DUP1 DUP4 GT PUSH2 0x1555 JUMPI DUP3 SWAP1 SUB PUSH1 0x1F AND DUP3 ADD SWAP2 JUMPDEST POP POP POP POP POP SWAP1 POP SWAP1 JUMP JUMPDEST PUSH1 0x0 DUP1 SHL DUP2 JUMP JUMPDEST PUSH2 0x1595 PUSH2 0x158E PUSH2 0x1ADB JUMP JUMPDEST DUP4 DUP4 PUSH2 0x2519 JUMP JUMPDEST POP POP JUMP JUMPDEST PUSH1 0x5 DUP2 JUMP JUMPDEST PUSH2 0x15AF PUSH2 0x15A9 PUSH2 0x1ADB JUMP JUMPDEST DUP4 PUSH2 0x1E8B JUMP JUMPDEST PUSH2 0x15EE JUMPI PUSH1 0x40 MLOAD PUSH32 0x8C379A000000000000000000000000000000000000000000000000000000000 DUP2 MSTORE PUSH1 0x4 ADD PUSH2 0x15E5 SWAP1 PUSH2 0x4237 JUMP JUMPDEST PUSH1 0x40 MLOAD DUP1 SWAP2 SUB SWAP1 REVERT JUMPDEST PUSH2 0x15FA DUP5 DUP5 DUP5 DUP5 PUSH2 0x2686 JUMP JUMPDEST POP POP POP POP JUMP JUMPDEST PUSH1 0x60 PUSH2 0x160B DUP3 PUSH2 0x1A6F JUMP JUMPDEST PUSH2 0x164A JUMPI PUSH1 0x40 MLOAD PUSH32 0x8C379A000000000000000000000000000000000000000000000000000000000 DUP2 MSTORE PUSH1 0x4 ADD PUSH2 0x1641 SWAP1 PUSH2 0x4177 JUMP JUMPDEST PUSH1 0x40 MLOAD DUP1 SWAP2 SUB SWAP1 REVERT JUMPDEST PUSH1 0x0 PUSH1 0x6 PUSH1 0x0 DUP5 DUP2 MSTORE PUSH1 0x20 ADD SWAP1 DUP2 MSTORE PUSH1 0x20 ADD PUSH1 0x0 KECCAK256 DUP1 SLOAD PUSH2 0x166A SWAP1 PUSH2 0x461E JUMP JUMPDEST DUP1 PUSH1 0x1F ADD PUSH1 0x20 DUP1 SWAP2 DIV MUL PUSH1 0x20 ADD PUSH1 0x40 MLOAD SWAP1 DUP2 ADD PUSH1 0x40 MSTORE DUP1 SWAP3 SWAP2 SWAP1 DUP2 DUP2 MSTORE PUSH1 0x20 ADD DUP3 DUP1 SLOAD PUSH2 0x1696 SWAP1 PUSH2 0x461E JUMP JUMPDEST DUP1 ISZERO PUSH2 0x16E3 JUMPI DUP1 PUSH1 0x1F LT PUSH2 0x16B8 JUMPI PUSH2 0x100 DUP1 DUP4 SLOAD DIV MUL DUP4 MSTORE SWAP2 PUSH1 0x20 ADD SWAP2 PUSH2 0x16E3 JUMP JUMPDEST DUP3 ADD SWAP2 SWAP1 PUSH1 0x0 MSTORE PUSH1 0x20 PUSH1 0x0 KECCAK256 SWAP1 JUMPDEST DUP2 SLOAD DUP2 MSTORE SWAP1 PUSH1 0x1 ADD SWAP1 PUSH1 0x20 ADD DUP1 DUP4 GT PUSH2 0x16C6 JUMPI DUP3 SWAP1 SUB PUSH1 0x1F AND DUP3 ADD SWAP2 JUMPDEST POP POP POP POP POP SWAP1 POP PUSH1 0x0 PUSH2 0x16F4 PUSH2 0x26E2 JUMP JUMPDEST SWAP1 POP PUSH1 0x0 DUP2 MLOAD EQ ISZERO PUSH2 0x170A JUMPI DUP2 SWAP3 POP POP POP PUSH2 0x174D JUMP JUMPDEST PUSH1 0x0 DUP3 MLOAD GT ISZERO PUSH2 0x173F JUMPI DUP1 DUP3 PUSH1 0x40 MLOAD PUSH1 0x20 ADD PUSH2 0x1727 SWAP3 SWAP2 SWAP1 PUSH2 0x3E17 JUMP JUMPDEST PUSH1 0x40 MLOAD PUSH1 0x20 DUP2 DUP4 SUB SUB DUP2 MSTORE SWAP1 PUSH1 0x40 MSTORE SWAP3 POP POP POP PUSH2 0x174D JUMP JUMPDEST PUSH2 0x1748 DUP5 PUSH2 0x26F9 JUMP JUMPDEST SWAP3 POP POP POP JUMPDEST SWAP2 SWAP1 POP JUMP JUMPDEST PUSH32 0xAB7E4B2C6AC3574C44D3F8F16FFAEA1C2D8140C0C09FAEF54C8150D22EEC3CEF CALLER PUSH1 0x40 MLOAD PUSH2 0x1781 SWAP2 SWAP1 PUSH2 0x3E8A JUMP JUMPDEST PUSH1 0x40 MLOAD DUP1 SWAP2 SUB SWAP1 LOG1 PUSH2 0x1792 CALLER PUSH2 0xC9C JUMP JUMPDEST PUSH2 0x17D1 JUMPI PUSH1 0x40 MLOAD PUSH32 0x8C379A000000000000000000000000000000000000000000000000000000000 DUP2 MSTORE PUSH1 0x4 ADD PUSH2 0x17C8 SWAP1 PUSH2 0x3FF7 JUMP JUMPDEST PUSH1 0x40 MLOAD DUP1 SWAP2 SUB SWAP1 REVERT JUMPDEST PUSH32 0xFBEAA2D4B24EA8784B2E518C3040F6DFE5EDCE67A0FFCE9F5162D2A149B3523C DUP2 CALLER PUSH32 0x7217BABE285B1F07B4928B85BC48031C596A29CD8A5EAFE68E8749DB667D043F PUSH2 0x183E PUSH32 0x7217BABE285B1F07B4928B85BC48031C596A29CD8A5EAFE68E8749DB667D043F PUSH2 0xC7C JUMP JUMPDEST PUSH1 0x0 DUP1 SHL PUSH1 0x40 MLOAD PUSH2 0x1853 SWAP6 SWAP5 SWAP4 SWAP3 SWAP2 SWAP1 PUSH2 0x3EA5 JUMP JUMPDEST PUSH1 0x40 MLOAD DUP1 SWAP2 SUB SWAP1 LOG1 PUSH2 0x1885 PUSH32 0x7217BABE285B1F07B4928B85BC48031C596A29CD8A5EAFE68E8749DB667D043F DUP3 PUSH2 0x1030 JUMP JUMPDEST POP JUMP JUMPDEST PUSH7 0x151418D396D2E DUP2 JUMP JUMPDEST PUSH2 0x189C DUP3 PUSH2 0xC7C JUMP JUMPDEST PUSH2 0x18AD DUP2 PUSH2 0x18A8 PUSH2 0x1ADB JUMP JUMPDEST PUSH2 0x22B9 JUMP JUMPDEST PUSH2 0x18B7 DUP4 DUP4 PUSH2 0x2437 JUMP JUMPDEST POP POP POP JUMP JUMPDEST PUSH32 0xAB7E4B2C6AC3574C44D3F8F16FFAEA1C2D8140C0C09FAEF54C8150D22EEC3CEF CALLER PUSH1 0x40 MLOAD PUSH2 0x18EB SWAP2 SWAP1 PUSH2 0x3E8A JUMP JUMPDEST PUSH1 0x40 MLOAD DUP1 SWAP2 SUB SWAP1 LOG1 PUSH2 0x18FC CALLER PUSH2 0xC9C JUMP JUMPDEST PUSH2 0x193B JUMPI PUSH1 0x40 MLOAD PUSH32 0x8C379A000000000000000000000000000000000000000000000000000000000 DUP2 MSTORE PUSH1 0x4 ADD PUSH2 0x1932 SWAP1 PUSH2 0x3FF7 JUMP JUMPDEST PUSH1 0x40 MLOAD DUP1 SWAP2 SUB SWAP1 REVERT JUMPDEST PUSH2 0x1948 PUSH1 0x0 DUP1 SHL DUP3 PUSH2 0x1059 JUMP JUMPDEST POP JUMP JUMPDEST PUSH1 0x0 PUSH1 0x5 PUSH1 0x0 DUP5 PUSH20 0xFFFFFFFFFFFFFFFFFFFFFFFFFFFFFFFFFFFFFFFF AND PUSH20 0xFFFFFFFFFFFFFFFFFFFFFFFFFFFFFFFFFFFFFFFF AND DUP2 MSTORE PUSH1 0x20 ADD SWAP1 DUP2 MSTORE PUSH1 0x20 ADD PUSH1 0x0 KECCAK256 PUSH1 0x0 DUP4 PUSH20 0xFFFFFFFFFFFFFFFFFFFFFFFFFFFFFFFFFFFFFFFF AND PUSH20 0xFFFFFFFFFFFFFFFFFFFFFFFFFFFFFFFFFFFFFFFF AND DUP2 MSTORE PUSH1 0x20 ADD SWAP1 DUP2 MSTORE PUSH1 0x20 ADD PUSH1 0x0 KECCAK256 PUSH1 0x0 SWAP1 SLOAD SWAP1 PUSH2 0x100 EXP SWAP1 DIV PUSH1 0xFF AND SWAP1 POP SWAP3 SWAP2 POP POP JUMP JUMPDEST PUSH1 0x1 DUP2 PUSH1 0x0 ADD PUSH1 0x0 DUP3 DUP3 SLOAD ADD SWAP3 POP POP DUP2 SWAP1 SSTORE POP POP JUMP JUMPDEST PUSH1 0x0 PUSH32 0x7965DB0B00000000000000000000000000000000000000000000000000000000 PUSH28 0xFFFFFFFFFFFFFFFFFFFFFFFFFFFFFFFFFFFFFFFFFFFFFFFFFFFFFFFF NOT AND DUP3 PUSH28 0xFFFFFFFFFFFFFFFFFFFFFFFFFFFFFFFFFFFFFFFFFFFFFFFFFFFFFFFF NOT AND EQ DUP1 PUSH2 0x1A68 JUMPI POP PUSH2 0x1A67 DUP3 PUSH2 0x27A0 JUMP JUMPDEST JUMPDEST SWAP1 POP SWAP2 SWAP1 POP JUMP JUMPDEST PUSH1 0x0 DUP1 PUSH20 0xFFFFFFFFFFFFFFFFFFFFFFFFFFFFFFFFFFFFFFFF AND PUSH1 0x2 PUSH1 0x0 DUP5 DUP2 MSTORE PUSH1 0x20 ADD SWAP1 DUP2 MSTORE PUSH1 0x20 ADD PUSH1 0x0 KECCAK256 PUSH1 0x0 SWAP1 SLOAD SWAP1 PUSH2 0x100 EXP SWAP1 DIV PUSH20 0xFFFFFFFFFFFFFFFFFFFFFFFFFFFFFFFFFFFFFFFF AND PUSH20 0xFFFFFFFFFFFFFFFFFFFFFFFFFFFFFFFFFFFFFFFF AND EQ ISZERO SWAP1 POP SWAP2 SWAP1 POP JUMP JUMPDEST PUSH1 0x0 CALLER SWAP1 POP SWAP1 JUMP JUMPDEST DUP2 PUSH1 0x4 PUSH1 0x0 DUP4 DUP2 MSTORE PUSH1 0x20 ADD SWAP1 DUP2 MSTORE PUSH1 0x20 ADD PUSH1 0x0 KECCAK256 PUSH1 0x0 PUSH2 0x100 EXP DUP2 SLOAD DUP2 PUSH20 0xFFFFFFFFFFFFFFFFFFFFFFFFFFFFFFFFFFFFFFFF MUL NOT AND SWAP1 DUP4 PUSH20 0xFFFFFFFFFFFFFFFFFFFFFFFFFFFFFFFFFFFFFFFF AND MUL OR SWAP1 SSTORE POP DUP1 DUP3 PUSH20 0xFFFFFFFFFFFFFFFFFFFFFFFFFFFFFFFFFFFFFFFF AND PUSH2 0x1B56 DUP4 PUSH2 0x113F JUMP JUMPDEST PUSH20 0xFFFFFFFFFFFFFFFFFFFFFFFFFFFFFFFFFFFFFFFF AND PUSH32 0x8C5BE1E5EBEC7D5BD14F71427D1E84F3DD0314C0F7B2291E5B200AC8C7C3B925 PUSH1 0x40 MLOAD PUSH1 0x40 MLOAD DUP1 SWAP2 SUB SWAP1 LOG4 POP POP JUMP JUMPDEST PUSH1 0x0 PUSH1 0x5 DUP3 SLT DUP1 ISZERO PUSH2 0x1BB4 JUMPI POP PUSH7 0x151418D396D2E DUP4 EQ JUMPDEST ISZERO PUSH2 0x1BC2 JUMPI PUSH1 0x1 SWAP1 POP PUSH2 0x1C35 JUMP JUMPDEST PUSH1 0x5 DUP3 SLT ISZERO DUP1 ISZERO PUSH2 0x1BD3 JUMPI POP PUSH1 0xD DUP3 SLT JUMPDEST DUP1 ISZERO PUSH2 0x1BF1 JUMPI POP PUSH7 0x151418D396D2E PUSH1 0x2 PUSH2 0x1BEE SWAP2 SWAP1 PUSH2 0x4466 JUMP JUMPDEST DUP4 EQ JUMPDEST ISZERO PUSH2 0x1BFF JUMPI PUSH1 0x1 SWAP1 POP PUSH2 0x1C35 JUMP JUMPDEST PUSH1 0xD DUP3 SLT ISZERO DUP1 ISZERO PUSH2 0x1C22 JUMPI POP PUSH7 0x151418D396D2E PUSH1 0x3 PUSH2 0x1C1F SWAP2 SWAP1 PUSH2 0x4466 JUMP JUMPDEST DUP4 EQ JUMPDEST ISZERO PUSH2 0x1C30 JUMPI PUSH1 0x1 SWAP1 POP PUSH2 0x1C35 JUMP JUMPDEST PUSH1 0x0 SWAP1 POP JUMPDEST SWAP3 SWAP2 POP POP JUMP JUMPDEST PUSH1 0x0 DUP2 PUSH1 0x0 ADD SLOAD SWAP1 POP SWAP2 SWAP1 POP JUMP JUMPDEST PUSH1 0x0 PUSH20 0xFFFFFFFFFFFFFFFFFFFFFFFFFFFFFFFFFFFFFFFF AND DUP3 PUSH20 0xFFFFFFFFFFFFFFFFFFFFFFFFFFFFFFFFFFFFFFFF AND EQ ISZERO PUSH2 0x1CB9 JUMPI PUSH1 0x40 MLOAD PUSH32 0x8C379A000000000000000000000000000000000000000000000000000000000 DUP2 MSTORE PUSH1 0x4 ADD PUSH2 0x1CB0 SWAP1 PUSH2 0x4157 JUMP JUMPDEST PUSH1 0x40 MLOAD DUP1 SWAP2 SUB SWAP1 REVERT JUMPDEST PUSH2 0x1CC2 DUP2 PUSH2 0x1A6F JUMP JUMPDEST ISZERO PUSH2 0x1D02 JUMPI PUSH1 0x40 MLOAD PUSH32 0x8C379A000000000000000000000000000000000000000000000000000000000 DUP2 MSTORE PUSH1 0x4 ADD PUSH2 0x1CF9 SWAP1 PUSH2 0x4017 JUMP JUMPDEST PUSH1 0x40 MLOAD DUP1 SWAP2 SUB SWAP1 REVERT JUMPDEST PUSH2 0x1D0E PUSH1 0x0 DUP4 DUP4 PUSH2 0x2882 JUMP JUMPDEST PUSH1 0x1 PUSH1 0x3 PUSH1 0x0 DUP5 PUSH20 0xFFFFFFFFFFFFFFFFFFFFFFFFFFFFFFFFFFFFFFFF AND PUSH20 0xFFFFFFFFFFFFFFFFFFFFFFFFFFFFFFFFFFFFFFFF AND DUP2 MSTORE PUSH1 0x20 ADD SWAP1 DUP2 MSTORE PUSH1 0x20 ADD PUSH1 0x0 KECCAK256 PUSH1 0x0 DUP3 DUP3 SLOAD PUSH2 0x1D5E SWAP2 SWAP1 PUSH2 0x43DF JUMP JUMPDEST SWAP3 POP POP DUP2 SWAP1 SSTORE POP DUP2 PUSH1 0x2 PUSH1 0x0 DUP4 DUP2 MSTORE PUSH1 0x20 ADD SWAP1 DUP2 MSTORE PUSH1 0x20 ADD PUSH1 0x0 KECCAK256 PUSH1 0x0 PUSH2 0x100 EXP DUP2 SLOAD DUP2 PUSH20 0xFFFFFFFFFFFFFFFFFFFFFFFFFFFFFFFFFFFFFFFF MUL NOT AND SWAP1 DUP4 PUSH20 0xFFFFFFFFFFFFFFFFFFFFFFFFFFFFFFFFFFFFFFFF AND MUL OR SWAP1 SSTORE POP DUP1 DUP3 PUSH20 0xFFFFFFFFFFFFFFFFFFFFFFFFFFFFFFFFFFFFFFFF AND PUSH1 0x0 PUSH20 0xFFFFFFFFFFFFFFFFFFFFFFFFFFFFFFFFFFFFFFFF AND PUSH32 0xDDF252AD1BE2C89B69C2B068FC378DAA952BA7F163C4A11628F55A4DF523B3EF PUSH1 0x40 MLOAD PUSH1 0x40 MLOAD DUP1 SWAP2 SUB SWAP1 LOG4 POP POP JUMP JUMPDEST PUSH2 0x1E20 DUP3 PUSH2 0x1A6F JUMP JUMPDEST PUSH2 0x1E5F JUMPI PUSH1 0x40 MLOAD PUSH32 0x8C379A000000000000000000000000000000000000000000000000000000000 DUP2 MSTORE PUSH1 0x4 ADD PUSH2 0x1E56 SWAP1 PUSH2 0x4137 JUMP JUMPDEST PUSH1 0x40 MLOAD DUP1 SWAP2 SUB SWAP1 REVERT JUMPDEST DUP1 PUSH1 0x6 PUSH1 0x0 DUP5 DUP2 MSTORE PUSH1 0x20 ADD SWAP1 DUP2 MSTORE PUSH1 0x20 ADD PUSH1 0x0 KECCAK256 SWAP1 DUP1 MLOAD SWAP1 PUSH1 0x20 ADD SWAP1 PUSH2 0x1E86 SWAP3 SWAP2 SWAP1 PUSH2 0x2F42 JUMP JUMPDEST POP POP POP JUMP JUMPDEST PUSH1 0x0 PUSH2 0x1E96 DUP3 PUSH2 0x1A6F JUMP JUMPDEST PUSH2 0x1ED5 JUMPI PUSH1 0x40 MLOAD PUSH32 0x8C379A000000000000000000000000000000000000000000000000000000000 DUP2 MSTORE PUSH1 0x4 ADD PUSH2 0x1ECC SWAP1 PUSH2 0x40B7 JUMP JUMPDEST PUSH1 0x40 MLOAD DUP1 SWAP2 SUB SWAP1 REVERT JUMPDEST PUSH1 0x0 PUSH2 0x1EE0 DUP4 PUSH2 0x113F JUMP JUMPDEST SWAP1 POP DUP1 PUSH20 0xFFFFFFFFFFFFFFFFFFFFFFFFFFFFFFFFFFFFFFFF AND DUP5 PUSH20 0xFFFFFFFFFFFFFFFFFFFFFFFFFFFFFFFFFFFFFFFF AND EQ DUP1 PUSH2 0x1F4F JUMPI POP DUP4 PUSH20 0xFFFFFFFFFFFFFFFFFFFFFFFFFFFFFFFFFFFFFFFF AND PUSH2 0x1F37 DUP5 PUSH2 0x92B JUMP JUMPDEST PUSH20 0xFFFFFFFFFFFFFFFFFFFFFFFFFFFFFFFFFFFFFFFF AND EQ JUMPDEST DUP1 PUSH2 0x1F60 JUMPI POP PUSH2 0x1F5F DUP2 DUP6 PUSH2 0x194B JUMP JUMPDEST JUMPDEST SWAP2 POP POP SWAP3 SWAP2 POP POP JUMP JUMPDEST DUP3 PUSH20 0xFFFFFFFFFFFFFFFFFFFFFFFFFFFFFFFFFFFFFFFF AND PUSH2 0x1F89 DUP3 PUSH2 0x113F JUMP JUMPDEST PUSH20 0xFFFFFFFFFFFFFFFFFFFFFFFFFFFFFFFFFFFFFFFF AND EQ PUSH2 0x1FDF JUMPI PUSH1 0x40 MLOAD PUSH32 0x8C379A000000000000000000000000000000000000000000000000000000000 DUP2 MSTORE PUSH1 0x4 ADD PUSH2 0x1FD6 SWAP1 PUSH2 0x41B7 JUMP JUMPDEST PUSH1 0x40 MLOAD DUP1 SWAP2 SUB SWAP1 REVERT JUMPDEST PUSH1 0x0 PUSH20 0xFFFFFFFFFFFFFFFFFFFFFFFFFFFFFFFFFFFFFFFF AND DUP3 PUSH20 0xFFFFFFFFFFFFFFFFFFFFFFFFFFFFFFFFFFFFFFFF AND EQ ISZERO PUSH2 0x204F JUMPI PUSH1 0x40 MLOAD PUSH32 0x8C379A000000000000000000000000000000000000000000000000000000000 DUP2 MSTORE PUSH1 0x4 ADD PUSH2 0x2046 SWAP1 PUSH2 0x4037 JUMP JUMPDEST PUSH1 0x40 MLOAD DUP1 SWAP2 SUB SWAP1 REVERT JUMPDEST PUSH2 0x205A DUP4 DUP4 DUP4 PUSH2 0x2882 JUMP JUMPDEST PUSH2 0x2065 PUSH1 0x0 DUP3 PUSH2 0x1AE3 JUMP JUMPDEST PUSH1 0x1 PUSH1 0x3 PUSH1 0x0 DUP6 PUSH20 0xFFFFFFFFFFFFFFFFFFFFFFFFFFFFFFFFFFFFFFFF AND PUSH20 0xFFFFFFFFFFFFFFFFFFFFFFFFFFFFFFFFFFFFFFFF AND DUP2 MSTORE PUSH1 0x20 ADD SWAP1 DUP2 MSTORE PUSH1 0x20 ADD PUSH1 0x0 KECCAK256 PUSH1 0x0 DUP3 DUP3 SLOAD PUSH2 0x20B5 SWAP2 SWAP1 PUSH2 0x44C0 JUMP JUMPDEST SWAP3 POP POP DUP2 SWAP1 SSTORE POP PUSH1 0x1 PUSH1 0x3 PUSH1 0x0 DUP5 PUSH20 0xFFFFFFFFFFFFFFFFFFFFFFFFFFFFFFFFFFFFFFFF AND PUSH20 0xFFFFFFFFFFFFFFFFFFFFFFFFFFFFFFFFFFFFFFFF AND DUP2 MSTORE PUSH1 0x20 ADD SWAP1 DUP2 MSTORE PUSH1 0x20 ADD PUSH1 0x0 KECCAK256 PUSH1 0x0 DUP3 DUP3 SLOAD PUSH2 0x210C SWAP2 SWAP1 PUSH2 0x43DF JUMP JUMPDEST SWAP3 POP POP DUP2 SWAP1 SSTORE POP DUP2 PUSH1 0x2 PUSH1 0x0 DUP4 DUP2 MSTORE PUSH1 0x20 ADD SWAP1 DUP2 MSTORE PUSH1 0x20 ADD PUSH1 0x0 KECCAK256 PUSH1 0x0 PUSH2 0x100 EXP DUP2 SLOAD DUP2 PUSH20 0xFFFFFFFFFFFFFFFFFFFFFFFFFFFFFFFFFFFFFFFF MUL NOT AND SWAP1 DUP4 PUSH20 0xFFFFFFFFFFFFFFFFFFFFFFFFFFFFFFFFFFFFFFFF AND MUL OR SWAP1 SSTORE POP DUP1 DUP3 PUSH20 0xFFFFFFFFFFFFFFFFFFFFFFFFFFFFFFFFFFFFFFFF AND DUP5 PUSH20 0xFFFFFFFFFFFFFFFFFFFFFFFFFFFFFFFFFFFFFFFF AND PUSH32 0xDDF252AD1BE2C89B69C2B068FC378DAA952BA7F163C4A11628F55A4DF523B3EF PUSH1 0x40 MLOAD PUSH1 0x40 MLOAD DUP1 SWAP2 SUB SWAP1 LOG4 POP POP POP JUMP JUMPDEST DUP1 SELFBALANCE LT ISZERO PUSH2 0x2208 JUMPI PUSH1 0x40 MLOAD PUSH32 0x8C379A000000000000000000000000000000000000000000000000000000000 DUP2 MSTORE PUSH1 0x4 ADD PUSH2 0x21FF SWAP1 PUSH2 0x4097 JUMP JUMPDEST PUSH1 0x40 MLOAD DUP1 SWAP2 SUB SWAP1 REVERT JUMPDEST PUSH1 0x0 DUP3 PUSH20 0xFFFFFFFFFFFFFFFFFFFFFFFFFFFFFFFFFFFFFFFF AND DUP3 PUSH1 0x40 MLOAD PUSH2 0x222E SWAP1 PUSH2 0x3E3B JUMP JUMPDEST PUSH1 0x0 PUSH1 0x40 MLOAD DUP1 DUP4 SUB DUP2 DUP6 DUP8 GAS CALL SWAP3 POP POP POP RETURNDATASIZE DUP1 PUSH1 0x0 DUP2 EQ PUSH2 0x226B JUMPI PUSH1 0x40 MLOAD SWAP2 POP PUSH1 0x1F NOT PUSH1 0x3F RETURNDATASIZE ADD AND DUP3 ADD PUSH1 0x40 MSTORE RETURNDATASIZE DUP3 MSTORE RETURNDATASIZE PUSH1 0x0 PUSH1 0x20 DUP5 ADD RETURNDATACOPY PUSH2 0x2270 JUMP JUMPDEST PUSH1 0x60 SWAP2 POP JUMPDEST POP POP SWAP1 POP DUP1 PUSH2 0x22B4 JUMPI PUSH1 0x40 MLOAD PUSH32 0x8C379A000000000000000000000000000000000000000000000000000000000 DUP2 MSTORE PUSH1 0x4 ADD PUSH2 0x22AB SWAP1 PUSH2 0x4077 JUMP JUMPDEST PUSH1 0x40 MLOAD DUP1 SWAP2 SUB SWAP1 REVERT JUMPDEST POP POP POP JUMP JUMPDEST PUSH2 0x22C3 DUP3 DUP3 PUSH2 0x147F JUMP JUMPDEST PUSH2 0x2352 JUMPI PUSH2 0x22E8 DUP2 PUSH20 0xFFFFFFFFFFFFFFFFFFFFFFFFFFFFFFFFFFFFFFFF AND PUSH1 0x14 PUSH2 0x2887 JUMP JUMPDEST PUSH2 0x22F6 DUP4 PUSH1 0x0 SHR PUSH1 0x20 PUSH2 0x2887 JUMP JUMPDEST PUSH1 0x40 MLOAD PUSH1 0x20 ADD PUSH2 0x2307 SWAP3 SWAP2 SWAP1 PUSH2 0x3E50 JUMP JUMPDEST PUSH1 0x40 MLOAD PUSH1 0x20 DUP2 DUP4 SUB SUB DUP2 MSTORE SWAP1 PUSH1 0x40 MSTORE PUSH1 0x40 MLOAD PUSH32 0x8C379A000000000000000000000000000000000000000000000000000000000 DUP2 MSTORE PUSH1 0x4 ADD PUSH2 0x2349 SWAP2 SWAP1 PUSH2 0x3F95 JUMP JUMPDEST PUSH1 0x40 MLOAD DUP1 SWAP2 SUB SWAP1 REVERT JUMPDEST POP POP JUMP JUMPDEST PUSH2 0x2360 DUP3 DUP3 PUSH2 0x147F JUMP JUMPDEST PUSH2 0x2433 JUMPI PUSH1 0x1 PUSH1 0x7 PUSH1 0x0 DUP5 DUP2 MSTORE PUSH1 0x20 ADD SWAP1 DUP2 MSTORE PUSH1 0x20 ADD PUSH1 0x0 KECCAK256 PUSH1 0x0 ADD PUSH1 0x0 DUP4 PUSH20 0xFFFFFFFFFFFFFFFFFFFFFFFFFFFFFFFFFFFFFFFF AND PUSH20 0xFFFFFFFFFFFFFFFFFFFFFFFFFFFFFFFFFFFFFFFF AND DUP2 MSTORE PUSH1 0x20 ADD SWAP1 DUP2 MSTORE PUSH1 0x20 ADD PUSH1 0x0 KECCAK256 PUSH1 0x0 PUSH2 0x100 EXP DUP2 SLOAD DUP2 PUSH1 0xFF MUL NOT AND SWAP1 DUP4 ISZERO ISZERO MUL OR SWAP1 SSTORE POP PUSH2 0x23D8 PUSH2 0x1ADB JUMP JUMPDEST PUSH20 0xFFFFFFFFFFFFFFFFFFFFFFFFFFFFFFFFFFFFFFFF AND DUP2 PUSH20 0xFFFFFFFFFFFFFFFFFFFFFFFFFFFFFFFFFFFFFFFF AND DUP4 PUSH32 0x2F8788117E7EFF1D82E926EC794901D17C78024A50270940304540A733656F0D PUSH1 0x40 MLOAD PUSH1 0x40 MLOAD DUP1 SWAP2 SUB SWAP1 LOG4 JUMPDEST POP POP JUMP JUMPDEST PUSH2 0x2441 DUP3 DUP3 PUSH2 0x147F JUMP JUMPDEST ISZERO PUSH2 0x2515 JUMPI PUSH1 0x0 PUSH1 0x7 PUSH1 0x0 DUP5 DUP2 MSTORE PUSH1 0x20 ADD SWAP1 DUP2 MSTORE PUSH1 0x20 ADD PUSH1 0x0 KECCAK256 PUSH1 0x0 ADD PUSH1 0x0 DUP4 PUSH20 0xFFFFFFFFFFFFFFFFFFFFFFFFFFFFFFFFFFFFFFFF AND PUSH20 0xFFFFFFFFFFFFFFFFFFFFFFFFFFFFFFFFFFFFFFFF AND DUP2 MSTORE PUSH1 0x20 ADD SWAP1 DUP2 MSTORE PUSH1 0x20 ADD PUSH1 0x0 KECCAK256 PUSH1 0x0 PUSH2 0x100 EXP DUP2 SLOAD DUP2 PUSH1 0xFF MUL NOT AND SWAP1 DUP4 ISZERO ISZERO MUL OR SWAP1 SSTORE POP PUSH2 0x24BA PUSH2 0x1ADB JUMP JUMPDEST PUSH20 0xFFFFFFFFFFFFFFFFFFFFFFFFFFFFFFFFFFFFFFFF AND DUP2 PUSH20 0xFFFFFFFFFFFFFFFFFFFFFFFFFFFFFFFFFFFFFFFF AND DUP4 PUSH32 0xF6391F5C32D9C69D2A47EA670B442974B53935D1EDC7FD64EB21E047A839171B PUSH1 0x40 MLOAD PUSH1 0x40 MLOAD DUP1 SWAP2 SUB SWAP1 LOG4 JUMPDEST POP POP JUMP JUMPDEST DUP2 PUSH20 0xFFFFFFFFFFFFFFFFFFFFFFFFFFFFFFFFFFFFFFFF AND DUP4 PUSH20 0xFFFFFFFFFFFFFFFFFFFFFFFFFFFFFFFFFFFFFFFF AND EQ ISZERO PUSH2 0x2588 JUMPI PUSH1 0x40 MLOAD PUSH32 0x8C379A000000000000000000000000000000000000000000000000000000000 DUP2 MSTORE PUSH1 0x4 ADD PUSH2 0x257F SWAP1 PUSH2 0x4057 JUMP JUMPDEST PUSH1 0x40 MLOAD DUP1 SWAP2 SUB SWAP1 REVERT JUMPDEST DUP1 PUSH1 0x5 PUSH1 0x0 DUP6 PUSH20 0xFFFFFFFFFFFFFFFFFFFFFFFFFFFFFFFFFFFFFFFF AND PUSH20 0xFFFFFFFFFFFFFFFFFFFFFFFFFFFFFFFFFFFFFFFF AND DUP2 MSTORE PUSH1 0x20 ADD SWAP1 DUP2 MSTORE PUSH1 0x20 ADD PUSH1 0x0 KECCAK256 PUSH1 0x0 DUP5 PUSH20 0xFFFFFFFFFFFFFFFFFFFFFFFFFFFFFFFFFFFFFFFF AND PUSH20 0xFFFFFFFFFFFFFFFFFFFFFFFFFFFFFFFFFFFFFFFF AND DUP2 MSTORE PUSH1 0x20 ADD SWAP1 DUP2 MSTORE PUSH1 0x20 ADD PUSH1 0x0 KECCAK256 PUSH1 0x0 PUSH2 0x100 EXP DUP2 SLOAD DUP2 PUSH1 0xFF MUL NOT AND SWAP1 DUP4 ISZERO ISZERO MUL OR SWAP1 SSTORE POP DUP2 PUSH20 0xFFFFFFFFFFFFFFFFFFFFFFFFFFFFFFFFFFFFFFFF AND DUP4 PUSH20 0xFFFFFFFFFFFFFFFFFFFFFFFFFFFFFFFFFFFFFFFF AND PUSH32 0x17307EAB39AB6107E8899845AD3D59BD9653F200F220920489CA2B5937696C31 DUP4 PUSH1 0x40 MLOAD PUSH2 0x2679 SWAP2 SWAP1 PUSH2 0x3F44 JUMP JUMPDEST PUSH1 0x40 MLOAD DUP1 SWAP2 SUB SWAP1 LOG3 POP POP POP JUMP JUMPDEST PUSH2 0x2691 DUP5 DUP5 DUP5 PUSH2 0x1F69 JUMP JUMPDEST PUSH2 0x269D DUP5 DUP5 DUP5 DUP5 PUSH2 0x2B81 JUMP JUMPDEST PUSH2 0x26DC JUMPI PUSH1 0x40 MLOAD PUSH32 0x8C379A000000000000000000000000000000000000000000000000000000000 DUP2 MSTORE PUSH1 0x4 ADD PUSH2 0x26D3 SWAP1 PUSH2 0x3FD7 JUMP JUMPDEST PUSH1 0x40 MLOAD DUP1 SWAP2 SUB SWAP1 REVERT JUMPDEST POP POP POP POP JUMP JUMPDEST PUSH1 0x60 PUSH1 0x40 MLOAD DUP1 PUSH1 0x20 ADD PUSH1 0x40 MSTORE DUP1 PUSH1 0x0 DUP2 MSTORE POP SWAP1 POP SWAP1 JUMP JUMPDEST PUSH1 0x60 PUSH2 0x2704 DUP3 PUSH2 0x1A6F JUMP JUMPDEST PUSH2 0x2743 JUMPI PUSH1 0x40 MLOAD PUSH32 0x8C379A000000000000000000000000000000000000000000000000000000000 DUP2 MSTORE PUSH1 0x4 ADD PUSH2 0x273A SWAP1 PUSH2 0x41D7 JUMP JUMPDEST PUSH1 0x40 MLOAD DUP1 SWAP2 SUB SWAP1 REVERT JUMPDEST PUSH1 0x0 PUSH2 0x274D PUSH2 0x26E2 JUMP JUMPDEST SWAP1 POP PUSH1 0x0 DUP2 MLOAD GT PUSH2 0x276D JUMPI PUSH1 0x40 MLOAD DUP1 PUSH1 0x20 ADD PUSH1 0x40 MSTORE DUP1 PUSH1 0x0 DUP2 MSTORE POP PUSH2 0x2798 JUMP JUMPDEST DUP1 PUSH2 0x2777 DUP5 PUSH2 0x2D18 JUMP JUMPDEST PUSH1 0x40 MLOAD PUSH1 0x20 ADD PUSH2 0x2788 SWAP3 SWAP2 SWAP1 PUSH2 0x3E17 JUMP JUMPDEST PUSH1 0x40 MLOAD PUSH1 0x20 DUP2 DUP4 SUB SUB DUP2 MSTORE SWAP1 PUSH1 0x40 MSTORE JUMPDEST SWAP2 POP POP SWAP2 SWAP1 POP JUMP JUMPDEST PUSH1 0x0 PUSH32 0x80AC58CD00000000000000000000000000000000000000000000000000000000 PUSH28 0xFFFFFFFFFFFFFFFFFFFFFFFFFFFFFFFFFFFFFFFFFFFFFFFFFFFFFFFF NOT AND DUP3 PUSH28 0xFFFFFFFFFFFFFFFFFFFFFFFFFFFFFFFFFFFFFFFFFFFFFFFFFFFFFFFF NOT AND EQ DUP1 PUSH2 0x286B JUMPI POP PUSH32 0x5B5E139F00000000000000000000000000000000000000000000000000000000 PUSH28 0xFFFFFFFFFFFFFFFFFFFFFFFFFFFFFFFFFFFFFFFFFFFFFFFFFFFFFFFF NOT AND DUP3 PUSH28 0xFFFFFFFFFFFFFFFFFFFFFFFFFFFFFFFFFFFFFFFFFFFFFFFFFFFFFFFF NOT AND EQ JUMPDEST DUP1 PUSH2 0x287B JUMPI POP PUSH2 0x287A DUP3 PUSH2 0x2EC5 JUMP JUMPDEST JUMPDEST SWAP1 POP SWAP2 SWAP1 POP JUMP JUMPDEST POP POP POP JUMP JUMPDEST PUSH1 0x60 PUSH1 0x0 PUSH1 0x2 DUP4 PUSH1 0x2 PUSH2 0x289A SWAP2 SWAP1 PUSH2 0x4466 JUMP JUMPDEST PUSH2 0x28A4 SWAP2 SWAP1 PUSH2 0x43DF JUMP JUMPDEST PUSH8 0xFFFFFFFFFFFFFFFF DUP2 GT ISZERO PUSH2 0x28E3 JUMPI PUSH32 0x4E487B7100000000000000000000000000000000000000000000000000000000 PUSH1 0x0 MSTORE PUSH1 0x41 PUSH1 0x4 MSTORE PUSH1 0x24 PUSH1 0x0 REVERT JUMPDEST PUSH1 0x40 MLOAD SWAP1 DUP1 DUP3 MSTORE DUP1 PUSH1 0x1F ADD PUSH1 0x1F NOT AND PUSH1 0x20 ADD DUP3 ADD PUSH1 0x40 MSTORE DUP1 ISZERO PUSH2 0x2915 JUMPI DUP2 PUSH1 0x20 ADD PUSH1 0x1 DUP3 MUL DUP1 CALLDATASIZE DUP4 CALLDATACOPY DUP1 DUP3 ADD SWAP2 POP POP SWAP1 POP JUMPDEST POP SWAP1 POP PUSH32 0x3000000000000000000000000000000000000000000000000000000000000000 DUP2 PUSH1 0x0 DUP2 MLOAD DUP2 LT PUSH2 0x2973 JUMPI PUSH32 0x4E487B7100000000000000000000000000000000000000000000000000000000 PUSH1 0x0 MSTORE PUSH1 0x32 PUSH1 0x4 MSTORE PUSH1 0x24 PUSH1 0x0 REVERT JUMPDEST PUSH1 0x20 ADD ADD SWAP1 PUSH31 0xFFFFFFFFFFFFFFFFFFFFFFFFFFFFFFFFFFFFFFFFFFFFFFFFFFFFFFFFFFFFFF NOT AND SWAP1 DUP2 PUSH1 0x0 BYTE SWAP1 MSTORE8 POP PUSH32 0x7800000000000000000000000000000000000000000000000000000000000000 DUP2 PUSH1 0x1 DUP2 MLOAD DUP2 LT PUSH2 0x29FD JUMPI PUSH32 0x4E487B7100000000000000000000000000000000000000000000000000000000 PUSH1 0x0 MSTORE PUSH1 0x32 PUSH1 0x4 MSTORE PUSH1 0x24 PUSH1 0x0 REVERT JUMPDEST PUSH1 0x20 ADD ADD SWAP1 PUSH31 0xFFFFFFFFFFFFFFFFFFFFFFFFFFFFFFFFFFFFFFFFFFFFFFFFFFFFFFFFFFFFFF NOT AND SWAP1 DUP2 PUSH1 0x0 BYTE SWAP1 MSTORE8 POP PUSH1 0x0 PUSH1 0x1 DUP5 PUSH1 0x2 PUSH2 0x2A3D SWAP2 SWAP1 PUSH2 0x4466 JUMP JUMPDEST PUSH2 0x2A47 SWAP2 SWAP1 PUSH2 0x43DF JUMP JUMPDEST SWAP1 POP JUMPDEST PUSH1 0x1 DUP2 GT ISZERO PUSH2 0x2B33 JUMPI PUSH32 0x3031323334353637383961626364656600000000000000000000000000000000 PUSH1 0xF DUP7 AND PUSH1 0x10 DUP2 LT PUSH2 0x2AAF JUMPI PUSH32 0x4E487B7100000000000000000000000000000000000000000000000000000000 PUSH1 0x0 MSTORE PUSH1 0x32 PUSH1 0x4 MSTORE PUSH1 0x24 PUSH1 0x0 REVERT JUMPDEST BYTE PUSH1 0xF8 SHL DUP3 DUP3 DUP2 MLOAD DUP2 LT PUSH2 0x2AEC JUMPI PUSH32 0x4E487B7100000000000000000000000000000000000000000000000000000000 PUSH1 0x0 MSTORE PUSH1 0x32 PUSH1 0x4 MSTORE PUSH1 0x24 PUSH1 0x0 REVERT JUMPDEST PUSH1 0x20 ADD ADD SWAP1 PUSH31 0xFFFFFFFFFFFFFFFFFFFFFFFFFFFFFFFFFFFFFFFFFFFFFFFFFFFFFFFFFFFFFF NOT AND SWAP1 DUP2 PUSH1 0x0 BYTE SWAP1 MSTORE8 POP PUSH1 0x4 DUP6 SWAP1 SHR SWAP5 POP DUP1 PUSH2 0x2B2C SWAP1 PUSH2 0x45F4 JUMP JUMPDEST SWAP1 POP PUSH2 0x2A4A JUMP JUMPDEST POP PUSH1 0x0 DUP5 EQ PUSH2 0x2B77 JUMPI PUSH1 0x40 MLOAD PUSH32 0x8C379A000000000000000000000000000000000000000000000000000000000 DUP2 MSTORE PUSH1 0x4 ADD PUSH2 0x2B6E SWAP1 PUSH2 0x3FB7 JUMP JUMPDEST PUSH1 0x40 MLOAD DUP1 SWAP2 SUB SWAP1 REVERT JUMPDEST DUP1 SWAP2 POP POP SWAP3 SWAP2 POP POP JUMP JUMPDEST PUSH1 0x0 PUSH2 0x2BA2 DUP5 PUSH20 0xFFFFFFFFFFFFFFFFFFFFFFFFFFFFFFFFFFFFFFFF AND PUSH2 0x2F2F JUMP JUMPDEST ISZERO PUSH2 0x2D0B JUMPI DUP4 PUSH20 0xFFFFFFFFFFFFFFFFFFFFFFFFFFFFFFFFFFFFFFFF AND PUSH4 0x150B7A02 PUSH2 0x2BCB PUSH2 0x1ADB JUMP JUMPDEST DUP8 DUP7 DUP7 PUSH1 0x40 MLOAD DUP6 PUSH4 0xFFFFFFFF AND PUSH1 0xE0 SHL DUP2 MSTORE PUSH1 0x4 ADD PUSH2 0x2BED SWAP5 SWAP4 SWAP3 SWAP2 SWAP1 PUSH2 0x3EF8 JUMP JUMPDEST PUSH1 0x20 PUSH1 0x40 MLOAD DUP1 DUP4 SUB DUP2 PUSH1 0x0 DUP8 DUP1 EXTCODESIZE ISZERO DUP1 ISZERO PUSH2 0x2C07 JUMPI PUSH1 0x0 DUP1 REVERT JUMPDEST POP GAS CALL SWAP3 POP POP POP DUP1 ISZERO PUSH2 0x2C38 JUMPI POP PUSH1 0x40 MLOAD RETURNDATASIZE PUSH1 0x1F NOT PUSH1 0x1F DUP3 ADD AND DUP3 ADD DUP1 PUSH1 0x40 MSTORE POP DUP2 ADD SWAP1 PUSH2 0x2C35 SWAP2 SWAP1 PUSH2 0x344E JUMP JUMPDEST PUSH1 0x1 JUMPDEST PUSH2 0x2CBB JUMPI RETURNDATASIZE DUP1 PUSH1 0x0 DUP2 EQ PUSH2 0x2C68 JUMPI PUSH1 0x40 MLOAD SWAP2 POP PUSH1 0x1F NOT PUSH1 0x3F RETURNDATASIZE ADD AND DUP3 ADD PUSH1 0x40 MSTORE RETURNDATASIZE DUP3 MSTORE RETURNDATASIZE PUSH1 0x0 PUSH1 0x20 DUP5 ADD RETURNDATACOPY PUSH2 0x2C6D JUMP JUMPDEST PUSH1 0x60 SWAP2 POP JUMPDEST POP PUSH1 0x0 DUP2 MLOAD EQ ISZERO PUSH2 0x2CB3 JUMPI PUSH1 0x40 MLOAD PUSH32 0x8C379A000000000000000000000000000000000000000000000000000000000 DUP2 MSTORE PUSH1 0x4 ADD PUSH2 0x2CAA SWAP1 PUSH2 0x3FD7 JUMP JUMPDEST PUSH1 0x40 MLOAD DUP1 SWAP2 SUB SWAP1 REVERT JUMPDEST DUP1 MLOAD DUP2 PUSH1 0x20 ADD REVERT JUMPDEST PUSH4 0x150B7A02 PUSH1 0xE0 SHL PUSH28 0xFFFFFFFFFFFFFFFFFFFFFFFFFFFFFFFFFFFFFFFFFFFFFFFFFFFFFFFF NOT AND DUP2 PUSH28 0xFFFFFFFFFFFFFFFFFFFFFFFFFFFFFFFFFFFFFFFFFFFFFFFFFFFFFFFF NOT AND EQ SWAP2 POP POP PUSH2 0x2D10 JUMP JUMPDEST PUSH1 0x1 SWAP1 POP JUMPDEST SWAP5 SWAP4 POP POP POP POP JUMP JUMPDEST PUSH1 0x60 PUSH1 0x0 DUP3 EQ ISZERO PUSH2 0x2D60 JUMPI PUSH1 0x40 MLOAD DUP1 PUSH1 0x40 ADD PUSH1 0x40 MSTORE DUP1 PUSH1 0x1 DUP2 MSTORE PUSH1 0x20 ADD PUSH32 0x3000000000000000000000000000000000000000000000000000000000000000 DUP2 MSTORE POP SWAP1 POP PUSH2 0x2EC0 JUMP JUMPDEST PUSH1 0x0 DUP3 SWAP1 POP PUSH1 0x0 JUMPDEST PUSH1 0x0 DUP3 EQ PUSH2 0x2D92 JUMPI DUP1 DUP1 PUSH2 0x2D7B SWAP1 PUSH2 0x4650 JUMP JUMPDEST SWAP2 POP POP PUSH1 0xA DUP3 PUSH2 0x2D8B SWAP2 SWAP1 PUSH2 0x4435 JUMP JUMPDEST SWAP2 POP PUSH2 0x2D68 JUMP JUMPDEST PUSH1 0x0 DUP2 PUSH8 0xFFFFFFFFFFFFFFFF DUP2 GT ISZERO PUSH2 0x2DD4 JUMPI PUSH32 0x4E487B7100000000000000000000000000000000000000000000000000000000 PUSH1 0x0 MSTORE PUSH1 0x41 PUSH1 0x4 MSTORE PUSH1 0x24 PUSH1 0x0 REVERT JUMPDEST PUSH1 0x40 MLOAD SWAP1 DUP1 DUP3 MSTORE DUP1 PUSH1 0x1F ADD PUSH1 0x1F NOT AND PUSH1 0x20 ADD DUP3 ADD PUSH1 0x40 MSTORE DUP1 ISZERO PUSH2 0x2E06 JUMPI DUP2 PUSH1 0x20 ADD PUSH1 0x1 DUP3 MUL DUP1 CALLDATASIZE DUP4 CALLDATACOPY DUP1 DUP3 ADD SWAP2 POP POP SWAP1 POP JUMPDEST POP SWAP1 POP JUMPDEST PUSH1 0x0 DUP6 EQ PUSH2 0x2EB9 JUMPI PUSH1 0x1 DUP3 PUSH2 0x2E1F SWAP2 SWAP1 PUSH2 0x44C0 JUMP JUMPDEST SWAP2 POP PUSH1 0xA DUP6 PUSH2 0x2E2E SWAP2 SWAP1 PUSH2 0x4699 JUMP JUMPDEST PUSH1 0x30 PUSH2 0x2E3A SWAP2 SWAP1 PUSH2 0x43DF JUMP JUMPDEST PUSH1 0xF8 SHL DUP2 DUP4 DUP2 MLOAD DUP2 LT PUSH2 0x2E76 JUMPI PUSH32 0x4E487B7100000000000000000000000000000000000000000000000000000000 PUSH1 0x0 MSTORE PUSH1 0x32 PUSH1 0x4 MSTORE PUSH1 0x24 PUSH1 0x0 REVERT JUMPDEST PUSH1 0x20 ADD ADD SWAP1 PUSH31 0xFFFFFFFFFFFFFFFFFFFFFFFFFFFFFFFFFFFFFFFFFFFFFFFFFFFFFFFFFFFFFF NOT AND SWAP1 DUP2 PUSH1 0x0 BYTE SWAP1 MSTORE8 POP PUSH1 0xA DUP6 PUSH2 0x2EB2 SWAP2 SWAP1 PUSH2 0x4435 JUMP JUMPDEST SWAP5 POP PUSH2 0x2E0A JUMP JUMPDEST DUP1 SWAP4 POP POP POP POP JUMPDEST SWAP2 SWAP1 POP JUMP JUMPDEST PUSH1 0x0 PUSH32 0x1FFC9A700000000000000000000000000000000000000000000000000000000 PUSH28 0xFFFFFFFFFFFFFFFFFFFFFFFFFFFFFFFFFFFFFFFFFFFFFFFFFFFFFFFF NOT AND DUP3 PUSH28 0xFFFFFFFFFFFFFFFFFFFFFFFFFFFFFFFFFFFFFFFFFFFFFFFFFFFFFFFF NOT AND EQ SWAP1 POP SWAP2 SWAP1 POP JUMP JUMPDEST PUSH1 0x0 DUP1 DUP3 EXTCODESIZE SWAP1 POP PUSH1 0x0 DUP2 GT SWAP2 POP POP SWAP2 SWAP1 POP JUMP JUMPDEST DUP3 DUP1 SLOAD PUSH2 0x2F4E SWAP1 PUSH2 0x461E JUMP JUMPDEST SWAP1 PUSH1 0x0 MSTORE PUSH1 0x20 PUSH1 0x0 KECCAK256 SWAP1 PUSH1 0x1F ADD PUSH1 0x20 SWAP1 DIV DUP2 ADD SWAP3 DUP3 PUSH2 0x2F70 JUMPI PUSH1 0x0 DUP6 SSTORE PUSH2 0x2FB7 JUMP JUMPDEST DUP3 PUSH1 0x1F LT PUSH2 0x2F89 JUMPI DUP1 MLOAD PUSH1 0xFF NOT AND DUP4 DUP1 ADD OR DUP6 SSTORE PUSH2 0x2FB7 JUMP JUMPDEST DUP3 DUP1 ADD PUSH1 0x1 ADD DUP6 SSTORE DUP3 ISZERO PUSH2 0x2FB7 JUMPI SWAP2 DUP3 ADD JUMPDEST DUP3 DUP2 GT ISZERO PUSH2 0x2FB6 JUMPI DUP3 MLOAD DUP3 SSTORE SWAP2 PUSH1 0x20 ADD SWAP2 SWAP1 PUSH1 0x1 ADD SWAP1 PUSH2 0x2F9B JUMP JUMPDEST JUMPDEST POP SWAP1 POP PUSH2 0x2FC4 SWAP2 SWAP1 PUSH2 0x2FC8 JUMP JUMPDEST POP SWAP1 JUMP JUMPDEST JUMPDEST DUP1 DUP3 GT ISZERO PUSH2 0x2FE1 JUMPI PUSH1 0x0 DUP2 PUSH1 0x0 SWAP1 SSTORE POP PUSH1 0x1 ADD PUSH2 0x2FC9 JUMP JUMPDEST POP SWAP1 JUMP JUMPDEST PUSH1 0x0 PUSH2 0x2FF8 PUSH2 0x2FF3 DUP5 PUSH2 0x4331 JUMP JUMPDEST PUSH2 0x4300 JUMP JUMPDEST SWAP1 POP DUP3 DUP2 MSTORE PUSH1 0x20 DUP2 ADD DUP5 DUP5 DUP5 ADD GT ISZERO PUSH2 0x3010 JUMPI PUSH1 0x0 DUP1 REVERT JUMPDEST PUSH2 0x301B DUP5 DUP3 DUP6 PUSH2 0x45B2 JUMP JUMPDEST POP SWAP4 SWAP3 POP POP POP JUMP JUMPDEST PUSH1 0x0 PUSH2 0x3036 PUSH2 0x3031 DUP5 PUSH2 0x4361 JUMP JUMPDEST PUSH2 0x4300 JUMP JUMPDEST SWAP1 POP DUP3 DUP2 MSTORE PUSH1 0x20 DUP2 ADD DUP5 DUP5 DUP5 ADD GT ISZERO PUSH2 0x304E JUMPI PUSH1 0x0 DUP1 REVERT JUMPDEST PUSH2 0x3059 DUP5 DUP3 DUP6 PUSH2 0x45B2 JUMP JUMPDEST POP SWAP4 SWAP3 POP POP POP JUMP JUMPDEST PUSH1 0x0 DUP2 CALLDATALOAD SWAP1 POP PUSH2 0x3070 DUP2 PUSH2 0x4797 JUMP JUMPDEST SWAP3 SWAP2 POP POP JUMP JUMPDEST PUSH1 0x0 DUP2 CALLDATALOAD SWAP1 POP PUSH2 0x3085 DUP2 PUSH2 0x47AE JUMP JUMPDEST SWAP3 SWAP2 POP POP JUMP JUMPDEST PUSH1 0x0 DUP2 CALLDATALOAD SWAP1 POP PUSH2 0x309A DUP2 PUSH2 0x47C5 JUMP JUMPDEST SWAP3 SWAP2 POP POP JUMP JUMPDEST PUSH1 0x0 DUP2 CALLDATALOAD SWAP1 POP PUSH2 0x30AF DUP2 PUSH2 0x47DC JUMP JUMPDEST SWAP3 SWAP2 POP POP JUMP JUMPDEST PUSH1 0x0 DUP2 MLOAD SWAP1 POP PUSH2 0x30C4 DUP2 PUSH2 0x47DC JUMP JUMPDEST SWAP3 SWAP2 POP POP JUMP JUMPDEST PUSH1 0x0 DUP3 PUSH1 0x1F DUP4 ADD SLT PUSH2 0x30DB JUMPI PUSH1 0x0 DUP1 REVERT JUMPDEST DUP2 CALLDATALOAD PUSH2 0x30EB DUP5 DUP3 PUSH1 0x20 DUP7 ADD PUSH2 0x2FE5 JUMP JUMPDEST SWAP2 POP POP SWAP3 SWAP2 POP POP JUMP JUMPDEST PUSH1 0x0 DUP2 CALLDATALOAD SWAP1 POP PUSH2 0x3103 DUP2 PUSH2 0x47F3 JUMP JUMPDEST SWAP3 SWAP2 POP POP JUMP JUMPDEST PUSH1 0x0 DUP3 PUSH1 0x1F DUP4 ADD SLT PUSH2 0x311A JUMPI PUSH1 0x0 DUP1 REVERT JUMPDEST DUP2 CALLDATALOAD PUSH2 0x312A DUP5 DUP3 PUSH1 0x20 DUP7 ADD PUSH2 0x3023 JUMP JUMPDEST SWAP2 POP POP SWAP3 SWAP2 POP POP JUMP JUMPDEST PUSH1 0x0 DUP2 CALLDATALOAD SWAP1 POP PUSH2 0x3142 DUP2 PUSH2 0x480A JUMP JUMPDEST SWAP3 SWAP2 POP POP JUMP JUMPDEST PUSH1 0x0 PUSH1 0x20 DUP3 DUP5 SUB SLT ISZERO PUSH2 0x315A JUMPI PUSH1 0x0 DUP1 REVERT JUMPDEST PUSH1 0x0 PUSH2 0x3168 DUP5 DUP3 DUP6 ADD PUSH2 0x3061 JUMP JUMPDEST SWAP2 POP POP SWAP3 SWAP2 POP POP JUMP JUMPDEST PUSH1 0x0 DUP1 PUSH1 0x40 DUP4 DUP6 SUB SLT ISZERO PUSH2 0x3184 JUMPI PUSH1 0x0 DUP1 REVERT JUMPDEST PUSH1 0x0 PUSH2 0x3192 DUP6 DUP3 DUP7 ADD PUSH2 0x3061 JUMP JUMPDEST SWAP3 POP POP PUSH1 0x20 PUSH2 0x31A3 DUP6 DUP3 DUP7 ADD PUSH2 0x3061 JUMP JUMPDEST SWAP2 POP POP SWAP3 POP SWAP3 SWAP1 POP JUMP JUMPDEST PUSH1 0x0 DUP1 PUSH1 0x0 PUSH1 0x60 DUP5 DUP7 SUB SLT ISZERO PUSH2 0x31C2 JUMPI PUSH1 0x0 DUP1 REVERT JUMPDEST PUSH1 0x0 PUSH2 0x31D0 DUP7 DUP3 DUP8 ADD PUSH2 0x3061 JUMP JUMPDEST SWAP4 POP POP PUSH1 0x20 PUSH2 0x31E1 DUP7 DUP3 DUP8 ADD PUSH2 0x3061 JUMP JUMPDEST SWAP3 POP POP PUSH1 0x40 PUSH2 0x31F2 DUP7 DUP3 DUP8 ADD PUSH2 0x3133 JUMP JUMPDEST SWAP2 POP POP SWAP3 POP SWAP3 POP SWAP3 JUMP JUMPDEST PUSH1 0x0 DUP1 PUSH1 0x0 DUP1 PUSH1 0x80 DUP6 DUP8 SUB SLT ISZERO PUSH2 0x3212 JUMPI PUSH1 0x0 DUP1 REVERT JUMPDEST PUSH1 0x0 PUSH2 0x3220 DUP8 DUP3 DUP9 ADD PUSH2 0x3061 JUMP JUMPDEST SWAP5 POP POP PUSH1 0x20 PUSH2 0x3231 DUP8 DUP3 DUP9 ADD PUSH2 0x3061 JUMP JUMPDEST SWAP4 POP POP PUSH1 0x40 PUSH2 0x3242 DUP8 DUP3 DUP9 ADD PUSH2 0x3133 JUMP JUMPDEST SWAP3 POP POP PUSH1 0x60 DUP6 ADD CALLDATALOAD PUSH8 0xFFFFFFFFFFFFFFFF DUP2 GT ISZERO PUSH2 0x325F JUMPI PUSH1 0x0 DUP1 REVERT JUMPDEST PUSH2 0x326B DUP8 DUP3 DUP9 ADD PUSH2 0x30CA JUMP JUMPDEST SWAP2 POP POP SWAP3 SWAP6 SWAP2 SWAP5 POP SWAP3 POP JUMP JUMPDEST PUSH1 0x0 DUP1 PUSH1 0x40 DUP4 DUP6 SUB SLT ISZERO PUSH2 0x328A JUMPI PUSH1 0x0 DUP1 REVERT JUMPDEST PUSH1 0x0 PUSH2 0x3298 DUP6 DUP3 DUP7 ADD PUSH2 0x3061 JUMP JUMPDEST SWAP3 POP POP PUSH1 0x20 PUSH2 0x32A9 DUP6 DUP3 DUP7 ADD PUSH2 0x3076 JUMP JUMPDEST SWAP2 POP POP SWAP3 POP SWAP3 SWAP1 POP JUMP JUMPDEST PUSH1 0x0 DUP1 PUSH1 0x0 DUP1 PUSH1 0x0 DUP1 PUSH1 0xC0 DUP8 DUP10 SUB SLT ISZERO PUSH2 0x32CC JUMPI PUSH1 0x0 DUP1 REVERT JUMPDEST PUSH1 0x0 PUSH2 0x32DA DUP10 DUP3 DUP11 ADD PUSH2 0x3061 JUMP JUMPDEST SWAP7 POP POP PUSH1 0x20 DUP8 ADD CALLDATALOAD PUSH8 0xFFFFFFFFFFFFFFFF DUP2 GT ISZERO PUSH2 0x32F7 JUMPI PUSH1 0x0 DUP1 REVERT JUMPDEST PUSH2 0x3303 DUP10 DUP3 DUP11 ADD PUSH2 0x3109 JUMP JUMPDEST SWAP6 POP POP PUSH1 0x40 PUSH2 0x3314 DUP10 DUP3 DUP11 ADD PUSH2 0x30F4 JUMP JUMPDEST SWAP5 POP POP PUSH1 0x60 DUP8 ADD CALLDATALOAD PUSH8 0xFFFFFFFFFFFFFFFF DUP2 GT ISZERO PUSH2 0x3331 JUMPI PUSH1 0x0 DUP1 REVERT JUMPDEST PUSH2 0x333D DUP10 DUP3 DUP11 ADD PUSH2 0x3109 JUMP JUMPDEST SWAP4 POP POP PUSH1 0x80 DUP8 ADD CALLDATALOAD PUSH8 0xFFFFFFFFFFFFFFFF DUP2 GT ISZERO PUSH2 0x335A JUMPI PUSH1 0x0 DUP1 REVERT JUMPDEST PUSH2 0x3366 DUP10 DUP3 DUP11 ADD PUSH2 0x3109 JUMP JUMPDEST SWAP3 POP POP PUSH1 0xA0 PUSH2 0x3377 DUP10 DUP3 DUP11 ADD PUSH2 0x3133 JUMP JUMPDEST SWAP2 POP POP SWAP3 SWAP6 POP SWAP3 SWAP6 POP SWAP3 SWAP6 JUMP JUMPDEST PUSH1 0x0 DUP1 PUSH1 0x40 DUP4 DUP6 SUB SLT ISZERO PUSH2 0x3397 JUMPI PUSH1 0x0 DUP1 REVERT JUMPDEST PUSH1 0x0 PUSH2 0x33A5 DUP6 DUP3 DUP7 ADD PUSH2 0x3061 JUMP JUMPDEST SWAP3 POP POP PUSH1 0x20 PUSH2 0x33B6 DUP6 DUP3 DUP7 ADD PUSH2 0x3133 JUMP JUMPDEST SWAP2 POP POP SWAP3 POP SWAP3 SWAP1 POP JUMP JUMPDEST PUSH1 0x0 PUSH1 0x20 DUP3 DUP5 SUB SLT ISZERO PUSH2 0x33D2 JUMPI PUSH1 0x0 DUP1 REVERT JUMPDEST PUSH1 0x0 PUSH2 0x33E0 DUP5 DUP3 DUP6 ADD PUSH2 0x308B JUMP JUMPDEST SWAP2 POP POP SWAP3 SWAP2 POP POP JUMP JUMPDEST PUSH1 0x0 DUP1 PUSH1 0x40 DUP4 DUP6 SUB SLT ISZERO PUSH2 0x33FC JUMPI PUSH1 0x0 DUP1 REVERT JUMPDEST PUSH1 0x0 PUSH2 0x340A DUP6 DUP3 DUP7 ADD PUSH2 0x308B JUMP JUMPDEST SWAP3 POP POP PUSH1 0x20 PUSH2 0x341B DUP6 DUP3 DUP7 ADD PUSH2 0x3061 JUMP JUMPDEST SWAP2 POP POP SWAP3 POP SWAP3 SWAP1 POP JUMP JUMPDEST PUSH1 0x0 PUSH1 0x20 DUP3 DUP5 SUB SLT ISZERO PUSH2 0x3437 JUMPI PUSH1 0x0 DUP1 REVERT JUMPDEST PUSH1 0x0 PUSH2 0x3445 DUP5 DUP3 DUP6 ADD PUSH2 0x30A0 JUMP JUMPDEST SWAP2 POP POP SWAP3 SWAP2 POP POP JUMP JUMPDEST PUSH1 0x0 PUSH1 0x20 DUP3 DUP5 SUB SLT ISZERO PUSH2 0x3460 JUMPI PUSH1 0x0 DUP1 REVERT JUMPDEST PUSH1 0x0 PUSH2 0x346E DUP5 DUP3 DUP6 ADD PUSH2 0x30B5 JUMP JUMPDEST SWAP2 POP POP SWAP3 SWAP2 POP POP JUMP JUMPDEST PUSH1 0x0 PUSH1 0x20 DUP3 DUP5 SUB SLT ISZERO PUSH2 0x3489 JUMPI PUSH1 0x0 DUP1 REVERT JUMPDEST PUSH1 0x0 PUSH2 0x3497 DUP5 DUP3 DUP6 ADD PUSH2 0x3133 JUMP JUMPDEST SWAP2 POP POP SWAP3 SWAP2 POP POP JUMP JUMPDEST PUSH2 0x34A9 DUP2 PUSH2 0x457C JUMP JUMPDEST DUP3 MSTORE POP POP JUMP JUMPDEST PUSH2 0x34B8 DUP2 PUSH2 0x44F4 JUMP JUMPDEST DUP3 MSTORE POP POP JUMP JUMPDEST PUSH2 0x34C7 DUP2 PUSH2 0x4506 JUMP JUMPDEST DUP3 MSTORE POP POP JUMP JUMPDEST PUSH2 0x34D6 DUP2 PUSH2 0x4512 JUMP JUMPDEST DUP3 MSTORE POP POP JUMP JUMPDEST PUSH1 0x0 PUSH2 0x34E7 DUP3 PUSH2 0x4391 JUMP JUMPDEST PUSH2 0x34F1 DUP2 DUP6 PUSH2 0x43A7 JUMP JUMPDEST SWAP4 POP PUSH2 0x3501 DUP2 DUP6 PUSH1 0x20 DUP7 ADD PUSH2 0x45C1 JUMP JUMPDEST PUSH2 0x350A DUP2 PUSH2 0x4786 JUMP JUMPDEST DUP5 ADD SWAP2 POP POP SWAP3 SWAP2 POP POP JUMP JUMPDEST PUSH2 0x351E DUP2 PUSH2 0x4548 JUMP JUMPDEST DUP3 MSTORE POP POP JUMP JUMPDEST PUSH1 0x0 PUSH2 0x352F DUP3 PUSH2 0x439C JUMP JUMPDEST PUSH2 0x3539 DUP2 DUP6 PUSH2 0x43C3 JUMP JUMPDEST SWAP4 POP PUSH2 0x3549 DUP2 DUP6 PUSH1 0x20 DUP7 ADD PUSH2 0x45C1 JUMP JUMPDEST PUSH2 0x3552 DUP2 PUSH2 0x4786 JUMP JUMPDEST DUP5 ADD SWAP2 POP POP SWAP3 SWAP2 POP POP JUMP JUMPDEST PUSH1 0x0 PUSH2 0x3568 DUP3 PUSH2 0x439C JUMP JUMPDEST PUSH2 0x3572 DUP2 DUP6 PUSH2 0x43D4 JUMP JUMPDEST SWAP4 POP PUSH2 0x3582 DUP2 DUP6 PUSH1 0x20 DUP7 ADD PUSH2 0x45C1 JUMP JUMPDEST DUP1 DUP5 ADD SWAP2 POP POP SWAP3 SWAP2 POP POP JUMP JUMPDEST PUSH1 0x0 PUSH2 0x359B PUSH1 0x20 DUP4 PUSH2 0x43C3 JUMP JUMPDEST SWAP2 POP PUSH32 0x537472696E67733A20686578206C656E67746820696E73756666696369656E74 PUSH1 0x0 DUP4 ADD MSTORE PUSH1 0x20 DUP3 ADD SWAP1 POP SWAP2 SWAP1 POP JUMP JUMPDEST PUSH1 0x0 PUSH2 0x35DB PUSH1 0x32 DUP4 PUSH2 0x43C3 JUMP JUMPDEST SWAP2 POP PUSH32 0x4552433732313A207472616E7366657220746F206E6F6E204552433732315265 PUSH1 0x0 DUP4 ADD MSTORE PUSH32 0x63656976657220696D706C656D656E7465720000000000000000000000000000 PUSH1 0x20 DUP4 ADD MSTORE PUSH1 0x40 DUP3 ADD SWAP1 POP SWAP2 SWAP1 POP JUMP JUMPDEST PUSH1 0x0 PUSH2 0x3641 PUSH1 0x1F DUP4 PUSH2 0x43C3 JUMP JUMPDEST SWAP2 POP PUSH32 0x43616C6C6572206973206E6F7420616E2061646D696E206163636F756E742100 PUSH1 0x0 DUP4 ADD MSTORE PUSH1 0x20 DUP3 ADD SWAP1 POP SWAP2 SWAP1 POP JUMP JUMPDEST PUSH1 0x0 PUSH2 0x3681 PUSH1 0x1C DUP4 PUSH2 0x43C3 JUMP JUMPDEST SWAP2 POP PUSH32 0x4552433732313A20746F6B656E20616C7265616479206D696E74656400000000 PUSH1 0x0 DUP4 ADD MSTORE PUSH1 0x20 DUP3 ADD SWAP1 POP SWAP2 SWAP1 POP JUMP JUMPDEST PUSH1 0x0 PUSH2 0x36C1 PUSH1 0x24 DUP4 PUSH2 0x43C3 JUMP JUMPDEST SWAP2 POP PUSH32 0x4552433732313A207472616E7366657220746F20746865207A65726F20616464 PUSH1 0x0 DUP4 ADD MSTORE PUSH32 0x7265737300000000000000000000000000000000000000000000000000000000 PUSH1 0x20 DUP4 ADD MSTORE PUSH1 0x40 DUP3 ADD SWAP1 POP SWAP2 SWAP1 POP JUMP JUMPDEST PUSH1 0x0 PUSH2 0x3727 PUSH1 0x19 DUP4 PUSH2 0x43C3 JUMP JUMPDEST SWAP2 POP PUSH32 0x4552433732313A20617070726F766520746F2063616C6C657200000000000000 PUSH1 0x0 DUP4 ADD MSTORE PUSH1 0x20 DUP3 ADD SWAP1 POP SWAP2 SWAP1 POP JUMP JUMPDEST PUSH1 0x0 PUSH2 0x3767 PUSH1 0x3A DUP4 PUSH2 0x43C3 JUMP JUMPDEST SWAP2 POP PUSH32 0x416464726573733A20756E61626C6520746F2073656E642076616C75652C2072 PUSH1 0x0 DUP4 ADD MSTORE PUSH32 0x6563697069656E74206D61792068617665207265766572746564000000000000 PUSH1 0x20 DUP4 ADD MSTORE PUSH1 0x40 DUP3 ADD SWAP1 POP SWAP2 SWAP1 POP JUMP JUMPDEST PUSH1 0x0 PUSH2 0x37CD PUSH1 0x1D DUP4 PUSH2 0x43C3 JUMP JUMPDEST SWAP2 POP PUSH32 0x416464726573733A20696E73756666696369656E742062616C616E6365000000 PUSH1 0x0 DUP4 ADD MSTORE PUSH1 0x20 DUP3 ADD SWAP1 POP SWAP2 SWAP1 POP JUMP JUMPDEST PUSH1 0x0 PUSH2 0x380D PUSH1 0x2C DUP4 PUSH2 0x43C3 JUMP JUMPDEST SWAP2 POP PUSH32 0x4552433732313A206F70657261746F7220717565727920666F72206E6F6E6578 PUSH1 0x0 DUP4 ADD MSTORE PUSH32 0x697374656E7420746F6B656E0000000000000000000000000000000000000000 PUSH1 0x20 DUP4 ADD MSTORE PUSH1 0x40 DUP3 ADD SWAP1 POP SWAP2 SWAP1 POP JUMP JUMPDEST PUSH1 0x0 PUSH2 0x3873 PUSH1 0x38 DUP4 PUSH2 0x43C3 JUMP JUMPDEST SWAP2 POP PUSH32 0x4552433732313A20617070726F76652063616C6C6572206973206E6F74206F77 PUSH1 0x0 DUP4 ADD MSTORE PUSH32 0x6E6572206E6F7220617070726F76656420666F7220616C6C0000000000000000 PUSH1 0x20 DUP4 ADD MSTORE PUSH1 0x40 DUP3 ADD SWAP1 POP SWAP2 SWAP1 POP JUMP JUMPDEST PUSH1 0x0 PUSH2 0x38D9 PUSH1 0x2A DUP4 PUSH2 0x43C3 JUMP JUMPDEST SWAP2 POP PUSH32 0x4552433732313A2062616C616E636520717565727920666F7220746865207A65 PUSH1 0x0 DUP4 ADD MSTORE PUSH32 0x726F206164647265737300000000000000000000000000000000000000000000 PUSH1 0x20 DUP4 ADD MSTORE PUSH1 0x40 DUP3 ADD SWAP1 POP SWAP2 SWAP1 POP JUMP JUMPDEST PUSH1 0x0 PUSH2 0x393F PUSH1 0x29 DUP4 PUSH2 0x43C3 JUMP JUMPDEST SWAP2 POP PUSH32 0x4552433732313A206F776E657220717565727920666F72206E6F6E6578697374 PUSH1 0x0 DUP4 ADD MSTORE PUSH32 0x656E7420746F6B656E0000000000000000000000000000000000000000000000 PUSH1 0x20 DUP4 ADD MSTORE PUSH1 0x40 DUP3 ADD SWAP1 POP SWAP2 SWAP1 POP JUMP JUMPDEST PUSH1 0x0 PUSH2 0x39A5 PUSH1 0x2E DUP4 PUSH2 0x43C3 JUMP JUMPDEST SWAP2 POP PUSH32 0x45524337323155524953746F726167653A2055524920736574206F66206E6F6E PUSH1 0x0 DUP4 ADD MSTORE PUSH32 0x6578697374656E7420746F6B656E000000000000000000000000000000000000 PUSH1 0x20 DUP4 ADD MSTORE PUSH1 0x40 DUP3 ADD SWAP1 POP SWAP2 SWAP1 POP JUMP JUMPDEST PUSH1 0x0 PUSH2 0x3A0B PUSH1 0x20 DUP4 PUSH2 0x43C3 JUMP JUMPDEST SWAP2 POP PUSH32 0x4552433732313A206D696E7420746F20746865207A65726F2061646472657373 PUSH1 0x0 DUP4 ADD MSTORE PUSH1 0x20 DUP3 ADD SWAP1 POP SWAP2 SWAP1 POP JUMP JUMPDEST PUSH1 0x0 PUSH2 0x3A4B PUSH1 0x31 DUP4 PUSH2 0x43C3 JUMP JUMPDEST SWAP2 POP PUSH32 0x45524337323155524953746F726167653A2055524920717565727920666F7220 PUSH1 0x0 DUP4 ADD MSTORE PUSH32 0x6E6F6E6578697374656E7420746F6B656E000000000000000000000000000000 PUSH1 0x20 DUP4 ADD MSTORE PUSH1 0x40 DUP3 ADD SWAP1 POP SWAP2 SWAP1 POP JUMP JUMPDEST PUSH1 0x0 PUSH2 0x3AB1 PUSH1 0x2C DUP4 PUSH2 0x43C3 JUMP JUMPDEST SWAP2 POP PUSH32 0x4552433732313A20617070726F76656420717565727920666F72206E6F6E6578 PUSH1 0x0 DUP4 ADD MSTORE PUSH32 0x697374656E7420746F6B656E0000000000000000000000000000000000000000 PUSH1 0x20 DUP4 ADD MSTORE PUSH1 0x40 DUP3 ADD SWAP1 POP SWAP2 SWAP1 POP JUMP JUMPDEST PUSH1 0x0 PUSH2 0x3B17 PUSH1 0x29 DUP4 PUSH2 0x43C3 JUMP JUMPDEST SWAP2 POP PUSH32 0x4552433732313A207472616E73666572206F6620746F6B656E20746861742069 PUSH1 0x0 DUP4 ADD MSTORE PUSH32 0x73206E6F74206F776E0000000000000000000000000000000000000000000000 PUSH1 0x20 DUP4 ADD MSTORE PUSH1 0x40 DUP3 ADD SWAP1 POP SWAP2 SWAP1 POP JUMP JUMPDEST PUSH1 0x0 PUSH2 0x3B7D PUSH1 0x2F DUP4 PUSH2 0x43C3 JUMP JUMPDEST SWAP2 POP PUSH32 0x4552433732314D657461646174613A2055524920717565727920666F72206E6F PUSH1 0x0 DUP4 ADD MSTORE PUSH32 0x6E6578697374656E7420746F6B656E0000000000000000000000000000000000 PUSH1 0x20 DUP4 ADD MSTORE PUSH1 0x40 DUP3 ADD SWAP1 POP SWAP2 SWAP1 POP JUMP JUMPDEST PUSH1 0x0 PUSH2 0x3BE3 PUSH1 0x21 DUP4 PUSH2 0x43C3 JUMP JUMPDEST SWAP2 POP PUSH32 0x4552433732313A20617070726F76616C20746F2063757272656E74206F776E65 PUSH1 0x0 DUP4 ADD MSTORE PUSH32 0x7200000000000000000000000000000000000000000000000000000000000000 PUSH1 0x20 DUP4 ADD MSTORE PUSH1 0x40 DUP3 ADD SWAP1 POP SWAP2 SWAP1 POP JUMP JUMPDEST PUSH1 0x0 PUSH2 0x3C49 PUSH1 0x0 DUP4 PUSH2 0x43B8 JUMP JUMPDEST SWAP2 POP PUSH1 0x0 DUP3 ADD SWAP1 POP SWAP2 SWAP1 POP JUMP JUMPDEST PUSH1 0x0 PUSH2 0x3C63 PUSH1 0x25 DUP4 PUSH2 0x43C3 JUMP JUMPDEST SWAP2 POP PUSH32 0x43616C6C6572206973206E6F7420612075736167652073657474657220616363 PUSH1 0x0 DUP4 ADD MSTORE PUSH32 0x6F756E7421000000000000000000000000000000000000000000000000000000 PUSH1 0x20 DUP4 ADD MSTORE PUSH1 0x40 DUP3 ADD SWAP1 POP SWAP2 SWAP1 POP JUMP JUMPDEST PUSH1 0x0 PUSH2 0x3CC9 PUSH1 0x31 DUP4 PUSH2 0x43C3 JUMP JUMPDEST SWAP2 POP PUSH32 0x4552433732313A207472616E736665722063616C6C6572206973206E6F74206F PUSH1 0x0 DUP4 ADD MSTORE PUSH32 0x776E6572206E6F7220617070726F766564000000000000000000000000000000 PUSH1 0x20 DUP4 ADD MSTORE PUSH1 0x40 DUP3 ADD SWAP1 POP SWAP2 SWAP1 POP JUMP JUMPDEST PUSH1 0x0 PUSH2 0x3D2F PUSH1 0x17 DUP4 PUSH2 0x43D4 JUMP JUMPDEST SWAP2 POP PUSH32 0x416363657373436F6E74726F6C3A206163636F756E7420000000000000000000 PUSH1 0x0 DUP4 ADD MSTORE PUSH1 0x17 DUP3 ADD SWAP1 POP SWAP2 SWAP1 POP JUMP JUMPDEST PUSH1 0x0 PUSH2 0x3D6F PUSH1 0x11 DUP4 PUSH2 0x43D4 JUMP JUMPDEST SWAP2 POP PUSH32 0x206973206D697373696E6720726F6C6520000000000000000000000000000000 PUSH1 0x0 DUP4 ADD MSTORE PUSH1 0x11 DUP3 ADD SWAP1 POP SWAP2 SWAP1 POP JUMP JUMPDEST PUSH1 0x0 PUSH2 0x3DAF PUSH1 0x2F DUP4 PUSH2 0x43C3 JUMP JUMPDEST SWAP2 POP PUSH32 0x416363657373436F6E74726F6C3A2063616E206F6E6C792072656E6F756E6365 PUSH1 0x0 DUP4 ADD MSTORE PUSH32 0x20726F6C657320666F722073656C660000000000000000000000000000000000 PUSH1 0x20 DUP4 ADD MSTORE PUSH1 0x40 DUP3 ADD SWAP1 POP SWAP2 SWAP1 POP JUMP JUMPDEST PUSH2 0x3E11 DUP2 PUSH2 0x4572 JUMP JUMPDEST DUP3 MSTORE POP POP JUMP JUMPDEST PUSH1 0x0 PUSH2 0x3E23 DUP3 DUP6 PUSH2 0x355D JUMP JUMPDEST SWAP2 POP PUSH2 0x3E2F DUP3 DUP5 PUSH2 0x355D JUMP JUMPDEST SWAP2 POP DUP2 SWAP1 POP SWAP4 SWAP3 POP POP POP JUMP JUMPDEST PUSH1 0x0 PUSH2 0x3E46 DUP3 PUSH2 0x3C3C JUMP JUMPDEST SWAP2 POP DUP2 SWAP1 POP SWAP2 SWAP1 POP JUMP JUMPDEST PUSH1 0x0 PUSH2 0x3E5B DUP3 PUSH2 0x3D22 JUMP JUMPDEST SWAP2 POP PUSH2 0x3E67 DUP3 DUP6 PUSH2 0x355D JUMP JUMPDEST SWAP2 POP PUSH2 0x3E72 DUP3 PUSH2 0x3D62 JUMP JUMPDEST SWAP2 POP PUSH2 0x3E7E DUP3 DUP5 PUSH2 0x355D JUMP JUMPDEST SWAP2 POP DUP2 SWAP1 POP SWAP4 SWAP3 POP POP POP JUMP JUMPDEST PUSH1 0x0 PUSH1 0x20 DUP3 ADD SWAP1 POP PUSH2 0x3E9F PUSH1 0x0 DUP4 ADD DUP5 PUSH2 0x34AF JUMP JUMPDEST SWAP3 SWAP2 POP POP JUMP JUMPDEST PUSH1 0x0 PUSH1 0xA0 DUP3 ADD SWAP1 POP PUSH2 0x3EBA PUSH1 0x0 DUP4 ADD DUP9 PUSH2 0x34AF JUMP JUMPDEST PUSH2 0x3EC7 PUSH1 0x20 DUP4 ADD DUP8 PUSH2 0x34AF JUMP JUMPDEST PUSH2 0x3ED4 PUSH1 0x40 DUP4 ADD DUP7 PUSH2 0x34CD JUMP JUMPDEST PUSH2 0x3EE1 PUSH1 0x60 DUP4 ADD DUP6 PUSH2 0x34CD JUMP JUMPDEST PUSH2 0x3EEE PUSH1 0x80 DUP4 ADD DUP5 PUSH2 0x34CD JUMP JUMPDEST SWAP7 SWAP6 POP POP POP POP POP POP JUMP JUMPDEST PUSH1 0x0 PUSH1 0x80 DUP3 ADD SWAP1 POP PUSH2 0x3F0D PUSH1 0x0 DUP4 ADD DUP8 PUSH2 0x34AF JUMP JUMPDEST PUSH2 0x3F1A PUSH1 0x20 DUP4 ADD DUP7 PUSH2 0x34AF JUMP JUMPDEST PUSH2 0x3F27 PUSH1 0x40 DUP4 ADD DUP6 PUSH2 0x3E08 JUMP JUMPDEST DUP2 DUP2 SUB PUSH1 0x60 DUP4 ADD MSTORE PUSH2 0x3F39 DUP2 DUP5 PUSH2 0x34DC JUMP JUMPDEST SWAP1 POP SWAP6 SWAP5 POP POP POP POP POP JUMP JUMPDEST PUSH1 0x0 PUSH1 0x20 DUP3 ADD SWAP1 POP PUSH2 0x3F59 PUSH1 0x0 DUP4 ADD DUP5 PUSH2 0x34BE JUMP JUMPDEST SWAP3 SWAP2 POP POP JUMP JUMPDEST PUSH1 0x0 PUSH1 0x20 DUP3 ADD SWAP1 POP PUSH2 0x3F74 PUSH1 0x0 DUP4 ADD DUP5 PUSH2 0x34CD JUMP JUMPDEST SWAP3 SWAP2 POP POP JUMP JUMPDEST PUSH1 0x0 PUSH1 0x20 DUP3 ADD SWAP1 POP PUSH2 0x3F8F PUSH1 0x0 DUP4 ADD DUP5 PUSH2 0x3515 JUMP JUMPDEST SWAP3 SWAP2 POP POP JUMP JUMPDEST PUSH1 0x0 PUSH1 0x20 DUP3 ADD SWAP1 POP DUP2 DUP2 SUB PUSH1 0x0 DUP4 ADD MSTORE PUSH2 0x3FAF DUP2 DUP5 PUSH2 0x3524 JUMP JUMPDEST SWAP1 POP SWAP3 SWAP2 POP POP JUMP JUMPDEST PUSH1 0x0 PUSH1 0x20 DUP3 ADD SWAP1 POP DUP2 DUP2 SUB PUSH1 0x0 DUP4 ADD MSTORE PUSH2 0x3FD0 DUP2 PUSH2 0x358E JUMP JUMPDEST SWAP1 POP SWAP2 SWAP1 POP JUMP JUMPDEST PUSH1 0x0 PUSH1 0x20 DUP3 ADD SWAP1 POP DUP2 DUP2 SUB PUSH1 0x0 DUP4 ADD MSTORE PUSH2 0x3FF0 DUP2 PUSH2 0x35CE JUMP JUMPDEST SWAP1 POP SWAP2 SWAP1 POP JUMP JUMPDEST PUSH1 0x0 PUSH1 0x20 DUP3 ADD SWAP1 POP DUP2 DUP2 SUB PUSH1 0x0 DUP4 ADD MSTORE PUSH2 0x4010 DUP2 PUSH2 0x3634 JUMP JUMPDEST SWAP1 POP SWAP2 SWAP1 POP JUMP JUMPDEST PUSH1 0x0 PUSH1 0x20 DUP3 ADD SWAP1 POP DUP2 DUP2 SUB PUSH1 0x0 DUP4 ADD MSTORE PUSH2 0x4030 DUP2 PUSH2 0x3674 JUMP JUMPDEST SWAP1 POP SWAP2 SWAP1 POP JUMP JUMPDEST PUSH1 0x0 PUSH1 0x20 DUP3 ADD SWAP1 POP DUP2 DUP2 SUB PUSH1 0x0 DUP4 ADD MSTORE PUSH2 0x4050 DUP2 PUSH2 0x36B4 JUMP JUMPDEST SWAP1 POP SWAP2 SWAP1 POP JUMP JUMPDEST PUSH1 0x0 PUSH1 0x20 DUP3 ADD SWAP1 POP DUP2 DUP2 SUB PUSH1 0x0 DUP4 ADD MSTORE PUSH2 0x4070 DUP2 PUSH2 0x371A JUMP JUMPDEST SWAP1 POP SWAP2 SWAP1 POP JUMP JUMPDEST PUSH1 0x0 PUSH1 0x20 DUP3 ADD SWAP1 POP DUP2 DUP2 SUB PUSH1 0x0 DUP4 ADD MSTORE PUSH2 0x4090 DUP2 PUSH2 0x375A JUMP JUMPDEST SWAP1 POP SWAP2 SWAP1 POP JUMP JUMPDEST PUSH1 0x0 PUSH1 0x20 DUP3 ADD SWAP1 POP DUP2 DUP2 SUB PUSH1 0x0 DUP4 ADD MSTORE PUSH2 0x40B0 DUP2 PUSH2 0x37C0 JUMP JUMPDEST SWAP1 POP SWAP2 SWAP1 POP JUMP JUMPDEST PUSH1 0x0 PUSH1 0x20 DUP3 ADD SWAP1 POP DUP2 DUP2 SUB PUSH1 0x0 DUP4 ADD MSTORE PUSH2 0x40D0 DUP2 PUSH2 0x3800 JUMP JUMPDEST SWAP1 POP SWAP2 SWAP1 POP JUMP JUMPDEST PUSH1 0x0 PUSH1 0x20 DUP3 ADD SWAP1 POP DUP2 DUP2 SUB PUSH1 0x0 DUP4 ADD MSTORE PUSH2 0x40F0 DUP2 PUSH2 0x3866 JUMP JUMPDEST SWAP1 POP SWAP2 SWAP1 POP JUMP JUMPDEST PUSH1 0x0 PUSH1 0x20 DUP3 ADD SWAP1 POP DUP2 DUP2 SUB PUSH1 0x0 DUP4 ADD MSTORE PUSH2 0x4110 DUP2 PUSH2 0x38CC JUMP JUMPDEST SWAP1 POP SWAP2 SWAP1 POP JUMP JUMPDEST PUSH1 0x0 PUSH1 0x20 DUP3 ADD SWAP1 POP DUP2 DUP2 SUB PUSH1 0x0 DUP4 ADD MSTORE PUSH2 0x4130 DUP2 PUSH2 0x3932 JUMP JUMPDEST SWAP1 POP SWAP2 SWAP1 POP JUMP JUMPDEST PUSH1 0x0 PUSH1 0x20 DUP3 ADD SWAP1 POP DUP2 DUP2 SUB PUSH1 0x0 DUP4 ADD MSTORE PUSH2 0x4150 DUP2 PUSH2 0x3998 JUMP JUMPDEST SWAP1 POP SWAP2 SWAP1 POP JUMP JUMPDEST PUSH1 0x0 PUSH1 0x20 DUP3 ADD SWAP1 POP DUP2 DUP2 SUB PUSH1 0x0 DUP4 ADD MSTORE PUSH2 0x4170 DUP2 PUSH2 0x39FE JUMP JUMPDEST SWAP1 POP SWAP2 SWAP1 POP JUMP JUMPDEST PUSH1 0x0 PUSH1 0x20 DUP3 ADD SWAP1 POP DUP2 DUP2 SUB PUSH1 0x0 DUP4 ADD MSTORE PUSH2 0x4190 DUP2 PUSH2 0x3A3E JUMP JUMPDEST SWAP1 POP SWAP2 SWAP1 POP JUMP JUMPDEST PUSH1 0x0 PUSH1 0x20 DUP3 ADD SWAP1 POP DUP2 DUP2 SUB PUSH1 0x0 DUP4 ADD MSTORE PUSH2 0x41B0 DUP2 PUSH2 0x3AA4 JUMP JUMPDEST SWAP1 POP SWAP2 SWAP1 POP JUMP JUMPDEST PUSH1 0x0 PUSH1 0x20 DUP3 ADD SWAP1 POP DUP2 DUP2 SUB PUSH1 0x0 DUP4 ADD MSTORE PUSH2 0x41D0 DUP2 PUSH2 0x3B0A JUMP JUMPDEST SWAP1 POP SWAP2 SWAP1 POP JUMP JUMPDEST PUSH1 0x0 PUSH1 0x20 DUP3 ADD SWAP1 POP DUP2 DUP2 SUB PUSH1 0x0 DUP4 ADD MSTORE PUSH2 0x41F0 DUP2 PUSH2 0x3B70 JUMP JUMPDEST SWAP1 POP SWAP2 SWAP1 POP JUMP JUMPDEST PUSH1 0x0 PUSH1 0x20 DUP3 ADD SWAP1 POP DUP2 DUP2 SUB PUSH1 0x0 DUP4 ADD MSTORE PUSH2 0x4210 DUP2 PUSH2 0x3BD6 JUMP JUMPDEST SWAP1 POP SWAP2 SWAP1 POP JUMP JUMPDEST PUSH1 0x0 PUSH1 0x20 DUP3 ADD SWAP1 POP DUP2 DUP2 SUB PUSH1 0x0 DUP4 ADD MSTORE PUSH2 0x4230 DUP2 PUSH2 0x3C56 JUMP JUMPDEST SWAP1 POP SWAP2 SWAP1 POP JUMP JUMPDEST PUSH1 0x0 PUSH1 0x20 DUP3 ADD SWAP1 POP DUP2 DUP2 SUB PUSH1 0x0 DUP4 ADD MSTORE PUSH2 0x4250 DUP2 PUSH2 0x3CBC JUMP JUMPDEST SWAP1 POP SWAP2 SWAP1 POP JUMP JUMPDEST PUSH1 0x0 PUSH1 0x20 DUP3 ADD SWAP1 POP DUP2 DUP2 SUB PUSH1 0x0 DUP4 ADD MSTORE PUSH2 0x4270 DUP2 PUSH2 0x3DA2 JUMP JUMPDEST SWAP1 POP SWAP2 SWAP1 POP JUMP JUMPDEST PUSH1 0x0 PUSH1 0x20 DUP3 ADD SWAP1 POP PUSH2 0x428C PUSH1 0x0 DUP4 ADD DUP5 PUSH2 0x3E08 JUMP JUMPDEST SWAP3 SWAP2 POP POP JUMP JUMPDEST PUSH1 0x0 PUSH1 0x60 DUP3 ADD SWAP1 POP PUSH2 0x42A7 PUSH1 0x0 DUP4 ADD DUP7 PUSH2 0x3E08 JUMP JUMPDEST PUSH2 0x42B4 PUSH1 0x20 DUP4 ADD DUP6 PUSH2 0x34A0 JUMP JUMPDEST PUSH2 0x42C1 PUSH1 0x40 DUP4 ADD DUP5 PUSH2 0x3E08 JUMP JUMPDEST SWAP5 SWAP4 POP POP POP POP JUMP JUMPDEST PUSH1 0x0 PUSH1 0x60 DUP3 ADD SWAP1 POP PUSH2 0x42DE PUSH1 0x0 DUP4 ADD DUP7 PUSH2 0x3E08 JUMP JUMPDEST PUSH2 0x42EB PUSH1 0x20 DUP4 ADD DUP6 PUSH2 0x34AF JUMP JUMPDEST PUSH2 0x42F8 PUSH1 0x40 DUP4 ADD DUP5 PUSH2 0x34AF JUMP JUMPDEST SWAP5 SWAP4 POP POP POP POP JUMP JUMPDEST PUSH1 0x0 PUSH1 0x40 MLOAD SWAP1 POP DUP2 DUP2 ADD DUP2 DUP2 LT PUSH8 0xFFFFFFFFFFFFFFFF DUP3 GT OR ISZERO PUSH2 0x4327 JUMPI PUSH2 0x4326 PUSH2 0x4757 JUMP JUMPDEST JUMPDEST DUP1 PUSH1 0x40 MSTORE POP SWAP2 SWAP1 POP JUMP JUMPDEST PUSH1 0x0 PUSH8 0xFFFFFFFFFFFFFFFF DUP3 GT ISZERO PUSH2 0x434C JUMPI PUSH2 0x434B PUSH2 0x4757 JUMP JUMPDEST JUMPDEST PUSH1 0x1F NOT PUSH1 0x1F DUP4 ADD AND SWAP1 POP PUSH1 0x20 DUP2 ADD SWAP1 POP SWAP2 SWAP1 POP JUMP JUMPDEST PUSH1 0x0 PUSH8 0xFFFFFFFFFFFFFFFF DUP3 GT ISZERO PUSH2 0x437C JUMPI PUSH2 0x437B PUSH2 0x4757 JUMP JUMPDEST JUMPDEST PUSH1 0x1F NOT PUSH1 0x1F DUP4 ADD AND SWAP1 POP PUSH1 0x20 DUP2 ADD SWAP1 POP SWAP2 SWAP1 POP JUMP JUMPDEST PUSH1 0x0 DUP2 MLOAD SWAP1 POP SWAP2 SWAP1 POP JUMP JUMPDEST PUSH1 0x0 DUP2 MLOAD SWAP1 POP SWAP2 SWAP1 POP JUMP JUMPDEST PUSH1 0x0 DUP3 DUP3 MSTORE PUSH1 0x20 DUP3 ADD SWAP1 POP SWAP3 SWAP2 POP POP JUMP JUMPDEST PUSH1 0x0 DUP2 SWAP1 POP SWAP3 SWAP2 POP POP JUMP JUMPDEST PUSH1 0x0 DUP3 DUP3 MSTORE PUSH1 0x20 DUP3 ADD SWAP1 POP SWAP3 SWAP2 POP POP JUMP JUMPDEST PUSH1 0x0 DUP2 SWAP1 POP SWAP3 SWAP2 POP POP JUMP JUMPDEST PUSH1 0x0 PUSH2 0x43EA DUP3 PUSH2 0x4572 JUMP JUMPDEST SWAP2 POP PUSH2 0x43F5 DUP4 PUSH2 0x4572 JUMP JUMPDEST SWAP3 POP DUP3 PUSH32 0xFFFFFFFFFFFFFFFFFFFFFFFFFFFFFFFFFFFFFFFFFFFFFFFFFFFFFFFFFFFFFFFF SUB DUP3 GT ISZERO PUSH2 0x442A JUMPI PUSH2 0x4429 PUSH2 0x46CA JUMP JUMPDEST JUMPDEST DUP3 DUP3 ADD SWAP1 POP SWAP3 SWAP2 POP POP JUMP JUMPDEST PUSH1 0x0 PUSH2 0x4440 DUP3 PUSH2 0x4572 JUMP JUMPDEST SWAP2 POP PUSH2 0x444B DUP4 PUSH2 0x4572 JUMP JUMPDEST SWAP3 POP DUP3 PUSH2 0x445B JUMPI PUSH2 0x445A PUSH2 0x46F9 JUMP JUMPDEST JUMPDEST DUP3 DUP3 DIV SWAP1 POP SWAP3 SWAP2 POP POP JUMP JUMPDEST PUSH1 0x0 PUSH2 0x4471 DUP3 PUSH2 0x4572 JUMP JUMPDEST SWAP2 POP PUSH2 0x447C DUP4 PUSH2 0x4572 JUMP JUMPDEST SWAP3 POP DUP2 PUSH32 0xFFFFFFFFFFFFFFFFFFFFFFFFFFFFFFFFFFFFFFFFFFFFFFFFFFFFFFFFFFFFFFFF DIV DUP4 GT DUP3 ISZERO ISZERO AND ISZERO PUSH2 0x44B5 JUMPI PUSH2 0x44B4 PUSH2 0x46CA JUMP JUMPDEST JUMPDEST DUP3 DUP3 MUL SWAP1 POP SWAP3 SWAP2 POP POP JUMP JUMPDEST PUSH1 0x0 PUSH2 0x44CB DUP3 PUSH2 0x4572 JUMP JUMPDEST SWAP2 POP PUSH2 0x44D6 DUP4 PUSH2 0x4572 JUMP JUMPDEST SWAP3 POP DUP3 DUP3 LT ISZERO PUSH2 0x44E9 JUMPI PUSH2 0x44E8 PUSH2 0x46CA JUMP JUMPDEST JUMPDEST DUP3 DUP3 SUB SWAP1 POP SWAP3 SWAP2 POP POP JUMP JUMPDEST PUSH1 0x0 PUSH2 0x44FF DUP3 PUSH2 0x4552 JUMP JUMPDEST SWAP1 POP SWAP2 SWAP1 POP JUMP JUMPDEST PUSH1 0x0 DUP2 ISZERO ISZERO SWAP1 POP SWAP2 SWAP1 POP JUMP JUMPDEST PUSH1 0x0 DUP2 SWAP1 POP SWAP2 SWAP1 POP JUMP JUMPDEST PUSH1 0x0 PUSH32 0xFFFFFFFF00000000000000000000000000000000000000000000000000000000 DUP3 AND SWAP1 POP SWAP2 SWAP1 POP JUMP JUMPDEST PUSH1 0x0 DUP2 SWAP1 POP SWAP2 SWAP1 POP JUMP JUMPDEST PUSH1 0x0 PUSH20 0xFFFFFFFFFFFFFFFFFFFFFFFFFFFFFFFFFFFFFFFF DUP3 AND SWAP1 POP SWAP2 SWAP1 POP JUMP JUMPDEST PUSH1 0x0 DUP2 SWAP1 POP SWAP2 SWAP1 POP JUMP JUMPDEST PUSH1 0x0 PUSH2 0x4587 DUP3 PUSH2 0x458E JUMP JUMPDEST SWAP1 POP SWAP2 SWAP1 POP JUMP JUMPDEST PUSH1 0x0 PUSH2 0x4599 DUP3 PUSH2 0x45A0 JUMP JUMPDEST SWAP1 POP SWAP2 SWAP1 POP JUMP JUMPDEST PUSH1 0x0 PUSH2 0x45AB DUP3 PUSH2 0x4552 JUMP JUMPDEST SWAP1 POP SWAP2 SWAP1 POP JUMP JUMPDEST DUP3 DUP2 DUP4 CALLDATACOPY PUSH1 0x0 DUP4 DUP4 ADD MSTORE POP POP POP JUMP JUMPDEST PUSH1 0x0 JUMPDEST DUP4 DUP2 LT ISZERO PUSH2 0x45DF JUMPI DUP1 DUP3 ADD MLOAD DUP2 DUP5 ADD MSTORE PUSH1 0x20 DUP2 ADD SWAP1 POP PUSH2 0x45C4 JUMP JUMPDEST DUP4 DUP2 GT ISZERO PUSH2 0x45EE JUMPI PUSH1 0x0 DUP5 DUP5 ADD MSTORE JUMPDEST POP POP POP POP JUMP JUMPDEST PUSH1 0x0 PUSH2 0x45FF DUP3 PUSH2 0x4572 JUMP JUMPDEST SWAP2 POP PUSH1 0x0 DUP3 EQ ISZERO PUSH2 0x4613 JUMPI PUSH2 0x4612 PUSH2 0x46CA JUMP JUMPDEST JUMPDEST PUSH1 0x1 DUP3 SUB SWAP1 POP SWAP2 SWAP1 POP JUMP JUMPDEST PUSH1 0x0 PUSH1 0x2 DUP3 DIV SWAP1 POP PUSH1 0x1 DUP3 AND DUP1 PUSH2 0x4636 JUMPI PUSH1 0x7F DUP3 AND SWAP2 POP JUMPDEST PUSH1 0x20 DUP3 LT DUP2 EQ ISZERO PUSH2 0x464A JUMPI PUSH2 0x4649 PUSH2 0x4728 JUMP JUMPDEST JUMPDEST POP SWAP2 SWAP1 POP JUMP JUMPDEST PUSH1 0x0 PUSH2 0x465B DUP3 PUSH2 0x4572 JUMP JUMPDEST SWAP2 POP PUSH32 0xFFFFFFFFFFFFFFFFFFFFFFFFFFFFFFFFFFFFFFFFFFFFFFFFFFFFFFFFFFFFFFFF DUP3 EQ ISZERO PUSH2 0x468E JUMPI PUSH2 0x468D PUSH2 0x46CA JUMP JUMPDEST JUMPDEST PUSH1 0x1 DUP3 ADD SWAP1 POP SWAP2 SWAP1 POP JUMP JUMPDEST PUSH1 0x0 PUSH2 0x46A4 DUP3 PUSH2 0x4572 JUMP JUMPDEST SWAP2 POP PUSH2 0x46AF DUP4 PUSH2 0x4572 JUMP JUMPDEST SWAP3 POP DUP3 PUSH2 0x46BF JUMPI PUSH2 0x46BE PUSH2 0x46F9 JUMP JUMPDEST JUMPDEST DUP3 DUP3 MOD SWAP1 POP SWAP3 SWAP2 POP POP JUMP JUMPDEST PUSH32 0x4E487B7100000000000000000000000000000000000000000000000000000000 PUSH1 0x0 MSTORE PUSH1 0x11 PUSH1 0x4 MSTORE PUSH1 0x24 PUSH1 0x0 REVERT JUMPDEST PUSH32 0x4E487B7100000000000000000000000000000000000000000000000000000000 PUSH1 0x0 MSTORE PUSH1 0x12 PUSH1 0x4 MSTORE PUSH1 0x24 PUSH1 0x0 REVERT JUMPDEST PUSH32 0x4E487B7100000000000000000000000000000000000000000000000000000000 PUSH1 0x0 MSTORE PUSH1 0x22 PUSH1 0x4 MSTORE PUSH1 0x24 PUSH1 0x0 REVERT JUMPDEST PUSH32 0x4E487B7100000000000000000000000000000000000000000000000000000000 PUSH1 0x0 MSTORE PUSH1 0x41 PUSH1 0x4 MSTORE PUSH1 0x24 PUSH1 0x0 REVERT JUMPDEST PUSH1 0x0 PUSH1 0x1F NOT PUSH1 0x1F DUP4 ADD AND SWAP1 POP SWAP2 SWAP1 POP JUMP JUMPDEST PUSH2 0x47A0 DUP2 PUSH2 0x44F4 JUMP JUMPDEST DUP2 EQ PUSH2 0x47AB JUMPI PUSH1 0x0 DUP1 REVERT JUMPDEST POP JUMP JUMPDEST PUSH2 0x47B7 DUP2 PUSH2 0x4506 JUMP JUMPDEST DUP2 EQ PUSH2 0x47C2 JUMPI PUSH1 0x0 DUP1 REVERT JUMPDEST POP JUMP JUMPDEST PUSH2 0x47CE DUP2 PUSH2 0x4512 JUMP JUMPDEST DUP2 EQ PUSH2 0x47D9 JUMPI PUSH1 0x0 DUP1 REVERT JUMPDEST POP JUMP JUMPDEST PUSH2 0x47E5 DUP2 PUSH2 0x451C JUMP JUMPDEST DUP2 EQ PUSH2 0x47F0 JUMPI PUSH1 0x0 DUP1 REVERT JUMPDEST POP JUMP JUMPDEST PUSH2 0x47FC DUP2 PUSH2 0x4548 JUMP JUMPDEST DUP2 EQ PUSH2 0x4807 JUMPI PUSH1 0x0 DUP1 REVERT JUMPDEST POP JUMP JUMPDEST PUSH2 0x4813 DUP2 PUSH2 0x4572 JUMP JUMPDEST DUP2 EQ PUSH2 0x481E JUMPI PUSH1 0x0 DUP1 REVERT JUMPDEST POP JUMP INVALID LOG2 PUSH5 0x6970667358 0x22 SLT KECCAK256 0xAF SHR 0xEC 0xE DUP4 SAR ADDMOD LOG0 0xE4 LOG0 CALLER CHAINID 0xC5 SWAP8 GAS 0xBD 0x49 PUSH30 0xCF14FD6B21593FE1E2E9B0C1441D64736F6C634300080000330000000000 "
		},
		"gasEstimates": {
			"creation": {
				"codeDepositCost": "3703800",
				"executionCost": "infinite",
				"totalCost": "infinite"
			},
			"external": {
				"DEFAULT_ADMIN_ROLE()": "468",
				"EURO_WEI()": "395",
				"MIN_STATION_LONG()": "440",
				"MIN_STATION_MEDIUM()": "396",
				"TICKET_PRICE_LONG()": "infinite",
				"TICKET_PRICE_MEDIUM()": "infinite",
				"TICKET_PRICE_SHORT()": "462",
				"USAGE_SETTER_ROLE()": "374",
				"addAdminRole(address)": "infinite",
				"addUsageSetterRole(address)": "infinite",
				"approve(address,uint256)": "infinite",
				"balanceOf(address)": "1669",
				"buyTicket(address,string,int256,string,string,uint256)": "infinite",
				"getApproved(uint256)": "2651",
				"getRoleAdmin(bytes32)": "infinite",
				"grantRole(bytes32,address)": "infinite",
				"hasRole(bytes32,address)": "1929",
				"isAdmin(address)": "1767",
				"isApprovedForAll(address,address)": "infinite",
				"isUsageSetter(address)": "1804",
				"name()": "infinite",
				"ownerOf(uint256)": "1694",
				"refund(uint256)": "infinite",
				"removeAdminRole(address)": "infinite",
				"removeUsageSetterRole(address)": "infinite",
				"renounceRole(bytes32,address)": "infinite",
				"revokeRole(bytes32,address)": "infinite",
				"safeTransferFrom(address,address,uint256)": "infinite",
				"safeTransferFrom(address,address,uint256,bytes)": "infinite",
				"setApprovalForAll(address,bool)": "infinite",
				"supportsInterface(bytes4)": "952",
				"symbol()": "infinite",
				"tokenURI(uint256)": "infinite",
				"transferFrom(address,address,uint256)": "infinite",
				"useTicket(uint256)": "infinite"
			},
			"internal": {
				"checkPaidAmount(uint256,int256)": "infinite"
			}
		},
		"methodIdentifiers": {
			"DEFAULT_ADMIN_ROLE()": "a217fddf",
			"EURO_WEI()": "ce4aa9e4",
			"MIN_STATION_LONG()": "51f49744",
			"MIN_STATION_MEDIUM()": "b2085d56",
			"TICKET_PRICE_LONG()": "87a46059",
			"TICKET_PRICE_MEDIUM()": "0ba56c4c",
			"TICKET_PRICE_SHORT()": "634c0868",
			"USAGE_SETTER_ROLE()": "765cbc9b",
			"addAdminRole(address)": "6595171c",
			"addUsageSetterRole(address)": "c8c140b9",
			"approve(address,uint256)": "095ea7b3",
			"balanceOf(address)": "70a08231",
			"buyTicket(address,string,int256,string,string,uint256)": "09ca21a6",
			"getApproved(uint256)": "081812fc",
			"getRoleAdmin(bytes32)": "248a9ca3",
			"grantRole(bytes32,address)": "2f2ff15d",
			"hasRole(bytes32,address)": "91d14854",
			"isAdmin(address)": "24d7806c",
			"isApprovedForAll(address,address)": "e985e9c5",
			"isUsageSetter(address)": "4eef5790",
			"name()": "06fdde03",
			"ownerOf(uint256)": "6352211e",
			"refund(uint256)": "278ecde1",
			"removeAdminRole(address)": "dccfe310",
			"removeUsageSetterRole(address)": "74648138",
			"renounceRole(bytes32,address)": "36568abe",
			"revokeRole(bytes32,address)": "d547741f",
			"safeTransferFrom(address,address,uint256)": "42842e0e",
			"safeTransferFrom(address,address,uint256,bytes)": "b88d4fde",
			"setApprovalForAll(address,bool)": "a22cb465",
			"supportsInterface(bytes4)": "01ffc9a7",
			"symbol()": "95d89b41",
			"tokenURI(uint256)": "c87b56dd",
			"transferFrom(address,address,uint256)": "23b872dd",
			"useTicket(uint256)": "26606448"
		}
	},
	"abi": [
		{
			"inputs": [],
			"stateMutability": "nonpayable",
			"type": "constructor"
		},
		{
			"anonymous": false,
			"inputs": [
				{
					"indexed": true,
					"internalType": "address",
					"name": "owner",
					"type": "address"
				},
				{
					"indexed": true,
					"internalType": "address",
					"name": "approved",
					"type": "address"
				},
				{
					"indexed": true,
					"internalType": "uint256",
					"name": "tokenId",
					"type": "uint256"
				}
			],
			"name": "Approval",
			"type": "event"
		},
		{
			"anonymous": false,
			"inputs": [
				{
					"indexed": true,
					"internalType": "address",
					"name": "owner",
					"type": "address"
				},
				{
					"indexed": true,
					"internalType": "address",
					"name": "operator",
					"type": "address"
				},
				{
					"indexed": false,
					"internalType": "bool",
					"name": "approved",
					"type": "bool"
				}
			],
			"name": "ApprovalForAll",
			"type": "event"
		},
		{
			"anonymous": false,
			"inputs": [
				{
					"indexed": false,
					"internalType": "address",
					"name": "user",
					"type": "address"
				}
			],
			"name": "ChecksoloAdmins",
			"type": "event"
		},
		{
			"anonymous": false,
			"inputs": [
				{
					"indexed": false,
					"internalType": "address",
					"name": "user",
					"type": "address"
				}
			],
			"name": "ChecksoloUsageSetters",
			"type": "event"
		},
		{
			"anonymous": false,
			"inputs": [
				{
					"indexed": false,
					"internalType": "address",
					"name": "user",
					"type": "address"
				},
				{
					"indexed": false,
					"internalType": "address",
					"name": "sender",
					"type": "address"
				},
				{
					"indexed": false,
					"internalType": "bytes32",
					"name": "role",
					"type": "bytes32"
				},
				{
					"indexed": false,
					"internalType": "bytes32",
					"name": "adminRole",
					"type": "bytes32"
				},
				{
					"indexed": false,
					"internalType": "bytes32",
					"name": "senderRole",
					"type": "bytes32"
				}
			],
			"name": "Debug",
			"type": "event"
		},
		{
			"anonymous": false,
			"inputs": [
				{
					"indexed": false,
					"internalType": "uint256",
					"name": "ticketId",
					"type": "uint256"
				},
				{
					"indexed": false,
					"internalType": "address",
					"name": "user",
					"type": "address"
				},
				{
					"indexed": false,
					"internalType": "uint256",
					"name": "refundedAmount",
					"type": "uint256"
				}
			],
			"name": "RefundTicket",
			"type": "event"
		},
		{
			"anonymous": false,
			"inputs": [
				{
					"indexed": true,
					"internalType": "bytes32",
					"name": "role",
					"type": "bytes32"
				},
				{
					"indexed": true,
					"internalType": "bytes32",
					"name": "previousAdminRole",
					"type": "bytes32"
				},
				{
					"indexed": true,
					"internalType": "bytes32",
					"name": "newAdminRole",
					"type": "bytes32"
				}
			],
			"name": "RoleAdminChanged",
			"type": "event"
		},
		{
			"anonymous": false,
			"inputs": [
				{
					"indexed": true,
					"internalType": "bytes32",
					"name": "role",
					"type": "bytes32"
				},
				{
					"indexed": true,
					"internalType": "address",
					"name": "account",
					"type": "address"
				},
				{
					"indexed": true,
					"internalType": "address",
					"name": "sender",
					"type": "address"
				}
			],
			"name": "RoleGranted",
			"type": "event"
		},
		{
			"anonymous": false,
			"inputs": [
				{
					"indexed": true,
					"internalType": "bytes32",
					"name": "role",
					"type": "bytes32"
				},
				{
					"indexed": true,
					"internalType": "address",
					"name": "account",
					"type": "address"
				},
				{
					"indexed": true,
					"internalType": "address",
					"name": "sender",
					"type": "address"
				}
			],
			"name": "RoleRevoked",
			"type": "event"
		},
		{
			"anonymous": false,
			"inputs": [
				{
					"indexed": true,
					"internalType": "address",
					"name": "from",
					"type": "address"
				},
				{
					"indexed": true,
					"internalType": "address",
					"name": "to",
					"type": "address"
				},
				{
					"indexed": true,
					"internalType": "uint256",
					"name": "tokenId",
					"type": "uint256"
				}
			],
			"name": "Transfer",
			"type": "event"
		},
		{
			"anonymous": false,
			"inputs": [
				{
					"indexed": false,
					"internalType": "uint256",
					"name": "ticketId",
					"type": "uint256"
				},
				{
					"indexed": false,
					"internalType": "address",
					"name": "ownerAccount",
					"type": "address"
				},
				{
					"indexed": false,
					"internalType": "address",
					"name": "usageSetter",
					"type": "address"
				}
			],
			"name": "UseTicket",
			"type": "event"
		},
		{
			"inputs": [],
			"name": "DEFAULT_ADMIN_ROLE",
			"outputs": [
				{
					"internalType": "bytes32",
					"name": "",
					"type": "bytes32"
				}
			],
			"stateMutability": "view",
			"type": "function"
		},
		{
			"inputs": [],
			"name": "EURO_WEI",
			"outputs": [
				{
					"internalType": "uint256",
					"name": "",
					"type": "uint256"
				}
			],
			"stateMutability": "view",
			"type": "function"
		},
		{
			"inputs": [],
			"name": "MIN_STATION_LONG",
			"outputs": [
				{
					"internalType": "int256",
					"name": "",
					"type": "int256"
				}
			],
			"stateMutability": "view",
			"type": "function"
		},
		{
			"inputs": [],
			"name": "MIN_STATION_MEDIUM",
			"outputs": [
				{
					"internalType": "int256",
					"name": "",
					"type": "int256"
				}
			],
			"stateMutability": "view",
			"type": "function"
		},
		{
			"inputs": [],
			"name": "TICKET_PRICE_LONG",
			"outputs": [
				{
					"internalType": "uint256",
					"name": "",
					"type": "uint256"
				}
			],
			"stateMutability": "view",
			"type": "function"
		},
		{
			"inputs": [],
			"name": "TICKET_PRICE_MEDIUM",
			"outputs": [
				{
					"internalType": "uint256",
					"name": "",
					"type": "uint256"
				}
			],
			"stateMutability": "view",
			"type": "function"
		},
		{
			"inputs": [],
			"name": "TICKET_PRICE_SHORT",
			"outputs": [
				{
					"internalType": "uint256",
					"name": "",
					"type": "uint256"
				}
			],
			"stateMutability": "view",
			"type": "function"
		},
		{
			"inputs": [],
			"name": "USAGE_SETTER_ROLE",
			"outputs": [
				{
					"internalType": "bytes32",
					"name": "",
					"type": "bytes32"
				}
			],
			"stateMutability": "view",
			"type": "function"
		},
		{
			"inputs": [
				{
					"internalType": "address",
					"name": "to",
					"type": "address"
				}
			],
			"name": "addAdminRole",
			"outputs": [],
			"stateMutability": "nonpayable",
			"type": "function"
		},
		{
			"inputs": [
				{
					"internalType": "address",
					"name": "to",
					"type": "address"
				}
			],
			"name": "addUsageSetterRole",
			"outputs": [],
			"stateMutability": "nonpayable",
			"type": "function"
		},
		{
			"inputs": [
				{
					"internalType": "address",
					"name": "to",
					"type": "address"
				},
				{
					"internalType": "uint256",
					"name": "tokenId",
					"type": "uint256"
				}
			],
			"name": "approve",
			"outputs": [],
			"stateMutability": "nonpayable",
			"type": "function"
		},
		{
			"inputs": [
				{
					"internalType": "address",
					"name": "owner",
					"type": "address"
				}
			],
			"name": "balanceOf",
			"outputs": [
				{
					"internalType": "uint256",
					"name": "",
					"type": "uint256"
				}
			],
			"stateMutability": "view",
			"type": "function"
		},
		{
			"inputs": [
				{
					"internalType": "address",
					"name": "buyer",
					"type": "address"
				},
				{
					"internalType": "string",
					"name": "ticketURI",
					"type": "string"
				},
				{
					"internalType": "int256",
					"name": "stationNum",
					"type": "int256"
				},
				{
					"internalType": "string",
					"name": "startStation",
					"type": "string"
				},
				{
					"internalType": "string",
					"name": "endStation",
					"type": "string"
				},
				{
					"internalType": "uint256",
					"name": "date",
					"type": "uint256"
				}
			],
			"name": "buyTicket",
			"outputs": [
				{
					"internalType": "uint256",
					"name": "",
					"type": "uint256"
				}
			],
			"stateMutability": "payable",
			"type": "function"
		},
		{
			"inputs": [
				{
					"internalType": "uint256",
					"name": "tokenId",
					"type": "uint256"
				}
			],
			"name": "getApproved",
			"outputs": [
				{
					"internalType": "address",
					"name": "",
					"type": "address"
				}
			],
			"stateMutability": "view",
			"type": "function"
		},
		{
			"inputs": [
				{
					"internalType": "bytes32",
					"name": "role",
					"type": "bytes32"
				}
			],
			"name": "getRoleAdmin",
			"outputs": [
				{
					"internalType": "bytes32",
					"name": "",
					"type": "bytes32"
				}
			],
			"stateMutability": "view",
			"type": "function"
		},
		{
			"inputs": [
				{
					"internalType": "bytes32",
					"name": "role",
					"type": "bytes32"
				},
				{
					"internalType": "address",
					"name": "account",
					"type": "address"
				}
			],
			"name": "grantRole",
			"outputs": [],
			"stateMutability": "nonpayable",
			"type": "function"
		},
		{
			"inputs": [
				{
					"internalType": "bytes32",
					"name": "role",
					"type": "bytes32"
				},
				{
					"internalType": "address",
					"name": "account",
					"type": "address"
				}
			],
			"name": "hasRole",
			"outputs": [
				{
					"internalType": "bool",
					"name": "",
					"type": "bool"
				}
			],
			"stateMutability": "view",
			"type": "function"
		},
		{
			"inputs": [
				{
					"internalType": "address",
					"name": "account",
					"type": "address"
				}
			],
			"name": "isAdmin",
			"outputs": [
				{
					"internalType": "bool",
					"name": "",
					"type": "bool"
				}
			],
			"stateMutability": "view",
			"type": "function"
		},
		{
			"inputs": [
				{
					"internalType": "address",
					"name": "owner",
					"type": "address"
				},
				{
					"internalType": "address",
					"name": "operator",
					"type": "address"
				}
			],
			"name": "isApprovedForAll",
			"outputs": [
				{
					"internalType": "bool",
					"name": "",
					"type": "bool"
				}
			],
			"stateMutability": "view",
			"type": "function"
		},
		{
			"inputs": [
				{
					"internalType": "address",
					"name": "account",
					"type": "address"
				}
			],
			"name": "isUsageSetter",
			"outputs": [
				{
					"internalType": "bool",
					"name": "",
					"type": "bool"
				}
			],
			"stateMutability": "view",
			"type": "function"
		},
		{
			"inputs": [],
			"name": "name",
			"outputs": [
				{
					"internalType": "string",
					"name": "",
					"type": "string"
				}
			],
			"stateMutability": "view",
			"type": "function"
		},
		{
			"inputs": [
				{
					"internalType": "uint256",
					"name": "tokenId",
					"type": "uint256"
				}
			],
			"name": "ownerOf",
			"outputs": [
				{
					"internalType": "address",
					"name": "",
					"type": "address"
				}
			],
			"stateMutability": "view",
			"type": "function"
		},
		{
			"inputs": [
				{
					"internalType": "uint256",
					"name": "ticketId",
					"type": "uint256"
				}
			],
			"name": "refund",
			"outputs": [],
			"stateMutability": "nonpayable",
			"type": "function"
		},
		{
			"inputs": [
				{
					"internalType": "address",
					"name": "to",
					"type": "address"
				}
			],
			"name": "removeAdminRole",
			"outputs": [],
			"stateMutability": "nonpayable",
			"type": "function"
		},
		{
			"inputs": [
				{
					"internalType": "address",
					"name": "to",
					"type": "address"
				}
			],
			"name": "removeUsageSetterRole",
			"outputs": [],
			"stateMutability": "nonpayable",
			"type": "function"
		},
		{
			"inputs": [
				{
					"internalType": "bytes32",
					"name": "role",
					"type": "bytes32"
				},
				{
					"internalType": "address",
					"name": "account",
					"type": "address"
				}
			],
			"name": "renounceRole",
			"outputs": [],
			"stateMutability": "nonpayable",
			"type": "function"
		},
		{
			"inputs": [
				{
					"internalType": "bytes32",
					"name": "role",
					"type": "bytes32"
				},
				{
					"internalType": "address",
					"name": "account",
					"type": "address"
				}
			],
			"name": "revokeRole",
			"outputs": [],
			"stateMutability": "nonpayable",
			"type": "function"
		},
		{
			"inputs": [
				{
					"internalType": "address",
					"name": "from",
					"type": "address"
				},
				{
					"internalType": "address",
					"name": "to",
					"type": "address"
				},
				{
					"internalType": "uint256",
					"name": "tokenId",
					"type": "uint256"
				}
			],
			"name": "safeTransferFrom",
			"outputs": [],
			"stateMutability": "nonpayable",
			"type": "function"
		},
		{
			"inputs": [
				{
					"internalType": "address",
					"name": "from",
					"type": "address"
				},
				{
					"internalType": "address",
					"name": "to",
					"type": "address"
				},
				{
					"internalType": "uint256",
					"name": "tokenId",
					"type": "uint256"
				},
				{
					"internalType": "bytes",
					"name": "_data",
					"type": "bytes"
				}
			],
			"name": "safeTransferFrom",
			"outputs": [],
			"stateMutability": "nonpayable",
			"type": "function"
		},
		{
			"inputs": [
				{
					"internalType": "address",
					"name": "operator",
					"type": "address"
				},
				{
					"internalType": "bool",
					"name": "approved",
					"type": "bool"
				}
			],
			"name": "setApprovalForAll",
			"outputs": [],
			"stateMutability": "nonpayable",
			"type": "function"
		},
		{
			"inputs": [
				{
					"internalType": "bytes4",
					"name": "interfaceId",
					"type": "bytes4"
				}
			],
			"name": "supportsInterface",
			"outputs": [
				{
					"internalType": "bool",
					"name": "",
					"type": "bool"
				}
			],
			"stateMutability": "view",
			"type": "function"
		},
		{
			"inputs": [],
			"name": "symbol",
			"outputs": [
				{
					"internalType": "string",
					"name": "",
					"type": "string"
				}
			],
			"stateMutability": "view",
			"type": "function"
		},
		{
			"inputs": [
				{
					"internalType": "uint256",
					"name": "tokenId",
					"type": "uint256"
				}
			],
			"name": "tokenURI",
			"outputs": [
				{
					"internalType": "string",
					"name": "",
					"type": "string"
				}
			],
			"stateMutability": "view",
			"type": "function"
		},
		{
			"inputs": [
				{
					"internalType": "address",
					"name": "from",
					"type": "address"
				},
				{
					"internalType": "address",
					"name": "to",
					"type": "address"
				},
				{
					"internalType": "uint256",
					"name": "tokenId",
					"type": "uint256"
				}
			],
			"name": "transferFrom",
			"outputs": [],
			"stateMutability": "nonpayable",
			"type": "function"
		},
		{
			"inputs": [
				{
					"internalType": "uint256",
					"name": "ticketId",
					"type": "uint256"
				}
			],
			"name": "useTicket",
			"outputs": [],
			"stateMutability": "nonpayable",
			"type": "function"
		}
	]
}